{"abi":[{"type":"constructor","inputs":[{"name":"_usdcToken","type":"address","internalType":"address"},{"name":"_feeManager","type":"address","internalType":"address"},{"name":"admin","type":"address","internalType":"address"}],"stateMutability":"nonpayable"},{"type":"function","name":"DEFAULT_ADMIN_ROLE","inputs":[],"outputs":[{"name":"","type":"bytes32","internalType":"bytes32"}],"stateMutability":"view"},{"type":"function","name":"OPERATOR_ROLE","inputs":[],"outputs":[{"name":"","type":"bytes32","internalType":"bytes32"}],"stateMutability":"view"},{"type":"function","name":"balances","inputs":[{"name":"","type":"address","internalType":"address"}],"outputs":[{"name":"","type":"uint256","internalType":"uint256"}],"stateMutability":"view"},{"type":"function","name":"deductFee","inputs":[{"name":"user","type":"address","internalType":"address"},{"name":"actionType","type":"uint8","internalType":"uint8"}],"outputs":[],"stateMutability":"nonpayable"},{"type":"function","name":"deposit","inputs":[{"name":"amount","type":"uint256","internalType":"uint256"}],"outputs":[],"stateMutability":"nonpayable"},{"type":"function","name":"feeManager","inputs":[],"outputs":[{"name":"","type":"address","internalType":"contract IFeeManager"}],"stateMutability":"view"},{"type":"function","name":"getBalance","inputs":[{"name":"user","type":"address","internalType":"address"}],"outputs":[{"name":"","type":"uint256","internalType":"uint256"}],"stateMutability":"view"},{"type":"function","name":"getRoleAdmin","inputs":[{"name":"role","type":"bytes32","internalType":"bytes32"}],"outputs":[{"name":"","type":"bytes32","internalType":"bytes32"}],"stateMutability":"view"},{"type":"function","name":"grantRole","inputs":[{"name":"role","type":"bytes32","internalType":"bytes32"},{"name":"account","type":"address","internalType":"address"}],"outputs":[],"stateMutability":"nonpayable"},{"type":"function","name":"hasRole","inputs":[{"name":"role","type":"bytes32","internalType":"bytes32"},{"name":"account","type":"address","internalType":"address"}],"outputs":[{"name":"","type":"bool","internalType":"bool"}],"stateMutability":"view"},{"type":"function","name":"renounceRole","inputs":[{"name":"role","type":"bytes32","internalType":"bytes32"},{"name":"callerConfirmation","type":"address","internalType":"address"}],"outputs":[],"stateMutability":"nonpayable"},{"type":"function","name":"revokeRole","inputs":[{"name":"role","type":"bytes32","internalType":"bytes32"},{"name":"account","type":"address","internalType":"address"}],"outputs":[],"stateMutability":"nonpayable"},{"type":"function","name":"supportsInterface","inputs":[{"name":"interfaceId","type":"bytes4","internalType":"bytes4"}],"outputs":[{"name":"","type":"bool","internalType":"bool"}],"stateMutability":"view"},{"type":"function","name":"totalDeposited","inputs":[],"outputs":[{"name":"","type":"uint256","internalType":"uint256"}],"stateMutability":"view"},{"type":"function","name":"totalSpent","inputs":[],"outputs":[{"name":"","type":"uint256","internalType":"uint256"}],"stateMutability":"view"},{"type":"function","name":"usdcToken","inputs":[],"outputs":[{"name":"","type":"address","internalType":"contract IERC20"}],"stateMutability":"view"},{"type":"function","name":"withdraw","inputs":[{"name":"amount","type":"uint256","internalType":"uint256"}],"outputs":[],"stateMutability":"nonpayable"},{"type":"event","name":"Deposited","inputs":[{"name":"user","type":"address","indexed":true,"internalType":"address"},{"name":"amount","type":"uint256","indexed":false,"internalType":"uint256"},{"name":"newBalance","type":"uint256","indexed":false,"internalType":"uint256"}],"anonymous":false},{"type":"event","name":"FeeDeducted","inputs":[{"name":"user","type":"address","indexed":true,"internalType":"address"},{"name":"actionType","type":"uint8","indexed":false,"internalType":"uint8"},{"name":"fee","type":"uint256","indexed":false,"internalType":"uint256"}],"anonymous":false},{"type":"event","name":"RoleAdminChanged","inputs":[{"name":"role","type":"bytes32","indexed":true,"internalType":"bytes32"},{"name":"previousAdminRole","type":"bytes32","indexed":true,"internalType":"bytes32"},{"name":"newAdminRole","type":"bytes32","indexed":true,"internalType":"bytes32"}],"anonymous":false},{"type":"event","name":"RoleGranted","inputs":[{"name":"role","type":"bytes32","indexed":true,"internalType":"bytes32"},{"name":"account","type":"address","indexed":true,"internalType":"address"},{"name":"sender","type":"address","indexed":true,"internalType":"address"}],"anonymous":false},{"type":"event","name":"RoleRevoked","inputs":[{"name":"role","type":"bytes32","indexed":true,"internalType":"bytes32"},{"name":"account","type":"address","indexed":true,"internalType":"address"},{"name":"sender","type":"address","indexed":true,"internalType":"address"}],"anonymous":false},{"type":"event","name":"Withdrawn","inputs":[{"name":"user","type":"address","indexed":true,"internalType":"address"},{"name":"amount","type":"uint256","indexed":false,"internalType":"uint256"},{"name":"remainingBalance","type":"uint256","indexed":false,"internalType":"uint256"}],"anonymous":false},{"type":"error","name":"AccessControlBadConfirmation","inputs":[]},{"type":"error","name":"AccessControlUnauthorizedAccount","inputs":[{"name":"account","type":"address","internalType":"address"},{"name":"neededRole","type":"bytes32","internalType":"bytes32"}]},{"type":"error","name":"InsufficientBalance","inputs":[]},{"type":"error","name":"SafeERC20FailedOperation","inputs":[{"name":"token","type":"address","internalType":"address"}]}],"bytecode":{"object":"0x60c0604052346100575761001a610014610138565b91610201565b61002261005c565b6114366103f582396080518181816101fa01528181610a860152610f07015260a0518181816106d20152610d8e015261143690f35b610062565b60405190565b5f80fd5b601f801991011690565b634e487b7160e01b5f52604160045260245ffd5b9061008e90610066565b810190811060018060401b038211176100a657604052565b610070565b906100be6100b761005c565b9283610084565b565b5f80fd5b60018060a01b031690565b6100d8906100c4565b90565b6100e4816100cf565b036100eb57565b5f80fd5b905051906100fc826100db565b565b909160608284031261013357610130610119845f85016100ef565b9361012781602086016100ef565b936040016100ef565b90565b6100c0565b61015661182b8038038061014b816100ab565b9283398101906100fe565b909192565b90565b61017261016d610177926100c4565b61015b565b6100c4565b90565b6101839061015e565b90565b61018f9061017a565b90565b61019b9061015e565b90565b6101a790610192565b90565b90565b90565b5f1b90565b6101c96101c46101ce926101aa565b6101b0565b6101ad565b90565b6101da5f6101b5565b90565b7f97667070c54ef182b0f5858b034beac1b6f3089aa2d3188bb1e8929f4fa9b92990565b61023d929161021261021a92610186565b60805261019e565b60a05261022f6102286101d1565b82906102e3565b506102386101dd565b6102e3565b50565b5f90565b151590565b610252906101ad565b90565b9061025f90610249565b5f5260205260405f2090565b6102749061015e565b90565b6102809061026b565b90565b9061028d90610277565b5f5260205260405f2090565b906102a560ff916101b0565b9181191691161790565b6102b890610244565b90565b90565b906102d36102ce6102da926102af565b6102bb565b8254610299565b9055565b5f0190565b6102eb610240565b506103006102fa8284906103ba565b15610244565b5f146103885761032760016103225f61031a818690610255565b018590610283565b6102be565b906103306103e7565b9061036d6103676103617f2f8788117e7eff1d82e926ec794901d17c78024a50270940304540a733656f0d95610249565b92610277565b92610277565b9261037661005c565b80610380816102de565b0390a4600190565b50505f90565b5f1c90565b60ff1690565b6103a56103aa9161038e565b610393565b90565b6103b79054610399565b90565b6103e0915f6103d56103db936103ce610240565b5082610255565b01610283565b6103ad565b90565b5f90565b6103ef6103e3565b50339056fe60806040526004361015610013575b6108ac565b61001d5f3561012c565b806301ffc9a71461012757806311eac85514610122578063248a9ca31461011d57806327e235e3146101185780632e1a7d4d146101135780632f2ff15d1461010e57806336568abe1461010957806391d1485414610104578063a217fddf146100ff578063abc5d632146100fa578063b6b55f25146100f5578063d0fb0203146100f0578063d547741f146100eb578063f5b541a6146100e6578063f8b2cb4f146100e1578063fb346eab146100dc5763ff50abdc0361000e57610877565b610833565b6107ef565b6107ba565b610757565b610722565b61069d565b610669565b6105de565b61056d565b610539565b610505565b6104a5565b61042a565b61031b565b610280565b6101b4565b60e01c90565b60405190565b5f80fd5b5f80fd5b63ffffffff60e01b1690565b61015581610140565b0361015c57565b5f80fd5b9050359061016d8261014c565b565b9060208282031261018857610185915f01610160565b90565b61013c565b151590565b61019b9061018d565b9052565b91906101b2905f60208501940190610192565b565b346101e4576101e06101cf6101ca36600461016f565b6108b4565b6101d7610132565b9182918261019f565b0390f35b610138565b5f9103126101f357565b61013c565b7f000000000000000000000000000000000000000000000000000000000000000090565b60018060a01b031690565b90565b61023e6102396102439261021c565b610227565b61021c565b90565b61024f9061022a565b90565b61025b90610246565b90565b61026790610252565b9052565b919061027e905f6020850194019061025e565b565b346102b0576102903660046101e9565b6102ac61029b6101f8565b6102a3610132565b9182918261026b565b0390f35b610138565b90565b6102c1816102b5565b036102c857565b5f80fd5b905035906102d9826102b8565b565b906020828203126102f4576102f1915f016102cc565b90565b61013c565b610302906102b5565b9052565b9190610319905f602085019401906102f9565b565b3461034b576103476103366103313660046102db565b610943565b61033e610132565b91829182610306565b0390f35b610138565b6103599061021c565b90565b61036581610350565b0361036c57565b5f80fd5b9050359061037d8261035c565b565b9060208282031261039857610395915f01610370565b90565b61013c565b6103a690610246565b90565b906103b39061039d565b5f5260205260405f2090565b1c90565b90565b6103d69060086103db93026103bf565b6103c3565b90565b906103e991546103c6565b90565b610402906103fd6001915f926103a9565b6103de565b90565b90565b61041190610405565b9052565b9190610428905f60208501940190610408565b565b3461045a5761045661044561044036600461037f565b6103ec565b61044d610132565b91829182610415565b0390f35b610138565b61046881610405565b0361046f57565b5f80fd5b905035906104808261045f565b565b9060208282031261049b57610498915f01610473565b90565b61013c565b5f0190565b346104d3576104bd6104b8366004610482565b610a36565b6104c5610132565b806104cf816104a0565b0390f35b610138565b919060408382031261050057806104f46104fd925f86016102cc565b93602001610370565b90565b61013c565b346105345761051e6105183660046104d8565b90610b4c565b610526610132565b80610530816104a0565b0390f35b610138565b346105685761055261054c3660046104d8565b90610b58565b61055a610132565b80610564816104a0565b0390f35b610138565b3461059e5761059a6105896105833660046104d8565b90610bdd565b610591610132565b9182918261019f565b0390f35b610138565b90565b5f1b90565b6105bf6105ba6105c4926105a3565b6105a6565b6102b5565b90565b6105d05f6105ab565b90565b6105db6105c7565b90565b3461060e576105ee3660046101e9565b61060a6105f96105d3565b610601610132565b91829182610306565b0390f35b610138565b60ff1690565b61062281610613565b0361062957565b5f80fd5b9050359061063a82610619565b565b91906040838203126106645780610658610661925f8601610370565b9360200161062d565b90565b61013c565b346106985761068261067c36600461063c565b90610eea565b61068a610132565b80610694816104a0565b0390f35b610138565b346106cb576106b56106b0366004610482565b610f02565b6106bd610132565b806106c7816104a0565b0390f35b610138565b7f000000000000000000000000000000000000000000000000000000000000000090565b6106fd90610246565b90565b610709906106f4565b9052565b9190610720905f60208501940190610700565b565b34610752576107323660046101e9565b61074e61073d6106d0565b610745610132565b9182918261070d565b0390f35b610138565b346107865761077061076a3660046104d8565b90611000565b610778610132565b80610782816104a0565b0390f35b610138565b7f97667070c54ef182b0f5858b034beac1b6f3089aa2d3188bb1e8929f4fa9b92990565b6107b761078b565b90565b346107ea576107ca3660046101e9565b6107e66107d56107af565b6107dd610132565b91829182610306565b0390f35b610138565b3461081f5761081b61080a61080536600461037f565b611010565b610812610132565b91829182610415565b0390f35b610138565b61083060035f906103de565b90565b34610863576108433660046101e9565b61085f61084e610824565b610856610132565b91829182610415565b0390f35b610138565b61087460025f906103de565b90565b346108a7576108873660046101e9565b6108a3610892610868565b61089a610132565b91829182610415565b0390f35b610138565b5f80fd5b5f90565b6108bc6108b0565b50806108d76108d1637965db0b60e01b610140565b91610140565b149081156108e4575b5090565b6108ee915061102f565b5f6108e0565b5f90565b610901906102b5565b90565b9061090e906108f8565b5f5260205260405f2090565b5f1c90565b90565b61092e6109339161091a565b61091f565b90565b6109409054610922565b90565b600161095b610961926109546108f4565b505f610904565b01610936565b90565b6109706109759161091a565b6103c3565b90565b6109829054610964565b90565b634e487b7160e01b5f52601160045260245ffd5b6109a86109ae91939293610405565b92610405565b82039182116109b957565b610985565b906109ca5f19916105a6565b9181191691161790565b6109e86109e36109ed92610405565b610227565b610405565b90565b90565b90610a08610a03610a0f926109d4565b6109f0565b82546109be565b9055565b916020610a34929493610a2d60408201965f830190610408565b0190610408565b565b610a4a610a45600133906103a9565b610978565b80610a5d610a5784610405565b91610405565b10610b0657610a70610a81918390610999565b610a7c600133906103a9565b6109f3565b610aad7f0000000000000000000000000000000000000000000000000000000000000000338391611077565b33610ac2610abd600133906103a9565b610978565b610aec7f92ccf450a286a957af52509bc1c9939d1a6a481783e142e41e2499f0bb66ebc69261039d565b92610b01610af8610132565b92839283610a13565b0390a2565b5f631e9acf1760e31b815280610b1e600482016104a0565b0390fd5b90610b3d91610b38610b3382610943565b6110be565b610b3f565b565b90610b4991611117565b50565b90610b5691610b22565b565b9080610b73610b6d610b686111c6565b610350565b91610350565b03610b8457610b81916111d3565b50565b5f63334bd91960e11b815280610b9c600482016104a0565b0390fd5b90610baa9061039d565b5f5260205260405f2090565b60ff1690565b610bc8610bcd9161091a565b610bb6565b90565b610bda9054610bbc565b90565b610c03915f610bf8610bfe93610bf16108b0565b5082610904565b01610ba0565b610bd0565b90565b90610c2091610c1b610c1661078b565b6110be565b610d7a565b565b634e487b7160e01b5f52602160045260245ffd5b60061115610c4057565b610c22565b90610c4f82610c36565b565b610c65610c60610c6a92610613565b610227565b610c45565b90565b601f801991011690565b634e487b7160e01b5f52604160045260245ffd5b90610c9590610c6d565b810190811067ffffffffffffffff821117610caf57604052565b610c77565b60e01b90565b90505190610cc78261045f565b565b90602082820312610ce257610cdf915f01610cba565b90565b61013c565b610cf090610c45565b90565b610cfc90610ce7565b9052565b9190610d13905f60208501940190610cf3565b565b610d1d610132565b3d5f823e3d90fd5b610d34610d3a91939293610405565b92610405565b8201809211610d4557565b610985565b610d5390610613565b9052565b916020610d78929493610d7160408201965f830190610d4a565b0190610408565b565b90610dd96020610d8983610c51565b610db27f00000000000000000000000000000000000000000000000000000000000000006106f4565b610dce63083132c4610dc2610132565b95869485938493610cb4565b835260048301610d00565b03915afa908115610ee5575f91610eb7575b5091610e01610dfc600183906103a9565b610978565b80610e14610e0e86610405565b91610405565b10610e9b57610e27610e38918590610999565b610e33600184906103a9565b6109f3565b610e55610e4e84610e496003610978565b610d25565b60036109f3565b9091610e817f100a59ca1573d26944a9adb33a5fb29d547ca242768a26a0dcbe02faac41cefa9261039d565b92610e96610e8d610132565b92839283610d57565b0390a2565b5f631e9acf1760e31b815280610eb3600482016104a0565b0390fd5b610ed8915060203d8111610ede575b610ed08183610c8b565b810190610cc9565b5f610deb565b503d610ec6565b610d15565b90610ef491610c06565b565b610eff90610246565b90565b610f387f000000000000000000000000000000000000000000000000000000000000000033610f3030610ef6565b908492611274565b610f6081610f5a610f4b600133906103a9565b91610f5583610978565b610d25565b906109f3565b610f7d610f7682610f716002610978565b610d25565b60026109f3565b33610f92610f8d600133906103a9565b610978565b610fbc7f73a19dd210f1a7f902193214c0ee91dd35ee5b4d920cba8d519eca65a7b488ca9261039d565b92610fd1610fc8610132565b92839283610a13565b0390a2565b90610ff191610fec610fe782610943565b6110be565b610ff3565b565b90610ffd916111d3565b50565b9061100a91610fd6565b565b5f90565b61102761102c9161101f61100c565b5060016103a9565b610978565b90565b6110376108b0565b5061105161104b6301ffc9a760e01b610140565b91610140565b1490565b61105e90610350565b9052565b9190611075905f60208501940190611055565b565b916110909161108a9184916001926112bf565b1561018d565b6110975750565b6110a36110ba91610252565b5f918291635274afe760e01b835260048301611062565b0390fd5b6110d0906110ca6111c6565b9061134c565b565b906110de60ff916105a6565b9181191691161790565b6110f19061018d565b90565b90565b9061110c611107611113926110e8565b6110f4565b82546110d2565b9055565b61111f6108b0565b5061113461112e828490610bdd565b1561018d565b5f146111bc5761115b60016111565f61114e818690610904565b018590610ba0565b6110f7565b906111646111c6565b906111a161119b6111957f2f8788117e7eff1d82e926ec794901d17c78024a50270940304540a733656f0d956108f8565b9261039d565b9261039d565b926111aa610132565b806111b4816104a0565b0390a4600190565b50505f90565b5f90565b6111ce6111c2565b503390565b6111db6108b0565b506111e7818390610bdd565b5f1461126e5761120d5f6112085f611200818690610904565b018590610ba0565b6110f7565b906112166111c6565b9061125361124d6112477ff6391f5c32d9c69d2a47ea670b442974b53935d1edc7fd64eb21e047a839171b956108f8565b9261039d565b9261039d565b9261125c610132565b80611266816104a0565b0390a4600190565b50505f90565b92906112919261128b928592919091600193611387565b1561018d565b6112985750565b6112a46112bb91610252565b5f918291635274afe760e01b835260048301611062565b0390fd5b90919392936112cc6108b0565b5063a9059cbb60e01b92604051935f525f1960601c1660045260245260205f60448180855af19360015f5114851615611307575b5050604052565b8492941516611320575f903b113d151616915f80611300565b833d5f823e3d90fd5b91602061134a92949361134360408201965f830190611055565b01906102f9565b565b9061136161135b838390610bdd565b1561018d565b611369575050565b6113835f92839263e2517d3f60e01b845260048401611329565b0390fd5b919493949290926113966108b0565b506323b872dd60e01b93604051945f525f1960601c166004525f1960601c1660245260445260205f60648180855af19360015f51148516156113de575b50506040525f606052565b84929415166113f7575f903b113d151616915f806113d3565b833d5f823e3d90fdfea264697066735822122084ce40ae9be0910489ba5f7735e93d4ad0bb4a058a3f14cca46535436e23a5b464736f6c63430008210033","linkReferences":{}},"methodIdentifiers":{"DEFAULT_ADMIN_ROLE()":"a217fddf","OPERATOR_ROLE()":"f5b541a6","balances(address)":"27e235e3","deductFee(address,uint8)":"abc5d632","deposit(uint256)":"b6b55f25","feeManager()":"d0fb0203","getBalance(address)":"f8b2cb4f","getRoleAdmin(bytes32)":"248a9ca3","grantRole(bytes32,address)":"2f2ff15d","hasRole(bytes32,address)":"91d14854","renounceRole(bytes32,address)":"36568abe","revokeRole(bytes32,address)":"d547741f","supportsInterface(bytes4)":"01ffc9a7","totalDeposited()":"ff50abdc","totalSpent()":"fb346eab","usdcToken()":"11eac855","withdraw(uint256)":"2e1a7d4d"},"id":47}