{"abi":[{"type":"constructor","inputs":[{"name":"admin","type":"address","internalType":"address"}],"stateMutability":"nonpayable"},{"type":"function","name":"addPriceFeed","inputs":[{"name":"symbol","type":"string","internalType":"string"},{"name":"feedAddress","type":"address","internalType":"address"}],"outputs":[],"stateMutability":"nonpayable"},{"type":"function","name":"getFeedAddress","inputs":[{"name":"symbol","type":"string","internalType":"string"}],"outputs":[{"name":"","type":"address","internalType":"address"}],"stateMutability":"view"},{"type":"function","name":"getLatestPrice","inputs":[{"name":"symbol","type":"string","internalType":"string"}],"outputs":[{"name":"price","type":"uint256","internalType":"uint256"},{"name":"decimals","type":"uint8","internalType":"uint8"},{"name":"updatedAt","type":"uint256","internalType":"uint256"}],"stateMutability":"view"},{"type":"function","name":"getPriceWithMaxAge","inputs":[{"name":"symbol","type":"string","internalType":"string"},{"name":"maxAge","type":"uint256","internalType":"uint256"}],"outputs":[{"name":"price","type":"uint256","internalType":"uint256"},{"name":"decimals","type":"uint8","internalType":"uint8"},{"name":"updatedAt","type":"uint256","internalType":"uint256"}],"stateMutability":"view"},{"type":"function","name":"getSupportedSymbols","inputs":[],"outputs":[{"name":"","type":"string[]","internalType":"string[]"}],"stateMutability":"view"},{"type":"function","name":"isSupported","inputs":[{"name":"symbol","type":"string","internalType":"string"}],"outputs":[{"name":"","type":"bool","internalType":"bool"}],"stateMutability":"view"},{"type":"function","name":"owner","inputs":[],"outputs":[{"name":"","type":"address","internalType":"address"}],"stateMutability":"view"},{"type":"function","name":"priceFeeds","inputs":[{"name":"","type":"string","internalType":"string"}],"outputs":[{"name":"","type":"address","internalType":"contract AggregatorV3Interface"}],"stateMutability":"view"},{"type":"function","name":"renounceOwnership","inputs":[],"outputs":[],"stateMutability":"nonpayable"},{"type":"function","name":"setStalenessThreshold","inputs":[{"name":"newThreshold","type":"uint256","internalType":"uint256"}],"outputs":[],"stateMutability":"nonpayable"},{"type":"function","name":"stalenessThreshold","inputs":[],"outputs":[{"name":"","type":"uint256","internalType":"uint256"}],"stateMutability":"view"},{"type":"function","name":"supportedSymbols","inputs":[{"name":"","type":"uint256","internalType":"uint256"}],"outputs":[{"name":"","type":"string","internalType":"string"}],"stateMutability":"view"},{"type":"function","name":"transferOwnership","inputs":[{"name":"newOwner","type":"address","internalType":"address"}],"outputs":[],"stateMutability":"nonpayable"},{"type":"event","name":"OwnershipTransferred","inputs":[{"name":"previousOwner","type":"address","indexed":true,"internalType":"address"},{"name":"newOwner","type":"address","indexed":true,"internalType":"address"}],"anonymous":false},{"type":"event","name":"PriceFeedAdded","inputs":[{"name":"symbol","type":"string","indexed":true,"internalType":"string"},{"name":"feedAddress","type":"address","indexed":false,"internalType":"address"}],"anonymous":false},{"type":"event","name":"PriceFeedUpdated","inputs":[{"name":"symbol","type":"string","indexed":true,"internalType":"string"},{"name":"oldFeed","type":"address","indexed":false,"internalType":"address"},{"name":"newFeed","type":"address","indexed":false,"internalType":"address"}],"anonymous":false},{"type":"error","name":"OwnableInvalidOwner","inputs":[{"name":"owner","type":"address","internalType":"address"}]},{"type":"error","name":"OwnableUnauthorizedAccount","inputs":[{"name":"account","type":"address","internalType":"address"}]}],"bytecode":{"object":"0x60806040523461002f576100196100146100f4565b610194565b610021610034565b611bd5610b128239611bd590f35b61003a565b60405190565b5f80fd5b601f801991011690565b634e487b7160e01b5f52604160045260245ffd5b906100669061003e565b810190811060018060401b0382111761007e57604052565b610048565b9061009661008f610034565b928361005c565b565b5f80fd5b60018060a01b031690565b6100b09061009c565b90565b6100bc816100a7565b036100c357565b5f80fd5b905051906100d4826100b3565b565b906020828203126100ef576100ec915f016100c7565b90565b610098565b6101126126e78038038061010781610083565b9283398101906100d6565b90565b90565b90565b90565b61013261012d61013792610115565b61011b565b610118565b90565b5f1b90565b9061014b5f199161013a565b9181191691161790565b61016961016461016e92610118565b61011b565b610118565b90565b90565b9061018961018461019092610155565b610171565b825461013f565b9055565b61019d90610209565b6101b26101ab610e1061011e565b6003610174565b6101ba610374565b565b90565b6101d36101ce6101d8926101bc565b61011b565b61009c565b90565b6101e4906101bf565b90565b6101f0906100a7565b9052565b9190610207905f602085019401906101e7565b565b8061022461021e6102195f6101db565b6100a7565b916100a7565b14610234576102329061048d565b565b6102576102405f6101db565b5f918291631e4fbdf760e01b8352600483016101f4565b0390fd5b60018060401b0381116102775761027360209161003e565b0190565b610048565b9061028e6102898361025b565b610083565b918252565b5f7f4554482d55534400000000000000000000000000000000000000000000000000910152565b6102c4600761027c565b906102d160208301610293565b565b6102db6102ba565b90565b5f7f4254432d55534400000000000000000000000000000000000000000000000000910152565b61030f600761027c565b9061031c602083016102de565b565b610326610305565b90565b5f7f4c494e4b2d555344000000000000000000000000000000000000000000000000910152565b61035a600861027c565b9061036760208301610329565b565b610371610350565b90565b61039973d30e2101a97dcbaebcbc04f14c3f624e67a351656103946102d3565b6109ae565b6103be7356a43eb56da12c0dc1d972acb089c06a5def8e696103b961031e565b6109ae565b6103e3730fb99723aee6f420bead13e6bbb79b7e6f0342986103de610369565b6109ae565b565b5f1c90565b60018060a01b031690565b610401610406916103e5565b6103ea565b90565b61041390546103f5565b90565b9061042760018060a01b039161013a565b9181191691161790565b61044561044061044a9261009c565b61011b565b61009c565b90565b61045690610431565b90565b6104629061044d565b90565b90565b9061047d61047861048492610459565b610465565b8254610416565b9055565b5f0190565b6104965f610409565b6104a0825f610468565b906104d46104ce7f8be0079c531659141344cd1fd0a4f28419497f9722a3daafe3b4186f6b6457e093610459565b91610459565b916104dd610034565b806104e781610488565b0390a3565b60209181520190565b5f7f496e76616c696420666565642061646472657373000000000000000000000000910152565b61052960146020926104ec565b610532816104f5565b0190565b61054b9060208101905f81830391015261051c565b90565b1561055557565b61055d610034565b62461bcd60e51b81528061057360048201610536565b0390fd5b5190565b905090565b90825f9392825e0152565b6105b06105a79260209261059e81610577565b9485809361057b565b93849101610580565b0190565b90565b6105c36105c891610118565b6105b4565b9052565b6105dc6105e3916020949361058b565b80926105b7565b0190565b6105fb6105f2610034565b928392836105cc565b03902090565b61060a916105e7565b90565b60018060a01b031690565b610624610629916103e5565b61060d565b90565b6106369054610618565b90565b6106429061044d565b90565b90565b5f5260205f2090565b634e487b7160e01b5f52603260045260245ffd5b5490565b61067281610665565b82101561068c57610684600191610648565b910201905f90565b610651565b634e487b7160e01b5f525f60045260245ffd5b634e487b7160e01b5f52602260045260245ffd5b90600160028304921680156106d8575b60208310146106d357565b6106a4565b91607f16916106c8565b5f5260205f2090565b601f602091010490565b1b90565b9190600861071491029161070e5f19846106f5565b926106f5565b9181191691161790565b919061073461072f61073c93610155565b610171565b9083546106f9565b9055565b5f90565b61075691610750610740565b9161071e565b565b5f5b82811061076657505050565b806107755f6001938501610744565b0161075a565b9190601f811161078b575b505050565b818111610798575b610786565b6107ad6107a76107cb946106e2565b916106eb565b9160206107b9826106eb565b91106107d3575b809101910390610758565b5f8080610793565b505f6107c0565b1c90565b906107ee905f19906008026107da565b191690565b816107fd916107de565b906002021790565b9061080f81610577565b9060018060401b0382116108cd576108318261082b85546106b8565b8561077b565b602090601f831160011461086557918091610854935f92610859575b50506107f3565b90555b565b90915001515f8061084d565b601f19831691610874856106e2565b925f5b8181106108b55750916002939185600196941061089b575b50505002019055610857565b6108ab910151601f8416906107de565b90555f808061088f565b91936020600181928787015181550195019201610877565b610048565b91906108e3576108e191610805565b565b610691565b9081549168010000000000000000831015610918578261091091600161091695018155610669565b906108d2565b565b610048565b61092690610431565b90565b6109329061091d565b90565b61093e9061091d565b90565b90565b9061095961095461096092610935565b610941565b8254610416565b9055565b61096d9161058b565b90565b6109859061097c610034565b91829182610964565b03902090565b9160206109ac9294936109a560408201965f8301906101e7565b01906101e7565b565b6109d3826109cc6109c66109c15f6101db565b6100a7565b916100a7565b141561054e565b6109ef6109ea6109e560018490610601565b61062c565b610639565b610a09610a036109fe5f6101db565b6100a7565b916100a7565b14610af8575b610a2b610a26610a2160018490610601565b61062c565b610639565b610a48610a3784610929565b610a4360018590610601565b610944565b80610a63610a5d610a585f6101db565b6100a7565b916100a7565b145f14610ab05750610aaa610a987f1899bfed19bb5ad63c2bc7846fb4c1d443587802ecd6529054c82d3fd962cc1b92610970565b92610aa1610034565b918291826101f4565b0390a25b565b91610adb7f59e154b28fcd8ce788117688c97107a72f4c15ab2c621d3fed6e1346e29cc33092610970565b92610af0610ae7610034565b9283928361098b565b0390a2610aae565b610b0c610b056002610645565b82906108e8565b610a0f56fe60806040526004361015610013575b610b07565b61001d5f356100ec565b80630dc16e1f146100e7578063715018a6146100e25780638da5cb5b146100dd57806391e270d2146100d8578063932d68a6146100d3578063a84f6ebb146100ce578063cb8ae86c146100c9578063ce1c0e4d146100c4578063e61dfca4146100bf578063f2fde38b146100ba578063f3a014a2146100b5578063f66a1b71146100b05763fb01e7f20361000e57610ad4565b610a9c565b610a67565b610a0d565b6109b6565b6108f7565b6107ec565b61068d565b6105fa565b610375565b61030b565b6102b6565b610273565b60e01c90565b60405190565b5f80fd5b5f80fd5b5f80fd5b5f80fd5b5f80fd5b601f801991011690565b634e487b7160e01b5f52604160045260245ffd5b906101349061010c565b810190811067ffffffffffffffff82111761014e57604052565b610116565b9061016661015f6100f2565b928361012a565b565b67ffffffffffffffff81116101865761018260209161010c565b0190565b610116565b90825f939282370152565b909291926101ab6101a682610168565b610153565b938185526020850190828401116101c7576101c59261018b565b565b610108565b9080601f830112156101ea578160206101e793359101610196565b90565b610104565b60018060a01b031690565b610203906101ef565b90565b61020f816101fa565b0361021657565b5f80fd5b9050359061022782610206565b565b9190604083820312610269575f8301359067ffffffffffffffff821161026457610258816102619386016101cc565b9360200161021a565b90565b610100565b6100fc565b5f0190565b346102a25761028c610286366004610229565b90610b2b565b6102946100f2565b8061029e8161026e565b0390f35b6100f8565b5f9103126102b157565b6100fc565b346102e4576102c63660046102a7565b6102ce610b87565b6102d66100f2565b806102e08161026e565b0390f35b6100f8565b6102f2906101fa565b9052565b9190610309905f602085019401906102e9565b565b3461033b5761031b3660046102a7565b610337610326610bc6565b61032e6100f2565b918291826102f6565b0390f35b6100f8565b90602082820312610370575f82013567ffffffffffffffff811161036b5761036892016101cc565b90565b610100565b6100fc565b346103a5576103a161039061038b366004610340565b610bfc565b6103986100f2565b918291826102f6565b0390f35b6100f8565b90565b6103b6816103aa565b036103bd57565b5f80fd5b905035906103ce826103ad565b565b906020828203126103e9576103e6915f016103c1565b90565b6100fc565b634e487b7160e01b5f52603260045260245ffd5b5490565b5f5260205f2090565b61041881610402565b8210156104325761042a600191610406565b910201905f90565b6103ee565b634e487b7160e01b5f525f60045260245ffd5b634e487b7160e01b5f52602260045260245ffd5b906001600283049216801561047e575b602083101461047957565b61044a565b91607f169161046e565b60209181520190565b5f5260205f2090565b905f92918054906104b46104ad8361045e565b8094610488565b916001811690815f1461050b57506001146104cf575b505050565b6104dc9192939450610491565b915f925b8184106104f357505001905f80806104ca565b600181602092959395548486015201910192906104e0565b92949550505060ff19168252151560200201905f80806104ca565b906105309161049a565b90565b9061055361054c926105436100f2565b93848092610526565b038361012a565b565b905f106105685761056590610533565b90565b610437565b600261057881610402565b821015610595576105929161058c9161040f565b90610555565b90565b5f80fd5b5190565b60209181520190565b90825f9392825e0152565b6105d06105d96020936105de936105c781610599565b9384809361059d565b958691016105a6565b61010c565b0190565b6105f79160208201915f8184039101526105b1565b90565b3461062a576106266106156106103660046103d0565b61056d565b61061d6100f2565b918291826105e2565b0390f35b6100f8565b1c90565b90565b61064690600861064b930261062f565b610633565b90565b906106599154610636565b90565b61066860035f9061064e565b90565b610674906103aa565b9052565b919061068b905f6020850194019061066b565b565b346106bd5761069d3660046102a7565b6106b96106a861065c565b6106b06100f2565b91829182610678565b0390f35b6100f8565b905090565b6106ec6106e3926020926106da81610599565b948580936106c2565b938491016105a6565b0190565b90565b6106ff610704916103aa565b6106f0565b9052565b61071861071f91602094936106c7565b80926106f3565b0190565b61073761072e6100f2565b92839283610708565b03902090565b61074691610723565b90565b60018060a01b031690565b610764906008610769930261062f565b610749565b90565b906107779154610754565b90565b6107909061078b6001915f9261073d565b61076c565b90565b90565b6107aa6107a56107af926101ef565b610793565b6101ef565b90565b6107bb90610796565b90565b6107c7906107b2565b90565b6107d3906107be565b9052565b91906107ea905f602085019401906107ca565b565b3461081c57610818610807610802366004610340565b61077a565b61080f6100f2565b918291826107d7565b0390f35b6100f8565b5190565b60209181520190565b60200190565b61085361085c6020936108619361084a81610599565b93848093610488565b958691016105a6565b61010c565b0190565b9061086f91610834565b90565b60200190565b9061088c61088583610821565b8092610825565b908161089d6020830284019461082e565b925f915b8383106108b057505050505090565b909192939460206108d26108cc83856001950387528951610865565b97610872565b93019301919392906108a1565b6108f49160208201915f818403910152610878565b90565b34610927576109073660046102a7565b610923610912610cc2565b61091a6100f2565b918291826108df565b0390f35b6100f8565b919060408382031261096c575f8301359067ffffffffffffffff82116109675761095b816109649386016101cc565b936020016103c1565b90565b610100565b6100fc565b60ff1690565b61098090610971565b9052565b6040906109ad6109b494969593966109a360608401985f85019061066b565b6020830190610977565b019061066b565b565b346109ea576109e66109d26109cc36600461092c565b9061106d565b6109dd9391936100f2565b93849384610984565b0390f35b6100f8565b90602082820312610a0857610a05915f0161021a565b90565b6100fc565b34610a3b57610a25610a203660046109ef565b6112cd565b610a2d6100f2565b80610a378161026e565b0390f35b6100f8565b151590565b610a4e90610a40565b9052565b9190610a65905f60208501940190610a45565b565b34610a9757610a93610a82610a7d366004610340565b6112dc565b610a8a6100f2565b91829182610a52565b0390f35b6100f8565b34610acf57610acb610ab7610ab2366004610340565b611340565b610ac29391936100f2565b93849384610984565b0390f35b6100f8565b34610b0257610aec610ae73660046103d0565b6115b6565b610af46100f2565b80610afe8161026e565b0390f35b6100f8565b5f80fd5b90610b1d91610b186115c1565b610b1f565b565b90610b29916119a1565b565b90610b3591610b0b565b565b610b3f6115c1565b610b47610b74565b565b90565b610b60610b5b610b6592610b49565b610793565b6101ef565b90565b610b7190610b4c565b90565b610b85610b805f610b68565b611b33565b565b610b8f610b37565b565b5f90565b5f1c90565b60018060a01b031690565b610bb1610bb691610b95565b610b9a565b90565b610bc39054610ba5565b90565b610bce610b91565b50610bd85f610bb9565b90565b610be7610bec91610b95565b610749565b90565b610bf99054610bdb565b90565b610c1b610c16610c2092610c0e610b91565b50600161073d565b610bef565b6107be565b90565b606090565b67ffffffffffffffff8111610c405760208091020190565b610116565b90610c57610c5283610c28565b610153565b918252565b610c6590610533565b90565b90610c7282610402565b610c7b81610c45565b92610c896020850191610406565b5f915b838310610c995750505050565b600160208192610ca885610c5c565b815201920192019190610c8c565b610cbf90610c68565b90565b610cca610c23565b50610cd56002610cb6565b90565b5f90565b5f90565b5f7f50726963652066656564206e6f7420666f756e64000000000000000000000000910152565b610d14601460209261059d565b610d1d81610ce0565b0190565b610d369060208101905f818303910152610d07565b90565b15610d4057565b610d486100f2565b62461bcd60e51b815280610d5e60048201610d21565b0390fd5b60e01b90565b69ffffffffffffffffffff1690565b610d8081610d68565b03610d8757565b5f80fd5b90505190610d9882610d77565b565b90565b610da681610d9a565b03610dad57565b5f80fd5b90505190610dbe82610d9d565b565b90505190610dcd826103ad565b565b919060a083820312610e2057610de7815f8501610d8b565b92610df58260208301610db1565b92610e1d610e068460408501610dc0565b93610e148160608601610dc0565b93608001610d8b565b90565b6100fc565b610e2d6100f2565b3d5f823e3d90fd5b610e49610e44610e4e92610b49565b610793565b610d9a565b90565b5f7f496e76616c696420707269636500000000000000000000000000000000000000910152565b610e85600d60209261059d565b610e8e81610e51565b0190565b610ea79060208101905f818303910152610e78565b90565b15610eb157565b610eb96100f2565b62461bcd60e51b815280610ecf60048201610e92565b0390fd5b5f7f5374616c65207072696365000000000000000000000000000000000000000000910152565b610f07600b60209261059d565b610f1081610ed3565b0190565b610f299060208101905f818303910152610efa565b90565b15610f3357565b610f3b6100f2565b62461bcd60e51b815280610f5160048201610f14565b0390fd5b634e487b7160e01b5f52601160045260245ffd5b610f78610f7e919392936103aa565b926103aa565b8203918211610f8957565b610f55565b5f7f507269636520746f6f206f6c6400000000000000000000000000000000000000910152565b610fc2600d60209261059d565b610fcb81610f8e565b0190565b610fe49060208101905f818303910152610fb5565b90565b15610fee57565b610ff66100f2565b62461bcd60e51b81528061100c60048201610fcf565b0390fd5b61102461101f61102992610d9a565b610793565b6103aa565b90565b61103581610971565b0361103c57565b5f80fd5b9050519061104d8261102c565b565b9060208282031261106857611065915f01611040565b90565b6100fc565b9161109f61109a6110ee94611080610cd8565b50611089610cdc565b50611092610cd8565b50600161073d565b610bef565b916110cd6110ac846107be565b6110c66110c06110bb5f610b68565b6101fa565b916101fa565b1415610d39565b60a06110d8846107be565b63feaf968c906110e66100f2565b968792610d62565b825281806110fe6004820161026e565b03915afa908115611263575f808080809891509492919261120a575b506111ad9361118c6020946111686111979561116161115b6111919792969d6111558861114f6111495f610e35565b91610d9a565b13610eaa565b92610d68565b91610d68565b1015610f2c565b61118561117f611179428d90610f69565b926103aa565b916103aa565b1115610fe7565b611010565b946107be565b63313ce567906111a56100f2565b938492610d62565b825281806111bd6004820161026e565b03915afa908115611205575f916111d7575b509291929190565b6111f8915060203d81116111fe575b6111f0818361012a565b81019061104f565b5f6111cf565b503d6111e6565b610e25565b61116197506111ad94506111979250611191915061118c60209461116861124a61115b9460a03d811161125c575b611242818361012a565b810190610dcf565b9e509a5050965094505094505061111a565b503d611238565b610e25565b611279906112746115c1565b61127b565b565b8061129661129061128b5f610b68565b6101fa565b916101fa565b146112a6576112a490611b33565b565b6112c96112b25f610b68565b5f918291631e4fbdf760e01b8352600483016102f6565b0390fd5b6112d690611268565b565b5f90565b6112fb6112f6611300926112ee6112d8565b50600161073d565b610bef565b6107be565b61131a61131461130f5f610b68565b6101fa565b916101fa565b141590565b61132b61133091610b95565b610633565b90565b61133d905461131f565b90565b9061137261136d6113c193611353610cd8565b5061135c610cdc565b50611365610cd8565b50600161073d565b610bef565b906113a061137f836107be565b61139961139361138e5f610b68565b6101fa565b916101fa565b1415610d39565b60a06113ab836107be565b63feaf968c906113b96100f2565b958692610d62565b825281806113d16004820161026e565b03915afa8015611537575f80808080979150939291926114e4575b5061146b6114879361143660209461142f6114296114719692949b6114238661141d6114175f610e35565b91610d9a565b13610eaa565b92610d68565b91610d68565b1015610f2c565b611466611444428a90610f69565b61145f6114596114546003611333565b6103aa565b916103aa565b1115610fe7565b611010565b946107be565b63313ce5679061147f6100f2565b938492610d62565b825281806114976004820161026e565b03915afa9081156114df575f916114b1575b509291929190565b6114d2915060203d81116114d8575b6114ca818361012a565b81019061104f565b5f6114a9565b503d6114c0565b610e25565b61142f9650611487935060209250611471915061142961143661152061146b9360a03d8111611530575b611518818361012a565b810190610dcf565b9c509850509550935050506113ec565b503d61150e565b610e25565b61154d906115486115c1565b6115a9565b565b5f1b90565b906115605f199161154f565b9181191691161790565b61157e611579611583926103aa565b610793565b6103aa565b90565b90565b9061159e6115996115a59261156a565b611586565b8254611554565b9055565b6115b4906003611589565b565b6115bf9061153c565b565b6115c9610bc6565b6115e26115dc6115d7611b92565b6101fa565b916101fa565b036115e957565b61160b6115f4611b92565b5f91829163118cdaa760e01b8352600483016102f6565b0390fd5b5f7f496e76616c696420666565642061646472657373000000000000000000000000910152565b611643601460209261059d565b61164c8161160f565b0190565b6116659060208101905f818303910152611636565b90565b1561166f57565b6116776100f2565b62461bcd60e51b81528061168d60048201611650565b0390fd5b90565b5f5260205f2090565b5490565b6116aa8161169d565b8210156116c4576116bc600191611694565b910201905f90565b6103ee565b601f602091010490565b1b90565b919060086116f29102916116ec5f19846116d3565b926116d3565b9181191691161790565b919061171261170d61171a9361156a565b611586565b9083546116d7565b9055565b6117309161172a610cd8565b916116fc565b565b5f5b82811061174057505050565b8061174f5f600193850161171e565b01611734565b9190601f8111611765575b505050565b818111611772575b611760565b6117876117816117a594610491565b916116c9565b916020611793826116c9565b91106117ad575b809101910390611732565b5f808061176d565b505f61179a565b906117c4905f199060080261062f565b191690565b816117d3916117b4565b906002021790565b906117e581610599565b9067ffffffffffffffff82116118a55761180982611803855461045e565b85611755565b602090601f831160011461183d5791809161182c935f92611831575b50506117c9565b90555b565b90915001515f80611825565b601f1983169161184c85610491565b925f5b81811061188d57509160029391856001969410611873575b5050500201905561182f565b611883910151601f8416906117b4565b90555f8080611867565b9193602060018192878701518155019501920161184f565b610116565b91906118bb576118b9916117db565b565b610437565b90815491680100000000000000008310156118f057826118e89160016118ee950181556116a1565b906118aa565b565b610116565b6118fe90610796565b90565b61190a906118f5565b90565b9061191e60018060a01b039161154f565b9181191691161790565b611931906118f5565b90565b90565b9061194c61194761195392611928565b611934565b825461190d565b9055565b611960916106c7565b90565b6119789061196f6100f2565b91829182611957565b03902090565b91602061199f92949361199860408201965f8301906102e9565b01906102e9565b565b6119c6826119bf6119b96119b45f610b68565b6101fa565b916101fa565b1415611668565b6119e26119dd6119d86001849061073d565b610bef565b6107be565b6119fc6119f66119f15f610b68565b6101fa565b916101fa565b14611aeb575b611a1e611a19611a146001849061073d565b610bef565b6107be565b611a3b611a2a84611901565b611a366001859061073d565b611937565b80611a56611a50611a4b5f610b68565b6101fa565b916101fa565b145f14611aa35750611a9d611a8b7f1899bfed19bb5ad63c2bc7846fb4c1d443587802ecd6529054c82d3fd962cc1b92611963565b92611a946100f2565b918291826102f6565b0390a25b565b91611ace7f59e154b28fcd8ce788117688c97107a72f4c15ab2c621d3fed6e1346e29cc33092611963565b92611ae3611ada6100f2565b9283928361197e565b0390a2611aa1565b611aff611af86002611691565b82906118c0565b611a02565b611b0d906107b2565b90565b90565b90611b28611b23611b2f92611b04565b611b10565b825461190d565b9055565b611b3c5f610bb9565b611b46825f611b13565b90611b7a611b747f8be0079c531659141344cd1fd0a4f28419497f9722a3daafe3b4186f6b6457e093611b04565b91611b04565b91611b836100f2565b80611b8d8161026e565b0390a3565b611b9a610b91565b50339056fea264697066735822122024185d3eb3cf64af768f4a71c0e3908219695adee78e5c607a04d22b57c4578364736f6c63430008210033","linkReferences":{}},"methodIdentifiers":{"addPriceFeed(string,address)":"0dc16e1f","getFeedAddress(string)":"91e270d2","getLatestPrice(string)":"f66a1b71","getPriceWithMaxAge(string,uint256)":"e61dfca4","getSupportedSymbols()":"ce1c0e4d","isSupported(string)":"f3a014a2","owner()":"8da5cb5b","priceFeeds(string)":"cb8ae86c","renounceOwnership()":"715018a6","setStalenessThreshold(uint256)":"fb01e7f2","stalenessThreshold()":"a84f6ebb","supportedSymbols(uint256)":"932d68a6","transferOwnership(address)":"f2fde38b"},"id":52}