{"abi":[{"type":"constructor","inputs":[{"name":"_usdcToken","type":"address","internalType":"address"},{"name":"_dripAmount","type":"uint256","internalType":"uint256"},{"name":"_cooldownPeriod","type":"uint256","internalType":"uint256"},{"name":"admin","type":"address","internalType":"address"}],"stateMutability":"nonpayable"},{"type":"function","name":"canDrip","inputs":[{"name":"user","type":"address","internalType":"address"}],"outputs":[{"name":"","type":"bool","internalType":"bool"}],"stateMutability":"view"},{"type":"function","name":"cooldownPeriod","inputs":[],"outputs":[{"name":"","type":"uint256","internalType":"uint256"}],"stateMutability":"view"},{"type":"function","name":"drip","inputs":[],"outputs":[],"stateMutability":"nonpayable"},{"type":"function","name":"dripAmount","inputs":[],"outputs":[{"name":"","type":"uint256","internalType":"uint256"}],"stateMutability":"view"},{"type":"function","name":"getFaucetBalance","inputs":[],"outputs":[{"name":"","type":"uint256","internalType":"uint256"}],"stateMutability":"view"},{"type":"function","name":"lastDripTime","inputs":[{"name":"","type":"address","internalType":"address"}],"outputs":[{"name":"","type":"uint256","internalType":"uint256"}],"stateMutability":"view"},{"type":"function","name":"owner","inputs":[],"outputs":[{"name":"","type":"address","internalType":"address"}],"stateMutability":"view"},{"type":"function","name":"renounceOwnership","inputs":[],"outputs":[],"stateMutability":"nonpayable"},{"type":"function","name":"setCooldownPeriod","inputs":[{"name":"newPeriod","type":"uint256","internalType":"uint256"}],"outputs":[],"stateMutability":"nonpayable"},{"type":"function","name":"setDripAmount","inputs":[{"name":"newAmount","type":"uint256","internalType":"uint256"}],"outputs":[],"stateMutability":"nonpayable"},{"type":"function","name":"timeUntilNextDrip","inputs":[{"name":"user","type":"address","internalType":"address"}],"outputs":[{"name":"","type":"uint256","internalType":"uint256"}],"stateMutability":"view"},{"type":"function","name":"totalDistributed","inputs":[],"outputs":[{"name":"","type":"uint256","internalType":"uint256"}],"stateMutability":"view"},{"type":"function","name":"totalDripped","inputs":[{"name":"","type":"address","internalType":"address"}],"outputs":[{"name":"","type":"uint256","internalType":"uint256"}],"stateMutability":"view"},{"type":"function","name":"transferOwnership","inputs":[{"name":"newOwner","type":"address","internalType":"address"}],"outputs":[],"stateMutability":"nonpayable"},{"type":"function","name":"usdcToken","inputs":[],"outputs":[{"name":"","type":"address","internalType":"contract IERC20"}],"stateMutability":"view"},{"type":"function","name":"withdraw","inputs":[{"name":"amount","type":"uint256","internalType":"uint256"}],"outputs":[],"stateMutability":"nonpayable"},{"type":"event","name":"CooldownPeriodUpdated","inputs":[{"name":"oldPeriod","type":"uint256","indexed":false,"internalType":"uint256"},{"name":"newPeriod","type":"uint256","indexed":false,"internalType":"uint256"}],"anonymous":false},{"type":"event","name":"DripAmountUpdated","inputs":[{"name":"oldAmount","type":"uint256","indexed":false,"internalType":"uint256"},{"name":"newAmount","type":"uint256","indexed":false,"internalType":"uint256"}],"anonymous":false},{"type":"event","name":"Dripped","inputs":[{"name":"user","type":"address","indexed":true,"internalType":"address"},{"name":"amount","type":"uint256","indexed":false,"internalType":"uint256"},{"name":"timestamp","type":"uint256","indexed":false,"internalType":"uint256"}],"anonymous":false},{"type":"event","name":"OwnershipTransferred","inputs":[{"name":"previousOwner","type":"address","indexed":true,"internalType":"address"},{"name":"newOwner","type":"address","indexed":true,"internalType":"address"}],"anonymous":false},{"type":"error","name":"InsufficientBalance","inputs":[]},{"type":"error","name":"OwnableInvalidOwner","inputs":[{"name":"owner","type":"address","internalType":"address"}]},{"type":"error","name":"OwnableUnauthorizedAccount","inputs":[{"name":"account","type":"address","internalType":"address"}]},{"type":"error","name":"RateLimitExceeded","inputs":[]},{"type":"error","name":"SafeERC20FailedOperation","inputs":[{"name":"token","type":"address","internalType":"address"}]}],"bytecode":{"object":"0x60a0604052346100585761001d61001461016b565b92919091610220565b61002561005d565b6110876103d782396080518181816101d70152818161080701528181610b7101528181610c6b0152610d99015261108790f35b610063565b60405190565b5f80fd5b601f801991011690565b634e487b7160e01b5f52604160045260245ffd5b9061008f90610067565b810190811060018060401b038211176100a757604052565b610071565b906100bf6100b861005d565b9283610085565b565b5f80fd5b60018060a01b031690565b6100d9906100c5565b90565b6100e5816100d0565b036100ec57565b5f80fd5b905051906100fd826100dc565b565b90565b61010b816100ff565b0361011257565b5f80fd5b9050519061012382610102565b565b6080818303126101665761013b825f83016100f0565b9261016361014c8460208501610116565b9361015a8160408601610116565b936060016100f0565b90565b6100c1565b61018961145e8038038061017e816100ac565b928339810190610125565b90919293565b90565b6101a66101a16101ab926100c5565b61018f565b6100c5565b90565b6101b790610192565b90565b6101c3906101ae565b90565b5f1b90565b906101d75f19916101c6565b9181191691161790565b6101f56101f06101fa926100ff565b61018f565b6100ff565b90565b90565b9061021561021061021c926101e1565b6101fd565b82546101cb565b9055565b906102396102439261023461024a96610299565b6101ba565b6080526001610200565b6002610200565b565b90565b61026361025e6102689261024c565b61018f565b6100c5565b90565b6102749061024f565b90565b610280906100d0565b9052565b9190610297905f60208501940190610277565b565b806102b46102ae6102a95f61026b565b6100d0565b916100d0565b146102c4576102c290610377565b565b6102e76102d05f61026b565b5f918291631e4fbdf760e01b835260048301610284565b0390fd5b5f1c90565b60018060a01b031690565b61030761030c916102eb565b6102f0565b90565b61031990546102fb565b90565b9061032d60018060a01b03916101c6565b9181191691161790565b61034090610192565b90565b61034c90610337565b90565b90565b9061036761036261036e92610343565b61034f565b825461031c565b9055565b5f0190565b6103805f61030f565b61038a825f610352565b906103be6103b87f8be0079c531659141344cd1fd0a4f28419497f9722a3daafe3b4186f6b6457e093610343565b91610343565b916103c761005d565b806103d181610372565b0390a356fe60806040526004361015610013575b6106ba565b61001d5f3561011c565b806304646a491461011757806311eac855146101125780631ebb044b1461010d5780632e1a7d4d1461010857806335a1529b14610103578063543f8c58146100fe578063715018a6146100f95780637ed99b83146100f457806380ea3de1146100ef5780638b8a60bd146100ea5780638da5cb5b146100e55780639f678cca146100e05780639fb74958146100db578063efca2eed146100d6578063f1f959a6146100d15763f2fde38b0361000e57610687565b610652565b61061d565b6105d9565b61058d565b610558565b610501565b610493565b61045e565b610404565b6103d1565b61039c565b61035a565b6102df565b61025d565b6101a0565b60e01c90565b60405190565b5f80fd5b5f80fd5b5f91031261013a57565b61012c565b1c90565b90565b61015690600861015b930261013f565b610143565b90565b906101699154610146565b90565b61017860025f9061015e565b90565b90565b6101879061017b565b9052565b919061019e905f6020850194019061017e565b565b346101d0576101b0366004610130565b6101cc6101bb61016c565b6101c3610122565b9182918261018b565b0390f35b610128565b7f000000000000000000000000000000000000000000000000000000000000000090565b60018060a01b031690565b90565b61021b610216610220926101f9565b610204565b6101f9565b90565b61022c90610207565b90565b61023890610223565b90565b6102449061022f565b9052565b919061025b905f6020850194019061023b565b565b3461028d5761026d366004610130565b6102896102786101d5565b610280610122565b91829182610248565b0390f35b610128565b61029b906101f9565b90565b6102a781610292565b036102ae57565b5f80fd5b905035906102bf8261029e565b565b906020828203126102da576102d7915f016102b2565b90565b61012c565b3461030f5761030b6102fa6102f53660046102c1565b610765565b610302610122565b9182918261018b565b0390f35b610128565b61031d8161017b565b0361032457565b5f80fd5b9050359061033582610314565b565b906020828203126103505761034d915f01610328565b90565b61012c565b5f0190565b346103885761037261036d366004610337565b610831565b61037a610122565b8061038481610355565b0390f35b610128565b61039960015f9061015e565b90565b346103cc576103ac366004610130565b6103c86103b761038d565b6103bf610122565b9182918261018b565b0390f35b610128565b346103ff576103e96103e4366004610337565b61091d565b6103f1610122565b806103fb81610355565b0390f35b610128565b3461043257610414366004610130565b61041c610975565b610424610122565b8061042e81610355565b0390f35b610128565b151590565b61044590610437565b9052565b919061045c905f6020850194019061043c565b565b3461048e5761048a6104796104743660046102c1565b610983565b610481610122565b91829182610449565b0390f35b610128565b346104c1576104ab6104a6366004610337565b610a4c565b6104b3610122565b806104bd81610355565b0390f35b610128565b6104cf90610223565b90565b906104dc906104c6565b5f5260205260405f2090565b6104fe906104f96003915f926104d2565b61015e565b90565b346105315761052d61051c6105173660046102c1565b6104e8565b610524610122565b9182918261018b565b0390f35b610128565b61053f90610292565b9052565b9190610556905f60208501940190610536565b565b3461058857610568366004610130565b610584610573610a87565b61057b610122565b91829182610543565b0390f35b610128565b346105bb5761059d366004610130565b6105a5610b32565b6105ad610122565b806105b781610355565b0390f35b610128565b6105d6906105d16004915f926104d2565b61015e565b90565b34610609576106056105f46105ef3660046102c1565b6105c0565b6105fc610122565b9182918261018b565b0390f35b610128565b61061a60055f9061015e565b90565b3461064d5761062d366004610130565b61064961063861060e565b610640610122565b9182918261018b565b0390f35b610128565b3461068257610662366004610130565b61067e61066d610d86565b610675610122565b9182918261018b565b0390f35b610128565b346106b55761069f61069a3660046102c1565b610e9d565b6106a7610122565b806106b181610355565b0390f35b610128565b5f80fd5b5f90565b5f1c90565b6106d36106d8916106c2565b610143565b90565b6106e590546106c7565b90565b90565b6106ff6106fa610704926106e8565b610204565b61017b565b90565b634e487b7160e01b5f52601160045260245ffd5b61072a6107309193929361017b565b9261017b565b820180921161073b57565b610707565b61074f6107559193929361017b565b9261017b565b820391821161076057565b610707565b61077c610781916107746106be565b5060036104d2565b6106db565b8061079461078e5f6106eb565b9161017b565b146107e1576107ad906107a760026106db565b9061071b565b426107c06107ba8361017b565b9161017b565b10156107d4576107d1904290610740565b90565b506107de5f6106eb565b90565b506107eb5f6106eb565b90565b6107ff906107fa610ea8565b610801565b565b61082f907f000000000000000000000000000000000000000000000000000000000000000090339091610ef6565b565b61083a906107ee565b565b61084d90610848610ea8565b6108cc565b565b5f1b90565b906108605f199161084f565b9181191691161790565b61087e6108796108839261017b565b610204565b61017b565b90565b90565b9061089e6108996108a59261086a565b610886565b8254610854565b9055565b9160206108ca9294936108c360408201965f83019061017e565b019061017e565b565b6108d660016106db565b6108e1826001610889565b907f36563e5a12f51369037b2ee9bf77fe7abb90094daa61032f7345a92040f32d719161091861090f610122565b928392836108a9565b0390a1565b6109269061083c565b565b610930610ea8565b610938610962565b565b61094e610949610953926106e8565b610204565b6101f9565b90565b61095f9061093a565b90565b61097361096e5f610956565b610f7b565b565b61097d610928565b565b5f90565b61099a61099f9161099261097f565b5060036104d2565b6106db565b806109b26109ac5f6106eb565b9161017b565b146109e2576109dd6109d76109d242936109cc60026106db565b9061071b565b61017b565b9161017b565b101590565b50600190565b6109f9906109f4610ea8565b6109fb565b565b610a0560026106db565b610a10826002610889565b907f98eaabfe135a9c40c420208962bf81e7926b4d6df3e23502164c0554b7b3522491610a47610a3e610122565b928392836108a9565b0390a1565b610a55906109e8565b565b5f90565b60018060a01b031690565b610a72610a77916106c2565b610a5b565b90565b610a849054610a66565b90565b610a8f610a57565b50610a995f610a7a565b90565b610aa590610223565b90565b601f801991011690565b634e487b7160e01b5f52604160045260245ffd5b90610ad090610aa8565b810190811067ffffffffffffffff821117610aea57604052565b610ab2565b60e01b90565b90505190610b0282610314565b565b90602082820312610b1d57610b1a915f01610af5565b90565b61012c565b610b2a610122565b3d5f823e3d90fd5b610b46610b41600333906104d2565b6106db565b80610b59610b535f6106eb565b9161017b565b14159081610d57575b50610d3b57610bc76020610b957f000000000000000000000000000000000000000000000000000000000000000061022f565b6370a0823190610bbc610ba730610a9c565b92610bb0610122565b95869485938493610aef565b835260048301610543565b03915afa908115610d36575f91610d08575b50610bf5610bef610bea60016106db565b61017b565b9161017b565b10610cec57610c0f42610c0a600333906104d2565b610889565b610c40610c1c60016106db565b610c3a610c2b600433906104d2565b91610c35836106db565b61071b565b90610889565b610c66610c5f610c5060016106db565b610c5a60056106db565b61071b565b6005610889565b610c9b7f000000000000000000000000000000000000000000000000000000000000000033610c9560016106db565b91610ef6565b33610ca660016106db565b9042610cd27f77428ef826409c425864e111d5fe740d7404e66e9c3bccf1a46aea0b396127db926104c6565b92610ce7610cde610122565b928392836108a9565b0390a2565b5f631e9acf1760e31b815280610d0460048201610355565b0390fd5b610d29915060203d8111610d2f575b610d218183610ac6565b810190610b04565b5f610bd9565b503d610d17565b610b22565b5f63a74c1c5f60e01b815280610d5360048201610355565b0390fd5b9050610d7f610d79610d744293610d6e60026106db565b9061071b565b61017b565b9161017b565b105f610b62565b610d8e6106be565b50610def6020610dbd7f000000000000000000000000000000000000000000000000000000000000000061022f565b6370a0823190610de4610dcf30610a9c565b92610dd8610122565b95869485938493610aef565b835260048301610543565b03915afa908115610e33575f91610e05575b5090565b610e26915060203d8111610e2c575b610e1e8183610ac6565b810190610b04565b5f610e01565b503d610e14565b610b22565b610e4990610e44610ea8565b610e4b565b565b80610e66610e60610e5b5f610956565b610292565b91610292565b14610e7657610e7490610f7b565b565b610e99610e825f610956565b5f918291631e4fbdf760e01b835260048301610543565b0390fd5b610ea690610e38565b565b610eb0610a87565b610ec9610ec3610ebe610fda565b610292565b91610292565b03610ed057565b610ef2610edb610fda565b5f91829163118cdaa760e01b835260048301610543565b0390fd5b91610f0f91610f09918491600192610fe7565b15610437565b610f165750565b610f22610f399161022f565b5f918291635274afe760e01b835260048301610543565b0390fd5b90610f4e60018060a01b039161084f565b9181191691161790565b90565b90610f70610f6b610f77926104c6565b610f58565b8254610f3d565b9055565b610f845f610a7a565b610f8e825f610f5b565b90610fc2610fbc7f8be0079c531659141344cd1fd0a4f28419497f9722a3daafe3b4186f6b6457e0936104c6565b916104c6565b91610fcb610122565b80610fd581610355565b0390a3565b610fe2610a57565b503390565b9091939293610ff461097f565b5063a9059cbb60e01b92604051935f525f1960601c1660045260245260205f60448180855af19360015f511485161561102f575b5050604052565b8492941516611048575f903b113d151616915f80611028565b833d5f823e3d90fdfea26469706673582212209c02cf7093baec3fc5c24db2c126a76d11778f83717517dae6f4c3783ee06c4264736f6c63430008210033","linkReferences":{}},"methodIdentifiers":{"canDrip(address)":"7ed99b83","cooldownPeriod()":"04646a49","drip()":"9f678cca","dripAmount()":"35a1529b","getFaucetBalance()":"f1f959a6","lastDripTime(address)":"8b8a60bd","owner()":"8da5cb5b","renounceOwnership()":"715018a6","setCooldownPeriod(uint256)":"80ea3de1","setDripAmount(uint256)":"543f8c58","timeUntilNextDrip(address)":"1ebb044b","totalDistributed()":"efca2eed","totalDripped(address)":"9fb74958","transferOwnership(address)":"f2fde38b","usdcToken()":"11eac855","withdraw(uint256)":"2e1a7d4d"},"id":31}