{"abi":[{"type":"constructor","inputs":[{"name":"initialOwner","type":"address","internalType":"address"}],"stateMutability":"nonpayable"},{"type":"function","name":"batchUpdateFees","inputs":[{"name":"actions","type":"uint8[]","internalType":"enum ActionType[]"},{"name":"fees","type":"uint256[]","internalType":"uint256[]"}],"outputs":[],"stateMutability":"nonpayable"},{"type":"function","name":"feeTable","inputs":[{"name":"","type":"uint8","internalType":"enum ActionType"}],"outputs":[{"name":"","type":"uint256","internalType":"uint256"}],"stateMutability":"view"},{"type":"function","name":"getFee","inputs":[{"name":"actionType","type":"uint8","internalType":"enum ActionType"}],"outputs":[{"name":"","type":"uint256","internalType":"uint256"}],"stateMutability":"view"},{"type":"function","name":"lastUpdated","inputs":[],"outputs":[{"name":"","type":"uint256","internalType":"uint256"}],"stateMutability":"view"},{"type":"function","name":"owner","inputs":[],"outputs":[{"name":"","type":"address","internalType":"address"}],"stateMutability":"view"},{"type":"function","name":"renounceOwnership","inputs":[],"outputs":[],"stateMutability":"nonpayable"},{"type":"function","name":"setFee","inputs":[{"name":"actionType","type":"uint8","internalType":"enum ActionType"},{"name":"feeUsd","type":"uint256","internalType":"uint256"}],"outputs":[],"stateMutability":"nonpayable"},{"type":"function","name":"transferOwnership","inputs":[{"name":"newOwner","type":"address","internalType":"address"}],"outputs":[],"stateMutability":"nonpayable"},{"type":"event","name":"FeeUpdated","inputs":[{"name":"actionType","type":"uint8","indexed":true,"internalType":"enum ActionType"},{"name":"feeUsd","type":"uint256","indexed":false,"internalType":"uint256"}],"anonymous":false},{"type":"event","name":"OwnershipTransferred","inputs":[{"name":"previousOwner","type":"address","indexed":true,"internalType":"address"},{"name":"newOwner","type":"address","indexed":true,"internalType":"address"}],"anonymous":false},{"type":"error","name":"OwnableInvalidOwner","inputs":[{"name":"owner","type":"address","internalType":"address"}]},{"type":"error","name":"OwnableUnauthorizedAccount","inputs":[{"name":"account","type":"address","internalType":"address"}]}],"bytecode":{"object":"0x60806040523461002f576100196100146100f4565b610280565b610021610034565b610b266104fd8239610b2690f35b61003a565b60405190565b5f80fd5b601f801991011690565b634e487b7160e01b5f52604160045260245ffd5b906100669061003e565b810190811060018060401b0382111761007e57604052565b610048565b9061009661008f610034565b928361005c565b565b5f80fd5b60018060a01b031690565b6100b09061009c565b90565b6100bc816100a7565b036100c357565b5f80fd5b905051906100d4826100b3565b565b906020828203126100ef576100ec915f016100c7565b90565b610098565b6101126110238038038061010781610083565b9283398101906100d6565b90565b90565b90565b90565b61013261012d61013792610115565b61011b565b610118565b90565b634e487b7160e01b5f52602160045260245ffd5b6006111561015857565b61013a565b906101678261014e565b565b6101729061015d565b90565b9061017f90610169565b5f5260205260405f2090565b5f1b90565b9061019c5f199161018b565b9181191691161790565b6101ba6101b56101bf92610118565b61011b565b610118565b90565b90565b906101da6101d56101e1926101a6565b6101c2565b8254610190565b9055565b90565b6101fc6101f7610201926101e5565b61011b565b610118565b90565b90565b61021b61021661022092610204565b61011b565b610118565b90565b90565b61023a61023561023f92610223565b61011b565b610118565b90565b90565b61025961025461025e92610242565b61011b565b610118565b90565b90565b61027861027361027d92610261565b61011b565b610118565b90565b610289906103a3565b6102a861029761012c61011e565b6102a360015f90610175565b6101c5565b6102c66102b66103e86101e8565b6102c1600180610175565b6101c5565b6102e76102d5620186a0610207565b6102e26001600290610175565b6101c5565b6103076102f561c350610226565b6103026001600390610175565b6101c5565b610328610316620249f0610245565b6103236001600490610175565b6101c5565b61034961033762030d40610264565b6103446001600590610175565b6101c5565b6103544260026101c5565b565b90565b61036d61036861037292610356565b61011b565b61009c565b90565b61037e90610359565b90565b61038a906100a7565b9052565b91906103a1905f60208501940190610381565b565b806103be6103b86103b35f610375565b6100a7565b916100a7565b146103ce576103cc9061049d565b565b6103f16103da5f610375565b5f918291631e4fbdf760e01b83526004830161038e565b0390fd5b5f1c90565b60018060a01b031690565b610411610416916103f5565b6103fa565b90565b6104239054610405565b90565b9061043760018060a01b039161018b565b9181191691161790565b61045561045061045a9261009c565b61011b565b61009c565b90565b61046690610441565b90565b6104729061045d565b90565b90565b9061048d61048861049492610469565b610475565b8254610426565b9055565b5f0190565b6104a65f610419565b6104b0825f610478565b906104e46104de7f8be0079c531659141344cd1fd0a4f28419497f9722a3daafe3b4186f6b6457e093610469565b91610469565b916104ed610034565b806104f781610498565b0390a356fe60806040526004361015610013575b610526565b61001d5f3561009c565b8063083132c414610097578063715018a6146100925780638432fc2f1461008d5780638c6aa3f5146100885780638da5cb5b14610083578063d0b06f5d1461007e578063de2a640e146100795763f2fde38b0361000e576104f3565b61047d565b6103de565b61036d565b610300565b610279565b61015d565b610114565b60e01c90565b60405190565b5f80fd5b5f80fd5b5f80fd5b600611156100be57565b5f80fd5b905035906100cf826100b4565b565b906020828203126100ea576100e7915f016100c2565b90565b6100ac565b90565b6100fb906100ef565b9052565b9190610112905f602085019401906100f2565b565b346101445761014061012f61012a3660046100d1565b610554565b6101376100a2565b918291826100ff565b0390f35b6100a8565b5f91031261015357565b6100ac565b5f0190565b3461018b5761016d366004610149565b6101756105c6565b61017d6100a2565b8061018781610158565b0390f35b6100a8565b5f80fd5b5f80fd5b5f80fd5b909182601f830112156101d65781359167ffffffffffffffff83116101d15760200192602083028401116101cc57565b610198565b610194565b610190565b909182601f830112156102155781359167ffffffffffffffff831161021057602001926020830284011161020b57565b610198565b610194565b610190565b9091604082840312610274575f82013567ffffffffffffffff811161026f578361024591840161019c565b929093602082013567ffffffffffffffff811161026a5761026692016101db565b9091565b6100b0565b6100b0565b6100ac565b346102ab5761029561028c36600461021a565b9291909161087d565b61029d6100a2565b806102a781610158565b0390f35b6100a8565b6102b9816100ef565b036102c057565b5f80fd5b905035906102d1826102b0565b565b91906040838203126102fb57806102ef6102f8925f86016100c2565b936020016102c4565b90565b6100ac565b3461032f576103196103133660046102d3565b90610903565b6103216100a2565b8061032b81610158565b0390f35b6100a8565b60018060a01b031690565b61034890610334565b90565b6103549061033f565b9052565b919061036b905f6020850194019061034b565b565b3461039d5761037d366004610149565b61039961038861093f565b6103906100a2565b91829182610358565b0390f35b6100a8565b1c90565b90565b6103b99060086103be93026103a2565b6103a6565b90565b906103cc91546103a9565b90565b6103db60025f906103c1565b90565b3461040e576103ee366004610149565b61040a6103f96103cf565b6104016100a2565b918291826100ff565b0390f35b6100a8565b634e487b7160e01b5f52602160045260245ffd5b6006111561043157565b610413565b9061044082610427565b565b61044b90610436565b90565b9061045890610442565b5f5260205260405f2090565b61047a906104756001915f9261044e565b6103c1565b90565b346104ad576104a96104986104933660046100d1565b610464565b6104a06100a2565b918291826100ff565b0390f35b6100a8565b6104bb8161033f565b036104c257565b5f80fd5b905035906104d3826104b2565b565b906020828203126104ee576104eb915f016104c6565b90565b6100ac565b346105215761050b6105063660046104d5565b6109b9565b6105136100a2565b8061051d81610158565b0390f35b6100a8565b5f80fd5b5f90565b5f1c90565b61053f6105449161052e565b6103a6565b90565b6105519054610533565b90565b61056b6105709161056361052a565b50600161044e565b610547565b90565b61057b6109c4565b6105836105b3565b565b90565b90565b61059f61059a6105a492610585565b610588565b610334565b90565b6105b09061058b565b90565b6105c46105bf5f6105a7565b610a84565b565b6105ce610573565b565b906105e49392916105df6109c4565b610756565b565b5090565b5090565b60209181520190565b5f7f4c656e677468206d69736d617463680000000000000000000000000000000000910152565b61062b600f6020926105ee565b610634816105f7565b0190565b61064d9060208101905f81830391015261061e565b90565b1561065757565b61065f6100a2565b62461bcd60e51b81528061067560048201610638565b0390fd5b61068d61068861069292610585565b610588565b6100ef565b90565b60016106a191016100ef565b90565b634e487b7160e01b5f52603260045260245ffd5b91908110156106c8576020020190565b6106a4565b356106d7816102b0565b90565b91908110156106ea576020020190565b6106a4565b356106f9816100b4565b90565b5f1b90565b9061070d5f19916106fc565b9181191691161790565b61072b610726610730926100ef565b610588565b6100ef565b90565b90565b9061074b61074661075292610717565b610733565b8254610701565b9055565b9392936107896107678284906105e6565b61078361077d610778878a906105ea565b6100ef565b916100ef565b14610650565b6107925f610679565b5b806107b06107aa6107a58587906105e6565b6100ef565b916100ef565b101561086a57610865906107f56107d16107cc878a85916106b8565b6106cd565b6107f060016107ea6107e5888a88916106da565b6106ef565b9061044e565b610736565b610809610804848684916106da565b6106ef565b61081d610818878a85916106b8565b6106cd565b9061085d61084b7f53b82d85cd75c3f353186408e2e619ae5f01c371100dc061ee0423d12acb750892610442565b926108546100a2565b918291826100ff565b0390a2610695565b610793565b50505050905061087b426002610736565b565b906108899392916105d0565b565b9061089d916108986109c4565b61089f565b565b6108b4826108af6001849061044e565b610736565b6108bf426002610736565b6108fe6108ec7f53b82d85cd75c3f353186408e2e619ae5f01c371100dc061ee0423d12acb750892610442565b926108f56100a2565b918291826100ff565b0390a2565b9061090d9161088b565b565b5f90565b60018060a01b031690565b61092a61092f9161052e565b610913565b90565b61093c905461091e565b90565b61094761090f565b506109515f610932565b90565b610965906109606109c4565b610967565b565b8061098261097c6109775f6105a7565b61033f565b9161033f565b146109925761099090610a84565b565b6109b561099e5f6105a7565b5f918291631e4fbdf760e01b835260048301610358565b0390fd5b6109c290610954565b565b6109cc61093f565b6109e56109df6109da610ae3565b61033f565b9161033f565b036109ec57565b610a0e6109f7610ae3565b5f91829163118cdaa760e01b835260048301610358565b0390fd5b90610a2360018060a01b03916106fc565b9181191691161790565b610a41610a3c610a4692610334565b610588565b610334565b90565b610a5290610a2d565b90565b610a5e90610a49565b90565b90565b90610a79610a74610a8092610a55565b610a61565b8254610a12565b9055565b610a8d5f610932565b610a97825f610a64565b90610acb610ac57f8be0079c531659141344cd1fd0a4f28419497f9722a3daafe3b4186f6b6457e093610a55565b91610a55565b91610ad46100a2565b80610ade81610158565b0390a3565b610aeb61090f565b50339056fea264697066735822122079998392946d8a5eb4a55e25c36e026ec56882986ba713ee7ad9beda5c1d43f864736f6c63430008210033","linkReferences":{}},"methodIdentifiers":{"batchUpdateFees(uint8[],uint256[])":"8432fc2f","feeTable(uint8)":"de2a640e","getFee(uint8)":"083132c4","lastUpdated()":"d0b06f5d","owner()":"8da5cb5b","renounceOwnership()":"715018a6","setFee(uint8,uint256)":"8c6aa3f5","transferOwnership(address)":"f2fde38b"},"id":48}