{"abi":[{"type":"constructor","inputs":[{"name":"_tradingVault","type":"address","internalType":"address"},{"name":"_riskManager","type":"address","internalType":"address"},{"name":"_ostiumAdapter","type":"address","internalType":"address"},{"name":"_priceFeed","type":"address","internalType":"address"},{"name":"_symbolRegistry","type":"address","internalType":"address"},{"name":"admin","type":"address","internalType":"address"}],"stateMutability":"nonpayable"},{"type":"function","name":"DEFAULT_ADMIN_ROLE","inputs":[],"outputs":[{"name":"","type":"bytes32","internalType":"bytes32"}],"stateMutability":"view"},{"type":"function","name":"OPERATOR_ROLE","inputs":[],"outputs":[{"name":"","type":"bytes32","internalType":"bytes32"}],"stateMutability":"view"},{"type":"function","name":"cancelOrder","inputs":[{"name":"","type":"address","internalType":"address"},{"name":"orderId","type":"bytes32","internalType":"bytes32"}],"outputs":[],"stateMutability":"nonpayable"},{"type":"function","name":"getOrderStatus","inputs":[{"name":"orderId","type":"bytes32","internalType":"bytes32"}],"outputs":[{"name":"","type":"uint8","internalType":"enum OsmoTypes.OrderStatus"}],"stateMutability":"view"},{"type":"function","name":"getRoleAdmin","inputs":[{"name":"role","type":"bytes32","internalType":"bytes32"}],"outputs":[{"name":"","type":"bytes32","internalType":"bytes32"}],"stateMutability":"view"},{"type":"function","name":"grantRole","inputs":[{"name":"role","type":"bytes32","internalType":"bytes32"},{"name":"account","type":"address","internalType":"address"}],"outputs":[],"stateMutability":"nonpayable"},{"type":"function","name":"hasRole","inputs":[{"name":"role","type":"bytes32","internalType":"bytes32"},{"name":"account","type":"address","internalType":"address"}],"outputs":[{"name":"","type":"bool","internalType":"bool"}],"stateMutability":"view"},{"type":"function","name":"maxPriceDeviation","inputs":[],"outputs":[{"name":"","type":"uint256","internalType":"uint256"}],"stateMutability":"view"},{"type":"function","name":"orderToExchangeId","inputs":[{"name":"","type":"bytes32","internalType":"bytes32"}],"outputs":[{"name":"","type":"uint256","internalType":"uint256"}],"stateMutability":"view"},{"type":"function","name":"orders","inputs":[{"name":"","type":"bytes32","internalType":"bytes32"}],"outputs":[{"name":"","type":"uint8","internalType":"enum OsmoTypes.OrderStatus"}],"stateMutability":"view"},{"type":"function","name":"ostiumAdapter","inputs":[],"outputs":[{"name":"","type":"address","internalType":"contract IOstiumAdapter"}],"stateMutability":"view"},{"type":"function","name":"placeOrder","inputs":[{"name":"params","type":"tuple","internalType":"struct OsmoTypes.OrderParams","components":[{"name":"user","type":"address","internalType":"address"},{"name":"symbol","type":"string","internalType":"string"},{"name":"side","type":"uint8","internalType":"enum OsmoTypes.Side"},{"name":"orderType","type":"uint8","internalType":"enum OsmoTypes.OrderType"},{"name":"amountUsd","type":"uint256","internalType":"uint256"},{"name":"leverage","type":"uint8","internalType":"uint8"},{"name":"price","type":"uint256","internalType":"uint256"},{"name":"stopPrice","type":"uint256","internalType":"uint256"}]}],"outputs":[{"name":"orderId","type":"bytes32","internalType":"bytes32"}],"stateMutability":"nonpayable"},{"type":"function","name":"priceFeed","inputs":[],"outputs":[{"name":"","type":"address","internalType":"contract ChainlinkPriceFeed"}],"stateMutability":"view"},{"type":"function","name":"renounceRole","inputs":[{"name":"role","type":"bytes32","internalType":"bytes32"},{"name":"callerConfirmation","type":"address","internalType":"address"}],"outputs":[],"stateMutability":"nonpayable"},{"type":"function","name":"revokeRole","inputs":[{"name":"role","type":"bytes32","internalType":"bytes32"},{"name":"account","type":"address","internalType":"address"}],"outputs":[],"stateMutability":"nonpayable"},{"type":"function","name":"riskManager","inputs":[],"outputs":[{"name":"","type":"address","internalType":"contract IRiskManager"}],"stateMutability":"view"},{"type":"function","name":"setMaxPriceDeviation","inputs":[{"name":"newDeviation","type":"uint256","internalType":"uint256"}],"outputs":[],"stateMutability":"nonpayable"},{"type":"function","name":"setOstiumAdapter","inputs":[{"name":"newAdapter","type":"address","internalType":"address"}],"outputs":[],"stateMutability":"nonpayable"},{"type":"function","name":"setPriceFeed","inputs":[{"name":"newPriceFeed","type":"address","internalType":"address"}],"outputs":[],"stateMutability":"nonpayable"},{"type":"function","name":"supportsInterface","inputs":[{"name":"interfaceId","type":"bytes4","internalType":"bytes4"}],"outputs":[{"name":"","type":"bool","internalType":"bool"}],"stateMutability":"view"},{"type":"function","name":"symbolRegistry","inputs":[],"outputs":[{"name":"","type":"address","internalType":"contract SymbolRegistry"}],"stateMutability":"view"},{"type":"function","name":"tradingVault","inputs":[],"outputs":[{"name":"","type":"address","internalType":"contract ITradingVault"}],"stateMutability":"view"},{"type":"event","name":"HyperliquidOrderRequested","inputs":[{"name":"orderId","type":"bytes32","indexed":true,"internalType":"bytes32"},{"name":"user","type":"address","indexed":true,"internalType":"address"},{"name":"symbol","type":"string","indexed":false,"internalType":"string"},{"name":"side","type":"uint8","indexed":false,"internalType":"enum OsmoTypes.Side"},{"name":"orderType","type":"uint8","indexed":false,"internalType":"enum OsmoTypes.OrderType"},{"name":"amountUsd","type":"uint256","indexed":false,"internalType":"uint256"},{"name":"leverage","type":"uint8","indexed":false,"internalType":"uint8"},{"name":"price","type":"uint256","indexed":false,"internalType":"uint256"}],"anonymous":false},{"type":"event","name":"OstiumOrderPlaced","inputs":[{"name":"orderId","type":"bytes32","indexed":true,"internalType":"bytes32"},{"name":"ostiumOrderId","type":"uint256","indexed":false,"internalType":"uint256"},{"name":"user","type":"address","indexed":true,"internalType":"address"},{"name":"symbol","type":"string","indexed":false,"internalType":"string"}],"anonymous":false},{"type":"event","name":"RoleAdminChanged","inputs":[{"name":"role","type":"bytes32","indexed":true,"internalType":"bytes32"},{"name":"previousAdminRole","type":"bytes32","indexed":true,"internalType":"bytes32"},{"name":"newAdminRole","type":"bytes32","indexed":true,"internalType":"bytes32"}],"anonymous":false},{"type":"event","name":"RoleGranted","inputs":[{"name":"role","type":"bytes32","indexed":true,"internalType":"bytes32"},{"name":"account","type":"address","indexed":true,"internalType":"address"},{"name":"sender","type":"address","indexed":true,"internalType":"address"}],"anonymous":false},{"type":"event","name":"RoleRevoked","inputs":[{"name":"role","type":"bytes32","indexed":true,"internalType":"bytes32"},{"name":"account","type":"address","indexed":true,"internalType":"address"},{"name":"sender","type":"address","indexed":true,"internalType":"address"}],"anonymous":false},{"type":"error","name":"AccessControlBadConfirmation","inputs":[]},{"type":"error","name":"AccessControlUnauthorizedAccount","inputs":[{"name":"account","type":"address","internalType":"address"},{"name":"neededRole","type":"bytes32","internalType":"bytes32"}]}],"bytecode":{"object":"0x60c06040523461005657610020610014610161565b94939093929192610394565b61002861005b565b6125af6105d58239608051818181610b3501526112d9015260a051818181610522015261121301526125af90f35b610061565b60405190565b5f80fd5b601f801991011690565b634e487b7160e01b5f52604160045260245ffd5b9061008d90610065565b810190811060018060401b038211176100a557604052565b61006f565b906100bd6100b661005b565b9283610083565b565b5f80fd5b60018060a01b031690565b6100d7906100c3565b90565b6100e3816100ce565b036100ea57565b5f80fd5b905051906100fb826100da565b565b909160c08284031261015c57610115835f84016100ee565b9261012381602085016100ee565b9261013182604083016100ee565b9261015961014284606085016100ee565b9361015081608086016100ee565b9360a0016100ee565b90565b6100bf565b61017f612b8480380380610174816100aa565b9283398101906100fd565b909192939495565b90565b61019e6101996101a3926100c3565b610187565b6100c3565b90565b6101af9061018a565b90565b6101bb906101a6565b90565b6101c79061018a565b90565b6101d3906101be565b90565b6101df9061018a565b90565b6101eb906101d6565b90565b5f1b90565b9061020460018060a01b03916101ee565b9181191691161790565b610217906101d6565b90565b90565b9061023261022d6102399261020e565b61021a565b82546101f3565b9055565b6102469061018a565b90565b6102529061023d565b90565b61025e9061023d565b90565b90565b9061027961027461028092610255565b610261565b82546101f3565b9055565b61028d9061018a565b90565b61029990610284565b90565b6102a590610284565b90565b90565b906102c06102bb6102c79261029c565b6102a8565b82546101f3565b9055565b90565b90565b6102e56102e06102ea926102cb565b610187565b6102ce565b90565b906102f95f19916101ee565b9181191691161790565b61031761031261031c926102ce565b610187565b6102ce565b90565b90565b9061033761033261033e92610303565b61031f565b82546102ed565b9055565b90565b90565b61035c61035761036192610342565b6101ee565b610345565b90565b61036d5f610348565b90565b7f97667070c54ef182b0f5858b034beac1b6f3089aa2d3188bb1e8929f4fa9b92990565b6103d66103e9946103d16103ca6103e2966103c261041d9b9a976103ba6103dd986101b2565b6080526101ca565b60a0526101e2565b600161021d565b610249565b6002610264565b610290565b60036102ab565b6103fd6103f660646102d1565b6004610322565b61040f610408610364565b82906104c3565b50610418610370565b6104c3565b50565b5f90565b151590565b61043290610345565b90565b9061043f90610429565b5f5260205260405f2090565b6104549061018a565b90565b6104609061044b565b90565b9061046d90610457565b5f5260205260405f2090565b9061048560ff916101ee565b9181191691161790565b61049890610424565b90565b90565b906104b36104ae6104ba9261048f565b61049b565b8254610479565b9055565b5f0190565b6104cb610420565b506104e06104da82849061059a565b15610424565b5f146105685761050760016105025f6104fa818690610435565b018590610463565b61049e565b906105106105c7565b9061054d6105476105417f2f8788117e7eff1d82e926ec794901d17c78024a50270940304540a733656f0d95610429565b92610457565b92610457565b9261055661005b565b80610560816104be565b0390a4600190565b50505f90565b5f1c90565b60ff1690565b61058561058a9161056e565b610573565b90565b6105979054610579565b90565b6105c0915f6105b56105bb936105ae610420565b5082610435565b01610463565b61058d565b90565b5f90565b6105cf6105c3565b50339056fe60806040526004361015610013575b610c1e565b61001d5f3561017c565b806301ffc9a71461017757806304cca0bd14610172578063248a9ca31461016d57806326ca2072146101685780632f2ff15d1461016357806336568abe1461015e57806346423aa7146101595780634784266314610154578063724e78da1461014f578063741bef1a1461014a57806384b2167c146101455780638cd5c8401461014057806391d148541461013b578063975b8662146101365780639c3f1e90146101315780639d3e59381461012c5780639ee4c05714610127578063a06736ac14610122578063a217fddf1461011d578063d547741f14610118578063f1bd27a8146101135763f5b541a60361000e57610be9565b610b85565b610aff565b610aca565b610a5a565b6109f8565b610982565b6108df565b610843565b6107b0565b61077b565b6106d9565b610677565b6105d2565b61059d565b6104dc565b61044b565b610417565b6103b7565b610325565b6102af565b610208565b60e01c90565b60405190565b5f80fd5b5f80fd5b5f80fd5b63ffffffff60e01b1690565b6101a981610194565b036101b057565b5f80fd5b905035906101c1826101a0565b565b906020828203126101dc576101d9915f016101b4565b90565b61018c565b151590565b6101ef906101e1565b9052565b9190610206905f602085019401906101e6565b565b346102385761023461022361021e3660046101c3565b610c26565b61022b610182565b918291826101f3565b0390f35b610188565b5f80fd5b90816101009103126102505790565b61023d565b90602082820312610285575f82013567ffffffffffffffff81116102805761027d9201610241565b90565b610190565b61018c565b90565b6102969061028a565b9052565b91906102ad905f6020850194019061028d565b565b346102df576102db6102ca6102c5366004610255565b6111df565b6102d2610182565b9182918261029a565b0390f35b610188565b6102ed8161028a565b036102f457565b5f80fd5b90503590610305826102e4565b565b906020828203126103205761031d915f016102f8565b90565b61018c565b346103555761035161034061033b366004610307565b611515565b610348610182565b9182918261029a565b0390f35b610188565b60018060a01b031690565b61036e9061035a565b90565b61037a81610365565b0361038157565b5f80fd5b9050359061039282610371565b565b906020828203126103ad576103aa915f01610385565b90565b61018c565b5f0190565b346103e5576103cf6103ca366004610394565b6115c8565b6103d7610182565b806103e1816103b2565b0390f35b610188565b9190604083820312610412578061040661040f925f86016102f8565b93602001610385565b90565b61018c565b346104465761043061042a3660046103ea565b906115fd565b610438610182565b80610442816103b2565b0390f35b610188565b3461047a5761046461045e3660046103ea565b90611609565b61046c610182565b80610476816103b2565b0390f35b610188565b634e487b7160e01b5f52602160045260245ffd5b6005111561049d57565b61047f565b906104ac82610493565b565b6104b7906104a2565b90565b6104c3906104ae565b9052565b91906104da905f602085019401906104ba565b565b3461050c576105086104f76104f2366004610307565b611676565b6104ff610182565b918291826104c7565b0390f35b610188565b5f91031261051b57565b61018c565b7f000000000000000000000000000000000000000000000000000000000000000090565b90565b61055b6105566105609261035a565b610544565b61035a565b90565b61056c90610547565b90565b61057890610563565b90565b6105849061056f565b9052565b919061059b905f6020850194019061057b565b565b346105cd576105ad366004610511565b6105c96105b8610520565b6105c0610182565b91829182610588565b0390f35b610188565b34610600576105ea6105e5366004610394565b61170c565b6105f2610182565b806105fc816103b2565b0390f35b610188565b1c90565b60018060a01b031690565b6106249060086106299302610605565b610609565b90565b906106379154610614565b90565b61064660025f9061062c565b90565b61065290610563565b90565b61065e90610649565b9052565b9190610675905f60208501940190610655565b565b346106a757610687366004610511565b6106a361069261063a565b61069a610182565b91829182610662565b0390f35b610188565b91906040838203126106d457806106c86106d1925f8601610385565b936020016102f8565b90565b61018c565b34610708576106f26106ec3660046106ac565b90611717565b6106fa610182565b80610704816103b2565b0390f35b610188565b60018060a01b031690565b61072890600861072d9302610605565b61070d565b90565b9061073b9154610718565b90565b61074a60015f90610730565b90565b61075690610563565b90565b6107629061074d565b9052565b9190610779905f60208501940190610759565b565b346107ab5761078b366004610511565b6107a761079661073e565b61079e610182565b91829182610766565b0390f35b610188565b346107e1576107dd6107cc6107c63660046103ea565b90611779565b6107d4610182565b918291826101f3565b0390f35b610188565b90565b6107f99060086107fe9302610605565b6107e6565b90565b9061080c91546107e9565b90565b61081b60045f90610801565b90565b90565b61082a9061081e565b9052565b9190610841905f60208501940190610821565b565b3461087357610853366004610511565b61086f61085e61080f565b610866610182565b9182918261082e565b0390f35b610188565b6108819061028a565b90565b9061088e90610878565b5f5260205260405f2090565b60ff1690565b6108b09060086108b59302610605565b61089a565b90565b906108c391546108a0565b90565b6108dc906108d76006915f92610884565b6108b8565b90565b3461090f5761090b6108fa6108f5366004610307565b6108c6565b610902610182565b918291826104c7565b0390f35b610188565b60018060a01b031690565b61092f9060086109349302610605565b610914565b90565b90610942915461091f565b90565b61095160035f90610937565b90565b61095d90610563565b90565b61096990610954565b9052565b9190610980905f60208501940190610960565b565b346109b257610992366004610511565b6109ae61099d610945565b6109a5610182565b9182918261096d565b0390f35b610188565b6109c08161081e565b036109c757565b5f80fd5b905035906109d8826109b7565b565b906020828203126109f3576109f0915f016109cb565b90565b61018c565b34610a2657610a10610a0b3660046109da565b6117ca565b610a18610182565b80610a22816103b2565b0390f35b610188565b90610a3590610878565b5f5260205260405f2090565b610a5790610a526007915f92610a2b565b610801565b90565b34610a8a57610a86610a75610a70366004610307565b610a41565b610a7d610182565b9182918261082e565b0390f35b610188565b90565b5f1b90565b610aab610aa6610ab092610a8f565b610a92565b61028a565b90565b610abc5f610a97565b90565b610ac7610ab3565b90565b34610afa57610ada366004610511565b610af6610ae5610abf565b610aed610182565b9182918261029a565b0390f35b610188565b34610b2e57610b18610b123660046103ea565b906117ff565b610b20610182565b80610b2a816103b2565b0390f35b610188565b7f000000000000000000000000000000000000000000000000000000000000000090565b610b6090610563565b90565b610b6c90610b57565b9052565b9190610b83905f60208501940190610b63565b565b34610bb557610b95366004610511565b610bb1610ba0610b33565b610ba8610182565b91829182610b70565b0390f35b610188565b7f97667070c54ef182b0f5858b034beac1b6f3089aa2d3188bb1e8929f4fa9b92990565b610be6610bba565b90565b34610c1957610bf9366004610511565b610c15610c04610bde565b610c0c610182565b9182918261029a565b0390f35b610188565b5f80fd5b5f90565b610c2e610c22565b5080610c49610c43637965db0b60e01b610194565b91610194565b14908115610c56575b5090565b610c60915061180b565b5f610c52565b5f90565b60031115610c7457565b5f80fd5b60031115610c8257565b61047f565b90610c9182610c78565b565b35610c9d81610c6a565b90565b5f80fd5b5f80fd5b5f80fd5b903590600160200381360303821215610cee570180359067ffffffffffffffff8211610ce957602001916001820236038313610ce457565b610ca8565b610ca4565b610ca0565b35610cfd816109b7565b90565b60021115610d0a57565b5f80fd5b60021115610d1857565b61047f565b90610d2782610d0e565b565b35610d3381610d00565b90565b5f80fd5b601f801991011690565b634e487b7160e01b5f52604160045260245ffd5b90610d6290610d3a565b810190811067ffffffffffffffff821117610d7c57604052565b610d44565b90610d94610d8d610182565b9283610d58565b565b67ffffffffffffffff8111610db457610db0602091610d3a565b0190565b610d44565b90825f939282370152565b90929192610dd9610dd482610d96565b610d81565b93818552602085019082840111610df557610df392610db9565b565b610d36565b610e05913691610dc4565b90565b35610e1281610371565b90565b60ff1690565b610e2481610e15565b03610e2b57565b5f80fd5b35610e3981610e1b565b90565b5f80fd5b60e01b90565b5f910312610e5057565b61018c565b610e5e90610365565b9052565b60209181520190565b9190610e8581610e7e81610e8a95610e62565b8095610db9565b610d3a565b0190565b610e9790610e15565b9052565b90610ecb610ed691610edd96989795606095610ebe60808701935f880190610e55565b8583036020870152610e6b565b966040830190610821565b0190610e8e565b565b610ee7610182565b3d5f823e3d90fd5b916020610f10929493610f0960408201965f830190610e55565b0190610821565b565b5f1c90565b610f23610f2891610f12565b6107e6565b90565b610f359054610f17565b90565b634e487b7160e01b5f52601160045260245ffd5b610f559061081e565b5f198114610f635760010190565b610f38565b90610f745f1991610a92565b9181191691161790565b610f92610f8d610f979261081e565b610544565b61081e565b90565b90565b90610fb2610fad610fb992610f7e565b610f9a565b8254610f68565b9055565b60601b90565b610fcc90610fbd565b90565b610fd890610fc3565b90565b610fe7610fec91610365565b610fcf565b9052565b905090565b9091826110058161100c93610ff0565b8093610db9565b0190565b90565b61101f6110249161081e565b611010565b9052565b61104d60209695929361105c95601484611046611054968c99610fdb565b0191610ff5565b8092611013565b018092611013565b0190565b60200190565b5190565b5f80fd5b5f80fd5b5f80fd5b9080601f830112156110945781602061109193359101610dc4565b90565b611072565b905035906110a682610d00565b565b905035906110b582610c6a565b565b905035906110c482610e1b565b565b91909161010081840312611187576110df610100610d81565b926110ec815f8401610385565b5f85015260208201359167ffffffffffffffff8311611182576111148261117b948301611076565b60208601526111268260408301611099565b604086015261113882606083016110a8565b606086015261114a82608083016109cb565b608086015261115c8260a083016110b7565b60a086015261116e8260c083016109cb565b60c086015260e0016109cb565b60e0830152565b61106e565b61106a565b6111979036906110c6565b90565b906111a660ff91610a92565b9181191691161790565b6111b9906104a2565b90565b90565b906111d46111cf6111db926111b0565b6111bc565b825461119a565b9055565b906111e8610c66565b506111f560608301610c93565b6112086112026001610c87565b91610c87565b1461149e575b6112377f000000000000000000000000000000000000000000000000000000000000000061056f565b63cdb1f07b906112485f8501610e08565b611256856020810190610cac565b92909361126560808801610cf3565b9061127260a08901610e2f565b94833b15611499575f95611298936112a39261128c610182565b998a9889978897610e40565b875260048701610e9b565b03915afa801561149457611468575b506112d46112c260808401610cf3565b6112ce60a08501610e2f565b90611e5a565b6112fd7f0000000000000000000000000000000000000000000000000000000000000000610b57565b906310b247069061130f5f8601610e08565b9092803b15611463576113355f8094611340611329610182565b97889687958694610e40565b845260048401610eef565b03925af1801561145e57611432575b506113a56113b46113615f8501610e08565b61136f856020810190610cac565b61137c6005959295610f2b565b61138f61138882610f4c565b6005610f9d565b4291611399610182565b96879560208701611028565b60208201810382520382610d58565b6113c66113c082611066565b91611060565b20916113e76113e26113dc836020810190610cac565b90610dfa565b611eec565b5f1461141957611401906113fb849161118c565b906122dd565b5b6114175f61141260068590610884565b6111bf565b565b61142d90611427849161118c565b90612134565b611402565b611451905f3d8111611457575b6114498183610d58565b810190610e46565b5f61134f565b503d61143f565b610edf565b610e3c565b611487905f3d811161148d575b61147f8183610d58565b810190610e46565b5f6112b2565b503d611475565b610edf565b610e3c565b6114d66114af836020810190610cac565b6114d16114be60c08701610cf3565b916114cb60408801610d29565b93610dfa565b611bc7565b61120e565b906114e590610878565b5f5260205260405f2090565b90565b61150061150591610f12565b6114f1565b90565b61151290546114f4565b90565b600161152d61153392611526610c66565b505f6114db565b01611508565b90565b61154f9061154a611545610ab3565b61237b565b6115b3565b565b61155a90610547565b90565b61156690611551565b90565b9061157a60018060a01b0391610a92565b9181191691161790565b61158d90611551565b90565b90565b906115a86115a36115af92611584565b611590565b8254611569565b9055565b6115bf6115c69161155d565b6001611593565b565b6115d190611536565b565b906115ee916115e96115e482611515565b61237b565b6115f0565b565b906115fa916123be565b50565b90611607916115d3565b565b908061162461161e61161961246d565b610365565b91610365565b03611635576116329161247a565b50565b5f63334bd91960e11b81528061164d600482016103b2565b0390fd5b5f90565b61166161166691610f12565b61089a565b90565b6116739054611655565b90565b61168d61169291611685611651565b506006610884565b611669565b90565b6116ae906116a96116a4610ab3565b61237b565b6116f7565b565b6116b990610547565b90565b6116c5906116b0565b90565b6116d1906116b0565b90565b90565b906116ec6116e76116f3926116c8565b6116d4565b8254611569565b9055565b61170361170a916116bc565b60026116d7565b565b61171590611695565b565b5061172e906117296003916006610884565b6111bf565b565b61173990610563565b90565b9061174690611730565b5f5260205260405f2090565b60ff1690565b61176461176991610f12565b611752565b90565b6117769054611758565b90565b61179f915f61179461179a9361178d610c22565b50826114db565b0161173c565b61176c565b90565b6117bb906117b66117b1610ab3565b61237b565b6117bd565b565b6117c8906004610f9d565b565b6117d3906117a2565b565b906117f0916117eb6117e682611515565b61237b565b6117f2565b565b906117fc9161247a565b50565b90611809916117d5565b565b611813610c22565b5061182d6118276301ffc9a760e01b610194565b91610194565b1490565b61183d61184291610f12565b610914565b90565b61184f9054611831565b90565b90825f9392825e0152565b9092919261187261186d82610d96565b610d81565b9381855260208501908284011161188e5761188c92611852565b565b610d36565b9080601f830112156118b1578160206118ae9351910161185d565b90565b611072565b906020828203126118e6575f82015167ffffffffffffffff81116118e1576118de9201611893565b90565b610190565b61018c565b5190565b61190e61191760209361191c93611905816118eb565b93848093610e62565b95869101611852565b610d3a565b0190565b6119359160208201915f8184039101526118ef565b90565b61194461194991610f12565b610609565b90565b6119569054611938565b90565b90505190611966826109b7565b565b9050519061197582610e1b565b565b90916060828403126119ac576119a9611992845f8501611959565b936119a08160208601611968565b93604001611959565b90565b61018c565b90565b6119c86119c36119cd926119b1565b610544565b610e15565b90565b6119dc6119e291610e15565b91610e15565b90039060ff82116119ef57565b610f38565b6119fd90610e15565b604d8111611a0b57600a0a90565b610f38565b634e487b7160e01b5f52601260045260245ffd5b611a30611a369161081e565b9161081e565b908115611a41570490565b611a10565b5f90565b611a59611a5f9193929361081e565b9261081e565b8203918211611a6a57565b610f38565b90565b611a86611a81611a8b92611a6f565b610544565b61081e565b90565b611a9d611aa39193929361081e565b9261081e565b91611aaf83820261081e565b928184041490151715611abe57565b610f38565b5f7f53656c6c20707269636520746f6f206c6f770000000000000000000000000000910152565b611af76012602092610e62565b611b0081611ac3565b0190565b611b199060208101905f818303910152611aea565b90565b15611b2357565b611b2b610182565b62461bcd60e51b815280611b4160048201611b04565b0390fd5b5f7f42757920707269636520746f6f20686967680000000000000000000000000000910152565b611b796012602092610e62565b611b8281611b45565b0190565b611b9b9060208101905f818303910152611b6c565b90565b15611ba557565b611bad610182565b62461bcd60e51b815280611bc360048201611b86565b0390fd5b5f611c0591611bde611bd96003611845565b610954565b611bfa6326184f74611bee610182565b95869485938493610e40565b835260048301611920565b03915afa908115611dfe57611c58916060915f91611ddc575b50611c31611c2c600261194c565b610649565b611c4d63f66a1b71611c41610182565b95869485938493610e40565b835260048301611920565b03915afa908115611dd757611c95915f80929091611d9d575b50611c8a611c8f9192611c8460066119b4565b906119d0565b6119f4565b90611a24565b91611c9e611a46565b50611cb1611cab5f610d1d565b91610d1d565b145f14611d2a5780611ccb611cc58461081e565b9161081e565b11611cd6575b50505b565b611d2391611cfc611ceb611d01938390611a4a565b611cf6612710611a72565b90611a8e565b611a24565b611d1c611d16611d116004610f2b565b61081e565b9161081e565b1115611b9e565b5f80611cd1565b80611d3d611d378461081e565b9161081e565b10611d4a575b5050611cd4565b81611d6f611d5e611d7493611d9695611a4a565b611d69612710611a72565b90611a8e565b611a24565b611d8f611d89611d846004610f2b565b61081e565b9161081e565b1115611b1c565b5f80611d43565b611c8a9250611c8f9150611dc79060603d8111611dd0575b611dbf8183610d58565b810190611977565b50925090611c71565b503d611db5565b610edf565b611df891503d805f833e611df08183610d58565b8101906118b6565b5f611c1e565b610edf565b611e17611e12611e1c92610a8f565b610544565b610e15565b90565b90565b611e36611e31611e3b92611e1f565b610544565b610e15565b90565b611e52611e4d611e5792610e15565b610544565b61081e565b90565b90611e9191611e67611a46565b5081611e7b611e755f611e03565b91610e15565b14611e94575b611e8b9091611e3e565b90611a24565b90565b9050611e8b611ea36001611e22565b919050611e81565b611eb4816101e1565b03611ebb57565b5f80fd5b90505190611ecc82611eab565b565b90602082820312611ee757611ee4915f01611ebf565b90565b61018c565b6020611f3491611efa610c22565b50611f0d611f086003611845565b610954565b611f2963091eb42d611f1d610182565b95869485938493610e40565b835260048301611920565b03915afa908115611f78575f91611f4a575b5090565b611f6b915060203d8111611f71575b611f638183610d58565b810190611ece565b5f611f46565b503d611f59565b610edf565b611f89611f8e91610f12565b61070d565b90565b611f9b9054611f7d565b90565b90602082820312611fb757611fb4915f01611959565b90565b61018c565b611fc590610365565b9052565b60209181520190565b611ff1611ffa602093611fff93611fe8816118eb565b93848093611fc9565b95869101611852565b610d3a565b0190565b61200c90610d1d565b90565b61201890612003565b9052565b61202590610c87565b90565b6120319061201c565b9052565b61203e9061081e565b9052565b61204b90610e15565b9052565b906120e69060e080612081610100840161206f5f8801515f870190611fbc565b60208701518582036020870152611fd2565b946120946040820151604086019061200f565b6120a660608201516060860190612028565b6120b860808201516080860190612035565b6120ca60a082015160a0860190612042565b6120dc60c082015160c0860190612035565b0151910190612035565b90565b6120fe9160208201915f81840391015261204f565b90565b61210b9051610365565b90565b916121319261212460408201935f830190610821565b60208184039101526118ef565b90565b90612177602061214c6121476001611f91565b61074d565b6304cca0bd9061216c5f8693612160610182565b96879586948593610e40565b8352600483016120e9565b03925af190811561222b575f916121fd575b50916121a08361219b60078490610a2b565b610f9d565b60206121ad5f8401612101565b9201516121e36121dd7f6560c8065fe4986dda4c43ccbc1b032190141d40ab39e900c07bd2c4d7ac133993610878565b93611730565b936121f86121ef610182565b9283928361210e565b0390a3565b61221e915060203d8111612224575b6122168183610d58565b810190611f9e565b5f612189565b503d61220c565b610edf565b61223a9051610d1d565b90565b6122479051610c87565b90565b612254905161081e565b90565b6122619051610e15565b90565b61226d90612003565b9052565b61227a9061201c565b9052565b91969593946122ca6122db966122c060a0966122b66122ab6122d49760c08a01908a82035f8c01526118ef565b9c6020890190612264565b6040870190612271565b6060850190610821565b6080830190610e8e565b0190610821565b565b6122e85f8301612101565b9060208301516122fa60408501612230565b9061237661230a6060870161223d565b956123176080820161224a565b9061233060c061232960a08401612257565b920161224a565b9161236461235e7f06c7e3cb82a5460d7ef3dffac991b3f2c91d785f5e8577b5e97359b2708813ed98610878565b98611730565b9861236d610182565b9687968761227e565b0390a3565b61238d9061238761246d565b9061253e565b565b612398906101e1565b90565b90565b906123b36123ae6123ba9261238f565b61239b565b825461119a565b9055565b6123c6610c22565b506123db6123d5828490611779565b156101e1565b5f146124635761240260016123fd5f6123f58186906114db565b01859061173c565b61239e565b9061240b61246d565b9061244861244261243c7f2f8788117e7eff1d82e926ec794901d17c78024a50270940304540a733656f0d95610878565b92611730565b92611730565b92612451610182565b8061245b816103b2565b0390a4600190565b50505f90565b5f90565b612475612469565b503390565b612482610c22565b5061248e818390611779565b5f14612515576124b45f6124af5f6124a78186906114db565b01859061173c565b61239e565b906124bd61246d565b906124fa6124f46124ee7ff6391f5c32d9c69d2a47ea670b442974b53935d1edc7fd64eb21e047a839171b95610878565b92611730565b92611730565b92612503610182565b8061250d816103b2565b0390a4600190565b50505f90565b91602061253c92949361253560408201965f830190610e55565b019061028d565b565b9061255361254d838390611779565b156101e1565b61255b575050565b6125755f92839263e2517d3f60e01b84526004840161251b565b0390fdfea2646970667358221220c13989231180160e9870a9e5f6ebd676d79ed07806d51a05dff560a1dcbc054364736f6c63430008210033","linkReferences":{}},"methodIdentifiers":{"DEFAULT_ADMIN_ROLE()":"a217fddf","OPERATOR_ROLE()":"f5b541a6","cancelOrder(address,bytes32)":"84b2167c","getOrderStatus(bytes32)":"46423aa7","getRoleAdmin(bytes32)":"248a9ca3","grantRole(bytes32,address)":"2f2ff15d","hasRole(bytes32,address)":"91d14854","maxPriceDeviation()":"975b8662","orderToExchangeId(bytes32)":"a06736ac","orders(bytes32)":"9c3f1e90","ostiumAdapter()":"8cd5c840","placeOrder((address,string,uint8,uint8,uint256,uint8,uint256,uint256))":"04cca0bd","priceFeed()":"741bef1a","renounceRole(bytes32,address)":"36568abe","revokeRole(bytes32,address)":"d547741f","riskManager()":"47842663","setMaxPriceDeviation(uint256)":"9ee4c057","setOstiumAdapter(address)":"26ca2072","setPriceFeed(address)":"724e78da","supportsInterface(bytes4)":"01ffc9a7","symbolRegistry()":"9d3e5938","tradingVault()":"f1bd27a8"},"id":58}