{"abi":[{"type":"constructor","inputs":[{"name":"_ostiumContract","type":"address","internalType":"address"},{"name":"_priceFeed","type":"address","internalType":"address"},{"name":"admin","type":"address","internalType":"address"}],"stateMutability":"nonpayable"},{"type":"function","name":"DEFAULT_ADMIN_ROLE","inputs":[],"outputs":[{"name":"","type":"bytes32","internalType":"bytes32"}],"stateMutability":"view"},{"type":"function","name":"ORDER_ROUTER_ROLE","inputs":[],"outputs":[{"name":"","type":"bytes32","internalType":"bytes32"}],"stateMutability":"view"},{"type":"function","name":"cancelOrder","inputs":[{"name":"user","type":"address","internalType":"address"},{"name":"orderId","type":"uint256","internalType":"uint256"}],"outputs":[],"stateMutability":"nonpayable"},{"type":"function","name":"getCurrentPrice","inputs":[{"name":"symbol","type":"string","internalType":"string"}],"outputs":[{"name":"price","type":"uint256","internalType":"uint256"},{"name":"decimals","type":"uint8","internalType":"uint8"}],"stateMutability":"view"},{"type":"function","name":"getRoleAdmin","inputs":[{"name":"role","type":"bytes32","internalType":"bytes32"}],"outputs":[{"name":"","type":"bytes32","internalType":"bytes32"}],"stateMutability":"view"},{"type":"function","name":"grantRole","inputs":[{"name":"role","type":"bytes32","internalType":"bytes32"},{"name":"account","type":"address","internalType":"address"}],"outputs":[],"stateMutability":"nonpayable"},{"type":"function","name":"hasRole","inputs":[{"name":"role","type":"bytes32","internalType":"bytes32"},{"name":"account","type":"address","internalType":"address"}],"outputs":[{"name":"","type":"bool","internalType":"bool"}],"stateMutability":"view"},{"type":"function","name":"maxPriceDeviation","inputs":[],"outputs":[{"name":"","type":"uint256","internalType":"uint256"}],"stateMutability":"view"},{"type":"function","name":"ostiumContract","inputs":[],"outputs":[{"name":"","type":"address","internalType":"address"}],"stateMutability":"view"},{"type":"function","name":"placeOrder","inputs":[{"name":"params","type":"tuple","internalType":"struct OsmoTypes.OrderParams","components":[{"name":"user","type":"address","internalType":"address"},{"name":"symbol","type":"string","internalType":"string"},{"name":"side","type":"uint8","internalType":"enum OsmoTypes.Side"},{"name":"orderType","type":"uint8","internalType":"enum OsmoTypes.OrderType"},{"name":"amountUsd","type":"uint256","internalType":"uint256"},{"name":"leverage","type":"uint8","internalType":"uint8"},{"name":"price","type":"uint256","internalType":"uint256"},{"name":"stopPrice","type":"uint256","internalType":"uint256"}]}],"outputs":[{"name":"ostiumOrderId","type":"uint256","internalType":"uint256"}],"stateMutability":"nonpayable"},{"type":"function","name":"priceFeed","inputs":[],"outputs":[{"name":"","type":"address","internalType":"contract ChainlinkPriceFeed"}],"stateMutability":"view"},{"type":"function","name":"renounceRole","inputs":[{"name":"role","type":"bytes32","internalType":"bytes32"},{"name":"callerConfirmation","type":"address","internalType":"address"}],"outputs":[],"stateMutability":"nonpayable"},{"type":"function","name":"revokeRole","inputs":[{"name":"role","type":"bytes32","internalType":"bytes32"},{"name":"account","type":"address","internalType":"address"}],"outputs":[],"stateMutability":"nonpayable"},{"type":"function","name":"setMaxPriceDeviation","inputs":[{"name":"newDeviation","type":"uint256","internalType":"uint256"}],"outputs":[],"stateMutability":"nonpayable"},{"type":"function","name":"setOstiumContract","inputs":[{"name":"newAddress","type":"address","internalType":"address"}],"outputs":[],"stateMutability":"nonpayable"},{"type":"function","name":"setPriceFeed","inputs":[{"name":"newPriceFeed","type":"address","internalType":"address"}],"outputs":[],"stateMutability":"nonpayable"},{"type":"function","name":"supportsInterface","inputs":[{"name":"interfaceId","type":"bytes4","internalType":"bytes4"}],"outputs":[{"name":"","type":"bool","internalType":"bool"}],"stateMutability":"view"},{"type":"event","name":"OstiumOrderCancelled","inputs":[{"name":"user","type":"address","indexed":true,"internalType":"address"},{"name":"orderId","type":"uint256","indexed":true,"internalType":"uint256"}],"anonymous":false},{"type":"event","name":"OstiumOrderPlaced","inputs":[{"name":"user","type":"address","indexed":true,"internalType":"address"},{"name":"ostiumOrderId","type":"uint256","indexed":true,"internalType":"uint256"},{"name":"symbol","type":"string","indexed":false,"internalType":"string"},{"name":"amountUsd","type":"uint256","indexed":false,"internalType":"uint256"},{"name":"executionPrice","type":"uint256","indexed":false,"internalType":"uint256"}],"anonymous":false},{"type":"event","name":"PriceFeedUpdated","inputs":[{"name":"oldFeed","type":"address","indexed":false,"internalType":"address"},{"name":"newFeed","type":"address","indexed":false,"internalType":"address"}],"anonymous":false},{"type":"event","name":"RoleAdminChanged","inputs":[{"name":"role","type":"bytes32","indexed":true,"internalType":"bytes32"},{"name":"previousAdminRole","type":"bytes32","indexed":true,"internalType":"bytes32"},{"name":"newAdminRole","type":"bytes32","indexed":true,"internalType":"bytes32"}],"anonymous":false},{"type":"event","name":"RoleGranted","inputs":[{"name":"role","type":"bytes32","indexed":true,"internalType":"bytes32"},{"name":"account","type":"address","indexed":true,"internalType":"address"},{"name":"sender","type":"address","indexed":true,"internalType":"address"}],"anonymous":false},{"type":"event","name":"RoleRevoked","inputs":[{"name":"role","type":"bytes32","indexed":true,"internalType":"bytes32"},{"name":"account","type":"address","indexed":true,"internalType":"address"},{"name":"sender","type":"address","indexed":true,"internalType":"address"}],"anonymous":false},{"type":"error","name":"AccessControlBadConfirmation","inputs":[]},{"type":"error","name":"AccessControlUnauthorizedAccount","inputs":[{"name":"account","type":"address","internalType":"address"},{"name":"neededRole","type":"bytes32","internalType":"bytes32"}]}],"bytecode":{"object":"0x6080604052346100305761001a610014610111565b916102be565b610022610035565b61144c6104b4823961144c90f35b61003b565b60405190565b5f80fd5b601f801991011690565b634e487b7160e01b5f52604160045260245ffd5b906100679061003f565b810190811060018060401b0382111761007f57604052565b610049565b90610097610090610035565b928361005d565b565b5f80fd5b60018060a01b031690565b6100b19061009d565b90565b6100bd816100a8565b036100c457565b5f80fd5b905051906100d5826100b4565b565b909160608284031261010c576101096100f2845f85016100c8565b9361010081602086016100c8565b936040016100c8565b90565b610099565b61012f6119008038038061012481610084565b9283398101906100d7565b909192565b5f1b90565b9061014a60018060a01b0391610134565b9181191691161790565b90565b61016b6101666101709261009d565b610154565b61009d565b90565b61017c90610157565b90565b61018890610173565b90565b90565b906101a361019e6101aa9261017f565b61018b565b8254610139565b9055565b6101b790610157565b90565b6101c3906101ae565b90565b6101cf906101ae565b90565b90565b906101ea6101e56101f1926101c6565b6101d2565b8254610139565b9055565b90565b90565b61020f61020a610214926101f5565b610154565b6101f8565b90565b906102235f1991610134565b9181191691161790565b61024161023c610246926101f8565b610154565b6101f8565b90565b90565b9061026161025c6102689261022d565b610249565b8254610217565b9055565b90565b90565b61028661028161028b9261026c565b610134565b61026f565b90565b6102975f610272565b90565b7fb350f660a06ece1f116b96dec924c715d62a3346ae845dd2f736149f033c5fd890565b6102d961031493926102d46102e093600161018e565b6101ba565b60026101d5565b6102f46102ed60646101fb565b600461024c565b6103066102ff61028e565b82906103a2565b5061030f61029a565b6103a2565b50565b5f90565b151590565b6103299061026f565b90565b9061033690610320565b5f5260205260405f2090565b9061034c9061017f565b5f5260205260405f2090565b9061036460ff91610134565b9181191691161790565b6103779061031b565b90565b90565b9061039261038d6103999261036e565b61037a565b8254610358565b9055565b5f0190565b6103aa610317565b506103bf6103b9828490610479565b1561031b565b5f14610447576103e660016103e15f6103d981869061032c565b018590610342565b61037d565b906103ef6104a6565b9061042c6104266104207f2f8788117e7eff1d82e926ec794901d17c78024a50270940304540a733656f0d95610320565b9261017f565b9261017f565b92610435610035565b8061043f8161039d565b0390a4600190565b50505f90565b5f1c90565b60ff1690565b6104646104699161044d565b610452565b90565b6104769054610458565b90565b61049f915f61049461049a9361048d610317565b508261032c565b01610342565b61046c565b90565b5f90565b6104ae6104a2565b50339056fe60806040526004361015610013575b610a0b565b61001d5f3561012c565b806301ffc9a71461012757806304490d901461012257806304cca0bd1461011d578063248a9ca3146101185780632f2ff15d1461011357806336568abe1461010e57806342a0f243146101095780636a20613714610104578063724e78da146100ff578063741bef1a146100fa57806391d14854146100f5578063975b8662146100f05780639ee4c057146100eb578063a217fddf146100e6578063d547741f146100e1578063d92dadda146100dc5763e246d8c40361000e576109d6565b610972565b6108dc565b6108a7565b610839565b6107e6565b610778565b610743565b610664565b610630565b6105aa565b610420565b6103ec565b61038a565b6102ef565b61024a565b6101b8565b60e01c90565b60405190565b5f80fd5b5f80fd5b5f80fd5b63ffffffff60e01b1690565b61015981610144565b0361016057565b5f80fd5b9050359061017182610150565b565b9060208282031261018c57610189915f01610164565b90565b61013c565b151590565b61019f90610191565b9052565b91906101b6905f60208501940190610196565b565b346101e8576101e46101d36101ce366004610173565b610a13565b6101db610132565b918291826101a3565b0390f35b610138565b60018060a01b031690565b610201906101ed565b90565b61020d816101f8565b0361021457565b5f80fd5b9050359061022582610204565b565b906020828203126102405761023d915f01610218565b90565b61013c565b5f0190565b346102785761026261025d366004610227565b610ac5565b61026a610132565b8061027481610245565b0390f35b610138565b5f80fd5b90816101009103126102905790565b61027d565b906020828203126102c5575f82013567ffffffffffffffff81116102c0576102bd9201610281565b90565b610140565b61013c565b90565b6102d6906102ca565b9052565b91906102ed905f602085019401906102cd565b565b3461031f5761031b61030a610305366004610295565b610d0d565b610312610132565b918291826102da565b0390f35b610138565b90565b61033081610324565b0361033757565b5f80fd5b9050359061034882610327565b565b9060208282031261036357610360915f0161033b565b90565b61013c565b61037190610324565b9052565b9190610388905f60208501940190610368565b565b346103ba576103b66103a56103a036600461034a565b610d6b565b6103ad610132565b91829182610375565b0390f35b610138565b91906040838203126103e757806103db6103e4925f860161033b565b93602001610218565b90565b61013c565b3461041b576104056103ff3660046103bf565b90610db6565b61040d610132565b8061041781610245565b0390f35b610138565b3461044f576104396104333660046103bf565b90610dc2565b610441610132565b8061044b81610245565b0390f35b610138565b5f80fd5b5f80fd5b601f801991011690565b634e487b7160e01b5f52604160045260245ffd5b906104849061045c565b810190811067ffffffffffffffff82111761049e57604052565b610466565b906104b66104af610132565b928361047a565b565b67ffffffffffffffff81116104d6576104d260209161045c565b0190565b610466565b90825f939282370152565b909291926104fb6104f6826104b8565b6104a3565b9381855260208501908284011161051757610515926104db565b565b610458565b9080601f8301121561053a57816020610537933591016104e6565b90565b610454565b9060208282031261056f575f82013567ffffffffffffffff811161056a57610567920161051c565b90565b610140565b61013c565b60ff1690565b61058390610574565b9052565b9160206105a89294936105a160408201965f8301906102cd565b019061057a565b565b346105db576105c26105bd36600461053f565b610f09565b906105d76105ce610132565b92839283610587565b0390f35b610138565b6105e9816102ca565b036105f057565b5f80fd5b90503590610601826105e0565b565b919060408382031261062b578061061f610628925f8601610218565b936020016105f4565b90565b61013c565b3461065f57610649610643366004610603565b90611010565b610651610132565b8061065b81610245565b0390f35b610138565b346106925761067c610677366004610227565b611102565b610684610132565b8061068e81610245565b0390f35b610138565b5f9103126106a157565b61013c565b1c90565b60018060a01b031690565b6106c59060086106ca93026106a6565b6106aa565b90565b906106d891546106b5565b90565b6106e760025f906106cd565b90565b90565b6107016106fc610706926101ed565b6106ea565b6101ed565b90565b610712906106ed565b90565b61071e90610709565b90565b61072a90610715565b9052565b9190610741905f60208501940190610721565b565b3461077357610753366004610697565b61076f61075e6106db565b610766610132565b9182918261072e565b0390f35b610138565b346107a9576107a561079461078e3660046103bf565b9061114a565b61079c610132565b918291826101a3565b0390f35b610138565b90565b6107c19060086107c693026106a6565b6107ae565b90565b906107d491546107b1565b90565b6107e360045f906107c9565b90565b34610816576107f6366004610697565b6108126108016107d7565b610809610132565b918291826102da565b0390f35b610138565b9060208282031261083457610831915f016105f4565b90565b61013c565b346108675761085161084c36600461081b565b61119b565b610859610132565b8061086381610245565b0390f35b610138565b90565b5f1b90565b61088861088361088d9261086c565b61086f565b610324565b90565b6108995f610874565b90565b6108a4610890565b90565b346108d7576108b7366004610697565b6108d36108c261089c565b6108ca610132565b91829182610375565b0390f35b610138565b3461090b576108f56108ef3660046103bf565b906111d0565b6108fd610132565b8061090781610245565b0390f35b610138565b60018060a01b031690565b61092b90600861093093026106a6565b610910565b90565b9061093e915461091b565b90565b61094d60015f90610933565b90565b610959906101f8565b9052565b9190610970905f60208501940190610950565b565b346109a257610982366004610697565b61099e61098d610941565b610995610132565b9182918261095d565b0390f35b610138565b7fb350f660a06ece1f116b96dec924c715d62a3346ae845dd2f736149f033c5fd890565b6109d36109a7565b90565b34610a06576109e6366004610697565b610a026109f16109cb565b6109f9610132565b91829182610375565b0390f35b610138565b5f80fd5b5f90565b610a1b610a0f565b5080610a36610a30637965db0b60e01b610144565b91610144565b14908115610a43575b5090565b610a4d91506111dc565b5f610a3f565b610a6c90610a67610a62610890565b611202565b610ab8565b565b90610a7f60018060a01b039161086f565b9181191691161790565b610a9290610709565b90565b90565b90610aad610aa8610ab492610a89565b610a95565b8254610a6e565b9055565b610ac3906001610a98565b565b610ace90610a53565b565b5f90565b90610aee91610ae9610ae46109a7565b611202565b610c6a565b90565b5f1c90565b610b02610b0791610af1565b6107ae565b90565b610b149054610af6565b90565b634e487b7160e01b5f52601160045260245ffd5b610b34906102ca565b5f198114610b425760010190565b610b17565b90610b535f199161086f565b9181191691161790565b610b71610b6c610b76926102ca565b6106ea565b6102ca565b90565b90565b90610b91610b8c610b9892610b5d565b610b79565b8254610b47565b9055565b35610ba681610204565b90565b5f80fd5b5f80fd5b5f80fd5b903590600160200381360303821215610bf7570180359067ffffffffffffffff8211610bf257602001916001820236038313610bed57565b610bb1565b610bad565b610ba9565b35610c06816105e0565b90565b60209181520190565b9190610c2c81610c2581610c3195610c09565b80956104db565b61045c565b0190565b610c61610c56604093610c689698979560608501918583035f870152610c12565b9660208301906102cd565b01906102cd565b565b91909150610c80610c7b6003610b0a565b610b2b565b610c8b816003610b7c565b91610c975f8201610b9c565b8390610ca7836020810190610bb5565b90610d08610cc360c0610cbc60808901610bfc565b9701610bfc565b610cf6610cf07fc95bf0c0b8158d5f7b70dc757989db070ba7156f826ccd02aed6f7176c3c66bb96610a89565b96610b5d565b96610cff610132565b94859485610c35565b0390a3565b610d1e90610d19610ad0565b610ad4565b90565b5f90565b610d2e90610324565b90565b90610d3b90610d25565b5f5260205260405f2090565b90565b610d56610d5b91610af1565b610d47565b90565b610d689054610d4a565b90565b6001610d83610d8992610d7c610d21565b505f610d31565b01610d5e565b90565b90610da791610da2610d9d82610d6b565b611202565b610da9565b565b90610db39161125b565b50565b90610dc091610d8c565b565b9080610ddd610dd7610dd261130a565b6101f8565b916101f8565b03610dee57610deb91611317565b50565b5f63334bd91960e11b815280610e0660048201610245565b0390fd5b5f90565b610e1a610e1f91610af1565b6106aa565b90565b610e2c9054610e0e565b90565b60e01b90565b90505190610e42826105e0565b565b610e4d81610574565b03610e5457565b5f80fd5b90505190610e6582610e44565b565b9091606082840312610e9c57610e99610e82845f8501610e35565b93610e908160208601610e58565b93604001610e35565b90565b61013c565b5190565b90825f9392825e0152565b610ecf610ed8602093610edd93610ec681610ea1565b93848093610c09565b95869101610ea5565b61045c565b0190565b610ef69160208201915f818403910152610eb0565b90565b610f01610132565b3d5f823e3d90fd5b6060610f5a91610f17610ad0565b50610f20610e0a565b50610f33610f2e6002610e22565b610715565b610f4f63f66a1b71610f43610132565b95869485938493610e2f565b835260048301610ee1565b03915afa908115610fa3575f80919092610f74575b509091565b9050610f97915060603d8111610f9c575b610f8f818361047a565b810190610e67565b610f6f565b503d610f85565b610ef9565b90610fc291610fbd610fb86109a7565b611202565b610fc4565b565b90610ff8610ff27fc6d8552d95be5780868d7f153ba14011a66b25a7a0837edfd51cabfa430e4bf793610a89565b91610b5d565b91611001610132565b8061100b81610245565b0390a3565b9061101a91610fa8565b565b6110359061103061102b610890565b611202565b6110a1565b565b611040906106ed565b90565b61104c90611037565b90565b61105890611037565b90565b90565b9061107361106e61107a9261104f565b61105b565b8254610a6e565b9055565b91602061109f92949361109860408201965f830190610950565b0190610950565b565b6110b36110ae6002610e22565b610715565b6110c66110bf83611043565b600261105e565b907fa8abe0398416476db5b05737cd4da3b3cbde5012d978a6a6c3fd49d321753536916110fd6110f4610132565b9283928361107e565b0390a1565b61110b9061101c565b565b9061111790610a89565b5f5260205260405f2090565b60ff1690565b61113561113a91610af1565b611123565b90565b6111479054611129565b90565b611170915f61116561116b9361115e610a0f565b5082610d31565b0161110d565b61113d565b90565b61118c90611187611182610890565b611202565b61118e565b565b611199906004610b7c565b565b6111a490611173565b565b906111c1916111bc6111b782610d6b565b611202565b6111c3565b565b906111cd91611317565b50565b906111da916111a6565b565b6111e4610a0f565b506111fe6111f86301ffc9a760e01b610144565b91610144565b1490565b6112149061120e61130a565b906113db565b565b9061122260ff9161086f565b9181191691161790565b61123590610191565b90565b90565b9061125061124b6112579261122c565b611238565b8254611216565b9055565b611263610a0f565b5061127861127282849061114a565b15610191565b5f146113005761129f600161129a5f611292818690610d31565b01859061110d565b61123b565b906112a861130a565b906112e56112df6112d97f2f8788117e7eff1d82e926ec794901d17c78024a50270940304540a733656f0d95610d25565b92610a89565b92610a89565b926112ee610132565b806112f881610245565b0390a4600190565b50505f90565b5f90565b611312611306565b503390565b61131f610a0f565b5061132b81839061114a565b5f146113b2576113515f61134c5f611344818690610d31565b01859061110d565b61123b565b9061135a61130a565b9061139761139161138b7ff6391f5c32d9c69d2a47ea670b442974b53935d1edc7fd64eb21e047a839171b95610d25565b92610a89565b92610a89565b926113a0610132565b806113aa81610245565b0390a4600190565b50505f90565b9160206113d99294936113d260408201965f830190610950565b0190610368565b565b906113f06113ea83839061114a565b15610191565b6113f8575050565b6114125f92839263e2517d3f60e01b8452600484016113b8565b0390fdfea264697066735822122039bfd35132e79f20fff518638122b7378f56ce296b60a9021a687352d331480864736f6c63430008210033","linkReferences":{}},"methodIdentifiers":{"DEFAULT_ADMIN_ROLE()":"a217fddf","ORDER_ROUTER_ROLE()":"e246d8c4","cancelOrder(address,uint256)":"6a206137","getCurrentPrice(string)":"42a0f243","getRoleAdmin(bytes32)":"248a9ca3","grantRole(bytes32,address)":"2f2ff15d","hasRole(bytes32,address)":"91d14854","maxPriceDeviation()":"975b8662","ostiumContract()":"d92dadda","placeOrder((address,string,uint8,uint8,uint256,uint8,uint256,uint256))":"04cca0bd","priceFeed()":"741bef1a","renounceRole(bytes32,address)":"36568abe","revokeRole(bytes32,address)":"d547741f","setMaxPriceDeviation(uint256)":"9ee4c057","setOstiumContract(address)":"04490d90","setPriceFeed(address)":"724e78da","supportsInterface(bytes4)":"01ffc9a7"},"id":60}