{"abi":[{"type":"function","name":"createSessionKey","inputs":[{"name":"user","type":"address","internalType":"address"},{"name":"agentPubkey","type":"bytes","internalType":"bytes"},{"name":"durationSeconds","type":"uint256","internalType":"uint256"},{"name":"dailyLimitUsd","type":"uint256","internalType":"uint256"}],"outputs":[{"name":"sessionId","type":"bytes32","internalType":"bytes32"}],"stateMutability":"nonpayable"},{"type":"function","name":"getSession","inputs":[{"name":"sessionId","type":"bytes32","internalType":"bytes32"}],"outputs":[{"name":"user","type":"address","internalType":"address"},{"name":"expiryTimestamp","type":"uint256","internalType":"uint256"},{"name":"isActive","type":"bool","internalType":"bool"}],"stateMutability":"view"},{"type":"function","name":"renewSession","inputs":[{"name":"user","type":"address","internalType":"address"},{"name":"sessionId","type":"bytes32","internalType":"bytes32"},{"name":"extendDuration","type":"uint256","internalType":"uint256"}],"outputs":[],"stateMutability":"nonpayable"},{"type":"function","name":"revokeSession","inputs":[{"name":"user","type":"address","internalType":"address"},{"name":"sessionId","type":"bytes32","internalType":"bytes32"}],"outputs":[],"stateMutability":"nonpayable"},{"type":"function","name":"sessions","inputs":[{"name":"","type":"bytes32","internalType":"bytes32"}],"outputs":[{"name":"user","type":"address","internalType":"address"},{"name":"agentPubkey","type":"bytes","internalType":"bytes"},{"name":"expiryTimestamp","type":"uint256","internalType":"uint256"},{"name":"dailyLimitUsd","type":"uint256","internalType":"uint256"},{"name":"dailyUsedUsd","type":"uint256","internalType":"uint256"},{"name":"lastResetDay","type":"uint256","internalType":"uint256"},{"name":"isActive","type":"bool","internalType":"bool"},{"name":"autoRenewable","type":"bool","internalType":"bool"}],"stateMutability":"view"},{"type":"function","name":"updateDailySpending","inputs":[{"name":"sessionId","type":"bytes32","internalType":"bytes32"},{"name":"amountUsd","type":"uint256","internalType":"uint256"}],"outputs":[],"stateMutability":"nonpayable"},{"type":"function","name":"validateSession","inputs":[{"name":"sessionId","type":"bytes32","internalType":"bytes32"},{"name":"signature","type":"bytes","internalType":"bytes"}],"outputs":[{"name":"","type":"bool","internalType":"bool"}],"stateMutability":"view"},{"type":"event","name":"SessionCreated","inputs":[{"name":"sessionId","type":"bytes32","indexed":true,"internalType":"bytes32"},{"name":"user","type":"address","indexed":true,"internalType":"address"},{"name":"expiryTimestamp","type":"uint256","indexed":false,"internalType":"uint256"}],"anonymous":false},{"type":"event","name":"SessionRenewed","inputs":[{"name":"sessionId","type":"bytes32","indexed":true,"internalType":"bytes32"},{"name":"newExpiry","type":"uint256","indexed":false,"internalType":"uint256"}],"anonymous":false},{"type":"event","name":"SessionRevoked","inputs":[{"name":"sessionId","type":"bytes32","indexed":true,"internalType":"bytes32"}],"anonymous":false},{"type":"error","name":"ECDSAInvalidSignature","inputs":[]},{"type":"error","name":"ECDSAInvalidSignatureLength","inputs":[{"name":"length","type":"uint256","internalType":"uint256"}]},{"type":"error","name":"ECDSAInvalidSignatureS","inputs":[{"name":"s","type":"bytes32","internalType":"bytes32"}]},{"type":"error","name":"SessionDailyLimitExceeded","inputs":[]},{"type":"error","name":"SessionInactive","inputs":[]},{"type":"error","name":"Unauthorized","inputs":[]}],"bytecode":{"object":"0x608060405234601c57600e6020565b61199a61002b823961199a90f35b6026565b60405190565b5f80fdfe60806040526004361015610013575b61083a565b61001d5f3561008c565b806312ec1a5b1461008757806339b240bd146100825780637935229f1461007d5780637dbd2832146100785780639c96a8a014610073578063c81bea1d1461006e5763d7d617d50361000e57610806565b610798565b610735565b61069b565b610318565b6102ae565b6101d6565b60e01c90565b60405190565b5f80fd5b5f80fd5b5f80fd5b60018060a01b031690565b6100b8906100a4565b90565b6100c4816100af565b036100cb57565b5f80fd5b905035906100dc826100bb565b565b5f80fd5b5f80fd5b5f80fd5b909182601f830112156101245781359167ffffffffffffffff831161011f57602001926001830284011161011a57565b6100e6565b6100e2565b6100de565b90565b61013581610129565b0361013c57565b5f80fd5b9050359061014d8261012c565b565b916080838303126101ac57610166825f85016100cf565b9260208101359167ffffffffffffffff83116101a75761018b846101a49484016100ea565b93909461019b8160408601610140565b93606001610140565b90565b6100a0565b61009c565b90565b6101bd906101b1565b9052565b91906101d4905f602085019401906101b4565b565b3461020a576102066101f56101ec36600461014f565b93929092610efc565b6101fd610092565b918291826101c1565b0390f35b610098565b610218816101b1565b0361021f57565b5f80fd5b905035906102308261020f565b565b9060208282031261024b57610248915f01610223565b90565b61009c565b610259906100af565b9052565b61026690610129565b9052565b151590565b6102789061026a565b9052565b6040906102a56102ac949695939661029b60608401985f850190610250565b602083019061025d565b019061026f565b565b346102e1576102dd6102c96102c4366004610232565b611103565b6102d4939193610092565b9384938461027c565b0390f35b610098565b919060408382031261030e578061030261030b925f8601610223565b93602001610140565b90565b61009c565b5f0190565b346103475761033161032b3660046102e6565b9061115b565b610339610092565b8061034381610313565b0390f35b610098565b610355906101b1565b90565b906103629061034c565b5f5260205260405f2090565b5f1c90565b60018060a01b031690565b61038a61038f9161036e565b610373565b90565b61039c905461037e565b90565b634e487b7160e01b5f52602260045260245ffd5b90600160028304921680156103d3575b60208310146103ce57565b61039f565b91607f16916103c3565b60209181520190565b5f5260205f2090565b905f9291805490610409610402836103b3565b80946103dd565b916001811690815f146104605750600114610424575b505050565b61043191929394506103e6565b915f925b81841061044857505001905f808061041f565b60018160209295939554848601520191019290610435565b92949550505060ff19168252151560200201905f808061041f565b90610485916103ef565b90565b601f801991011690565b634e487b7160e01b5f52604160045260245ffd5b906104b090610488565b810190811067ffffffffffffffff8211176104ca57604052565b610492565b906104ef6104e8926104df610092565b9384809261047b565b03836104a6565b565b90565b6105006105059161036e565b6104f1565b90565b61051290546104f4565b90565b60ff1690565b61052761052c9161036e565b610515565b90565b610539905461051b565b90565b60081c90565b61054e6105539161053c565b610515565b90565b6105609054610542565b90565b61056d905f610358565b906105795f8301610392565b91610586600182016104cf565b9161059360028301610508565b916105a060038201610508565b916105ad60048301610508565b916105ba60058201610508565b916105d260066105cb81850161052f565b9301610556565b90565b5190565b60209181520190565b90825f9392825e0152565b61060c61061560209361061a93610603816105d5565b938480936105d9565b958691016105e2565b610488565b0190565b939561067e60e096610674610692969c9b9961066a61065f8a6106999e996106516106889a5f6101008501940190610250565b8c60208184039101526105ed565b9e60408b019061025d565b606089019061025d565b608087019061025d565b60a085019061025d565b60c083019061026f565b019061026f565b565b346106d5576106d16106b66106b1366004610232565b610563565b946106c8989698949194939293610092565b9889988961061e565b0390f35b610098565b91909160408184031261071b576106f3835f8301610223565b92602082013567ffffffffffffffff81116107165761071292016100ea565b9091565b6100a0565b61009c565b9190610733905f6020850194019061026f565b565b346107665761076261075161074b3660046106da565b916112a3565b610759610092565b91829182610720565b0390f35b610098565b91906040838203126107935780610787610790925f86016100cf565b93602001610223565b90565b61009c565b346107c7576107b16107ab36600461076b565b90611382565b6107b9610092565b806107c381610313565b0390f35b610098565b9091606082840312610801576107fe6107e7845f85016100cf565b936107f58160208601610223565b93604001610140565b90565b61009c565b346108355761081f6108193660046107cc565b91611456565b610827610092565b8061083181610313565b0390f35b610098565b5f80fd5b5f90565b90565b90565b61085c61085761086192610842565b610845565b6100a4565b90565b61086d90610848565b90565b61088461087f61088992610842565b610845565b610129565b90565b90565b6108a361089e6108a89261088c565b610845565b610129565b90565b634e487b7160e01b5f52601160045260245ffd5b6108c890610129565b5f1981146108d65760010190565b6108ab565b5f1b90565b906108ec5f19916108db565b9181191691161790565b61090a61090561090f92610129565b610845565b610129565b90565b90565b9061092a610925610931926108f6565b610912565b82546108e0565b9055565b60601b90565b61094490610935565b90565b6109509061093b565b90565b61095f610964916100af565b610947565b9052565b905090565b90825f939282370152565b9091826109888161098f93610968565b809361096d565b0190565b90565b6109a26109a791610129565b610993565b9052565b6109d06020969592936109df956014846109c96109d7968c99610953565b0191610978565b8092610996565b018092610996565b0190565b60200190565b6109f86109fe91939293610129565b92610129565b8201809211610a0957565b6108ab565b634e487b7160e01b5f52601260045260245ffd5b610a2e610a3491610129565b91610129565b908115610a3f570490565b610a0e565b90610a57610a50610092565b92836104a6565b565b610a64610100610a44565b90565b90610a71906100af565b9052565b5f80fd5b67ffffffffffffffff8111610a9757610a93602091610488565b0190565b610492565b90929192610ab1610aac82610a79565b610a44565b93818552602085019082840111610acd57610acb9261096d565b565b610a75565b610add913691610a9c565b90565b52565b90610aed90610129565b9052565b90610afb9061026a565b9052565b610b0990516100af565b90565b90610b1d60018060a01b03916108db565b9181191691161790565b610b3b610b36610b40926100a4565b610845565b6100a4565b90565b610b4c90610b27565b90565b610b5890610b43565b90565b90565b90610b73610b6e610b7a92610b4f565b610b5b565b8254610b0c565b9055565b5190565b601f602091010490565b1b90565b91906008610bab910291610ba55f1984610b8c565b92610b8c565b9181191691161790565b9190610bcb610bc6610bd3936108f6565b610912565b908354610b90565b9055565b5f90565b610bed91610be7610bd7565b91610bb5565b565b5f5b828110610bfd57505050565b80610c0c5f6001938501610bdb565b01610bf1565b9190601f8111610c22575b505050565b818111610c2f575b610c1d565b610c44610c3e610c62946103e6565b91610b82565b916020610c5082610b82565b9110610c6a575b809101910390610bef565b5f8080610c2a565b505f610c57565b1c90565b90610c85905f1990600802610c71565b191690565b81610c9491610c75565b906002021790565b90610ca6816105d5565b9067ffffffffffffffff8211610d6657610cca82610cc485546103b3565b85610c12565b602090601f8311600114610cfe57918091610ced935f92610cf2575b5050610c8a565b90555b565b90915001515f80610ce6565b601f19831691610d0d856103e6565b925f5b818110610d4e57509160029391856001969410610d34575b50505002019055610cf0565b610d44910151601f841690610c75565b90555f8080610d28565b91936020600181928787015181550195019201610d10565b610492565b90610d7591610c9c565b565b610d819051610129565b90565b610d8e905161026a565b90565b90610d9d60ff916108db565b9181191691161790565b610db09061026a565b90565b90565b90610dcb610dc6610dd292610da7565b610db3565b8254610d91565b9055565b60081b90565b90610de961ff0091610dd6565b9181191691161790565b90610e08610e03610e0f92610da7565b610db3565b8254610ddc565b9055565b90610ed360e06006610ed994610e365f8201610e305f8801610aff565b90610b5e565b610e4f60018201610e4960208801610b7e565b90610d6b565b610e6860028201610e6260408801610d77565b90610915565b610e8160038201610e7b60608801610d77565b90610915565b610e9a60048201610e9460808801610d77565b90610915565b610eb360058201610ead60a08801610d77565b90610915565b610ecb828201610ec560c08801610d84565b90610db6565b019201610d84565b90610df3565b565b90610ee591610e13565b565b9190610efa905f6020850194019061025d565b565b929493610f0761083e565b5083610f23610f1d610f185f610864565b6100af565b916100af565b146110dd5785610f3b610f355f610870565b91610129565b146110c9575b83828491610f4f6001610508565b610f58816108bf565b610f63906001610915565b4290610f6d610092565b9485946020860194610f7e956109ab565b602082018103825203610f9190826104a6565b610f9a816105d5565b90610fa4906109e3565b20954290610fb1916109e9565b928492909184905f904262015180610fc89061088f565b610fd191610a22565b92600194600196610fe0610a59565b985f8a0190610fee91610a67565b610ff791610ad2565b602088019061100591610ae0565b604087019061101391610ae3565b606086019061102191610ae3565b61102a90610870565b608085019061103891610ae3565b60a084019061104691610ae3565b60c083019061105491610af1565b60e082019061106291610af1565b5f8561106d91610358565b9061107791610edb565b839190917f12212fc639e7368fbfdeb5ffb8ab971f9fe1d8736a5aee1b07fea216ab776293906110a69061034c565b916110b090610b4f565b926110b9610092565b6110c4819282610ee7565b0390a3565b94506110d76201518061088f565b94610f41565b5f6282b42960e81b8152806110f460048201610313565b0390fd5b5f90565b5f90565b90565b61112b611130916111126110f8565b5061111b610bd7565b506111246110fc565b505f610358565b611100565b9061113c5f8301610392565b90611155600661114e60028601610508565b940161052f565b91929190565b61116861116d915f610358565b611100565b61118261117c6006830161052f565b1561026a565b61125f5761119c426111966201518061088f565b90610a22565b806111ba6111b46111af60058601610508565b610129565b91610129565b11611237575b506111d76111d060048301610508565b83906109e9565b6111f46111ee6111e960038501610508565b610129565b91610129565b1161121b5761121360046112199392019161120e83610508565b6109e9565b90610915565b565b5f63183e1fdd60e01b81528061123360048201610313565b0390fd5b611259906112506112475f610870565b60048501610915565b60058301610915565b5f6111c0565b5f63f9be14df60e01b81528061127760048201610313565b0390fd5b90565b61128a61128f916101b1565b61127b565b9052565b61129f8160209361127e565b0190565b6112ab6110fc565b506112bf6112ba5f8390610358565b611100565b6112d46112ce6006830161052f565b1561026a565b61137a5760026112e49101610508565b6112f66112f042610129565b91610129565b1115611373576113549261134861132161133061134e94611315610092565b92839160208301611293565b602082018103825203826104a6565b61134261133c826105d5565b916109e3565b20611578565b92610ad2565b906115ae565b61136e6113686113635f610864565b6100af565b916100af565b141590565b5050505f90565b505050505f90565b6113956113905f8490610358565b611100565b90336113a96113a3836100af565b916100af565b0361143b576113cb6113c56113bf5f8501610392565b926100af565b916100af565b03611420576113de9060065f9101610db6565b6114087fcc0f7e7f309149dce2db74723f771f7d96cad368d91763e945dc3956c4dbfb049161034c565b90611411610092565b8061141b81610313565b0390a2565b5f6282b42960e81b81528061143760048201610313565b0390fd5b5f6282b42960e81b81528061145260048201610313565b0390fd5b9161146a6114655f8490610358565b611100565b9261148861148261147c5f8701610392565b926100af565b916100af565b0361155d576114a261149c6006850161052f565b1561026a565b61154157806114b96114b35f610870565b91610129565b14611526575b6114d76114e2916114d260028601610508565b6109e9565b926002849101610915565b61152161150f7f44eec0a39629fcfee16ef2d3c2c4e584d1df3485668d3ff06ffd2febf4746e769261034c565b92611518610092565b91829182610ee7565b0390a2565b506114e26114d76115396201518061088f565b9150506114bf565b5f63f9be14df60e01b81528061155960048201610313565b0390fd5b5f6282b42960e81b81528061157460048201610313565b0390fd5b61158061083e565b507f19457468657265756d205369676e6564204d6573736167653a0a3332000000005f52601c52603c5f2090565b6115cd916115c4916115be6110f8565b50611613565b909291926116fb565b90565b5f90565b90565b6115eb6115e66115f0926115d4565b610845565b610129565b90565b61160761160261160c92610129565b6108db565b6101b1565b90565b5f90565b91909161161e6110f8565b506116276115d0565b5061163061083e565b5061163a836105d5565b61164d61164760416115d7565b91610129565b145f146116945761168d919261166161083e565b5061166a61083e565b5061167361160f565b506020810151606060408301519201515f1a909192611868565b9192909190565b5061169e5f610864565b906116b26116ad6002946105d5565b6115f3565b91929190565b634e487b7160e01b5f52602160045260245ffd5b600411156116d657565b6116b8565b906116e5826116cc565b565b6116f36116f89161036e565b6108f6565b90565b8061170e6117085f6116db565b916116db565b145f14611719575050565b8061172d61172760016116db565b916116db565b145f14611750575f63f645eedf60e01b81528061174c60048201610313565b0390fd5b8061176461175e60026116db565b916116db565b145f146117925761178e611777836116e7565b5f91829163fce698f760e01b835260048301610ee7565b0390fd5b6117a561179f60036116db565b916116db565b146117ad5750565b6117c8905f9182916335e2f38360e21b8352600483016101c1565b0390fd5b90565b6117e36117de6117e8926117cc565b610845565b610129565b90565b60ff1690565b6117fa906117eb565b9052565b61183361183a9461182960609498979561181f608086019a5f8701906101b4565b60208501906117f1565b60408301906101b4565b01906101b4565b565b611844610092565b3d5f823e3d90fd5b61186061185b61186592610842565b6108db565b6101b1565b90565b9392936118736110f8565b5061187c6115d0565b5061188561083e565b5061188f856116e7565b6118c16118bb7f7fffffffffffffffffffffffffffffff5d576e7357a4501ddfe92f46681b20a06117cf565b91610129565b1161194e57906118e4602094955f949392936118db610092565b948594856117fe565b838052039060015afa15611949576118fc5f516108db565b8061191761191161190c5f610864565b6100af565b916100af565b1461192d575f916119275f61184c565b91929190565b506119375f610864565b6001916119435f61184c565b91929190565b61183c565b50505061195a5f610864565b906003929192919056fea2646970667358221220aa67c8094a083c31eabccbf95a0de4e46f2022a6503ffb11403d29ab5421882364736f6c63430008210033","linkReferences":{}},"methodIdentifiers":{"createSessionKey(address,bytes,uint256,uint256)":"12ec1a5b","getSession(bytes32)":"39b240bd","renewSession(address,bytes32,uint256)":"d7d617d5","revokeSession(address,bytes32)":"c81bea1d","sessions(bytes32)":"7dbd2832","updateDailySpending(bytes32,uint256)":"7935229f","validateSession(bytes32,bytes)":"9c96a8a0"},"id":54}