{"abi":[{"type":"constructor","inputs":[{"name":"admin","type":"address","internalType":"address"}],"stateMutability":"nonpayable"},{"type":"function","name":"addSymbolMapping","inputs":[{"name":"tradingSymbol","type":"string","internalType":"string"},{"name":"chainlinkSymbol","type":"string","internalType":"string"},{"name":"exchange","type":"string","internalType":"string"}],"outputs":[],"stateMutability":"nonpayable"},{"type":"function","name":"getChainlinkSymbol","inputs":[{"name":"tradingSymbol","type":"string","internalType":"string"}],"outputs":[{"name":"","type":"string","internalType":"string"}],"stateMutability":"view"},{"type":"function","name":"getExchange","inputs":[{"name":"tradingSymbol","type":"string","internalType":"string"}],"outputs":[{"name":"","type":"string","internalType":"string"}],"stateMutability":"view"},{"type":"function","name":"getSupportedSymbols","inputs":[],"outputs":[{"name":"","type":"string[]","internalType":"string[]"}],"stateMutability":"view"},{"type":"function","name":"isHyperliquidSymbol","inputs":[{"name":"tradingSymbol","type":"string","internalType":"string"}],"outputs":[{"name":"","type":"bool","internalType":"bool"}],"stateMutability":"view"},{"type":"function","name":"isOstiumSymbol","inputs":[{"name":"tradingSymbol","type":"string","internalType":"string"}],"outputs":[{"name":"","type":"bool","internalType":"bool"}],"stateMutability":"view"},{"type":"function","name":"isSupported","inputs":[{"name":"tradingSymbol","type":"string","internalType":"string"}],"outputs":[{"name":"","type":"bool","internalType":"bool"}],"stateMutability":"view"},{"type":"function","name":"owner","inputs":[],"outputs":[{"name":"","type":"address","internalType":"address"}],"stateMutability":"view"},{"type":"function","name":"removeSymbolMapping","inputs":[{"name":"tradingSymbol","type":"string","internalType":"string"}],"outputs":[],"stateMutability":"nonpayable"},{"type":"function","name":"renounceOwnership","inputs":[],"outputs":[],"stateMutability":"nonpayable"},{"type":"function","name":"supportedSymbols","inputs":[{"name":"","type":"uint256","internalType":"uint256"}],"outputs":[{"name":"","type":"string","internalType":"string"}],"stateMutability":"view"},{"type":"function","name":"symbolToExchange","inputs":[{"name":"","type":"string","internalType":"string"}],"outputs":[{"name":"","type":"string","internalType":"string"}],"stateMutability":"view"},{"type":"function","name":"symbolToFeed","inputs":[{"name":"","type":"string","internalType":"string"}],"outputs":[{"name":"","type":"string","internalType":"string"}],"stateMutability":"view"},{"type":"function","name":"transferOwnership","inputs":[{"name":"newOwner","type":"address","internalType":"address"}],"outputs":[],"stateMutability":"nonpayable"},{"type":"event","name":"OwnershipTransferred","inputs":[{"name":"previousOwner","type":"address","indexed":true,"internalType":"address"},{"name":"newOwner","type":"address","indexed":true,"internalType":"address"}],"anonymous":false},{"type":"event","name":"SymbolMappingAdded","inputs":[{"name":"tradingSymbol","type":"string","indexed":true,"internalType":"string"},{"name":"chainlinkSymbol","type":"string","indexed":false,"internalType":"string"},{"name":"exchange","type":"string","indexed":false,"internalType":"string"}],"anonymous":false},{"type":"event","name":"SymbolMappingUpdated","inputs":[{"name":"tradingSymbol","type":"string","indexed":true,"internalType":"string"},{"name":"oldChainlinkSymbol","type":"string","indexed":false,"internalType":"string"},{"name":"newChainlinkSymbol","type":"string","indexed":false,"internalType":"string"}],"anonymous":false},{"type":"error","name":"OwnableInvalidOwner","inputs":[{"name":"owner","type":"address","internalType":"address"}]},{"type":"error","name":"OwnableUnauthorizedAccount","inputs":[{"name":"account","type":"address","internalType":"address"}]}],"bytecode":{"object":"0x60806040523461002f576100196100146100f4565b610115565b610021610034565b611ba56110f88239611ba590f35b61003a565b60405190565b5f80fd5b601f801991011690565b634e487b7160e01b5f52604160045260245ffd5b906100669061003e565b810190811060018060401b0382111761007e57604052565b610048565b9061009661008f610034565b928361005c565b565b5f80fd5b60018060a01b031690565b6100b09061009c565b90565b6100bc816100a7565b036100c357565b5f80fd5b905051906100d4826100b3565b565b906020828203126100ef576100ec915f016100c7565b90565b610098565b610112612c9d8038038061010781610083565b9283398101906100d6565b90565b61011e90610178565b610126610874565b565b90565b90565b61014261013d61014792610128565b61012b565b61009c565b90565b6101539061012e565b90565b61015f906100a7565b9052565b9190610176905f60208501940190610156565b565b8061019361018d6101885f61014a565b6100a7565b916100a7565b146101a3576101a190610a6d565b565b6101c66101af5f61014a565b5f918291631e4fbdf760e01b835260048301610163565b0390fd5b60018060401b0381116101e6576101e260209161003e565b0190565b610048565b906101fd6101f8836101ca565b610083565b918252565b5f7f4254430000000000000000000000000000000000000000000000000000000000910152565b61023360036101eb565b9061024060208301610202565b565b61024a610229565b90565b5f7f4254432d55534400000000000000000000000000000000000000000000000000910152565b61027e60076101eb565b9061028b6020830161024d565b565b610295610274565b90565b5f7f48595045524c4951554944000000000000000000000000000000000000000000910152565b6102c9600b6101eb565b906102d660208301610298565b565b6102e06102bf565b90565b5f7f4554480000000000000000000000000000000000000000000000000000000000910152565b61031460036101eb565b90610321602083016102e3565b565b61032b61030a565b90565b5f7f4554482d55534400000000000000000000000000000000000000000000000000910152565b61035f60076101eb565b9061036c6020830161032e565b565b610376610355565b90565b5f7f534f4c0000000000000000000000000000000000000000000000000000000000910152565b6103aa60036101eb565b906103b760208301610379565b565b6103c16103a0565b90565b5f7f534f4c2d55534400000000000000000000000000000000000000000000000000910152565b6103f560076101eb565b90610402602083016103c4565b565b61040c6103eb565b90565b5f7f4152420000000000000000000000000000000000000000000000000000000000910152565b61044060036101eb565b9061044d6020830161040f565b565b610457610436565b90565b5f7f4152422d55534400000000000000000000000000000000000000000000000000910152565b61048b60076101eb565b906104986020830161045a565b565b6104a2610481565b90565b5f7f4c494e4b00000000000000000000000000000000000000000000000000000000910152565b6104d660046101eb565b906104e3602083016104a5565b565b6104ed6104cc565b90565b5f7f4c494e4b2d555344000000000000000000000000000000000000000000000000910152565b61052160086101eb565b9061052e602083016104f0565b565b610538610517565b90565b5f7f474f4c4400000000000000000000000000000000000000000000000000000000910152565b61056c60046101eb565b906105796020830161053b565b565b610583610562565b90565b5f7f5841552d55534400000000000000000000000000000000000000000000000000910152565b6105b760076101eb565b906105c460208301610586565b565b6105ce6105ad565b90565b5f7f4f535449554d0000000000000000000000000000000000000000000000000000910152565b61060260066101eb565b9061060f602083016105d1565b565b6106196105f8565b90565b5f7f53494c5645520000000000000000000000000000000000000000000000000000910152565b61064d60066101eb565b9061065a6020830161061c565b565b610664610643565b90565b5f7f5841472d55534400000000000000000000000000000000000000000000000000910152565b61069860076101eb565b906106a560208301610667565b565b6106af61068e565b90565b5f7f4f494c0000000000000000000000000000000000000000000000000000000000910152565b6106e360036101eb565b906106f0602083016106b2565b565b6106fa6106d9565b90565b5f7f5754492d55534400000000000000000000000000000000000000000000000000910152565b61072e60076101eb565b9061073b602083016106fd565b565b610745610724565b90565b5f7f4555525553440000000000000000000000000000000000000000000000000000910152565b61077960066101eb565b9061078660208301610748565b565b61079061076f565b90565b5f7f4555522d55534400000000000000000000000000000000000000000000000000910152565b6107c460076101eb565b906107d160208301610793565b565b6107db6107ba565b90565b5f7f4742505553440000000000000000000000000000000000000000000000000000910152565b61080f60066101eb565b9061081c602083016107de565b565b610826610805565b90565b5f7f4742502d55534400000000000000000000000000000000000000000000000000910152565b61085a60076101eb565b9061086760208301610829565b565b610871610850565b90565b61089561087f610242565b61088761028d565b61088f6102d8565b91610fdc565b6108b66108a0610323565b6108a861036e565b6108b06102d8565b91610fdc565b6108d76108c16103b9565b6108c9610404565b6108d16102d8565b91610fdc565b6108f86108e261044f565b6108ea61049a565b6108f26102d8565b91610fdc565b6109196109036104e5565b61090b610530565b6109136102d8565b91610fdc565b61093a61092461057b565b61092c6105c6565b610934610611565b91610fdc565b61095b61094561065c565b61094d6106a7565b610955610611565b91610fdc565b61097c6109666106f2565b61096e61073d565b610976610611565b91610fdc565b61099d610987610788565b61098f6107d3565b610997610611565b91610fdc565b6109be6109a861081e565b6109b0610869565b6109b8610611565b91610fdc565b565b5f1c90565b60018060a01b031690565b6109dc6109e1916109c0565b6109c5565b90565b6109ee90546109d0565b90565b5f1b90565b90610a0760018060a01b03916109f1565b9181191691161790565b610a25610a20610a2a9261009c565b61012b565b61009c565b90565b610a3690610a11565b90565b610a4290610a2d565b90565b90565b90610a5d610a58610a6492610a39565b610a45565b82546109f6565b9055565b5f0190565b610a765f6109e4565b610a80825f610a48565b90610ab4610aae7f8be0079c531659141344cd1fd0a4f28419497f9722a3daafe3b4186f6b6457e093610a39565b91610a39565b91610abd610034565b80610ac781610a68565b0390a3565b5190565b905090565b90825f9392825e0152565b610b05610afc92602092610af381610acc565b94858093610ad0565b93849101610ad5565b0190565b90565b90565b610b1b610b2091610b09565b610b0c565b9052565b610b34610b3b9160209493610ae0565b8092610b0f565b0190565b610b53610b4a610034565b92839283610b24565b03902090565b610b6291610b3f565b90565b90565b634e487b7160e01b5f52602260045260245ffd5b9060016002830492168015610b9c575b6020831014610b9757565b610b68565b91607f1691610b8c565b610bb09054610b7c565b90565b610bc7610bc2610bcc92610128565b61012b565b610b09565b90565b151590565b610bdd91610ae0565b90565b610bf590610bec610034565b91829182610bd4565b03902090565b60209181520190565b5f5260205f2090565b905f9291805490610c27610c2083610b7c565b8094610bfb565b916001811690815f14610c7e5750600114610c42575b505050565b610c4f9192939450610c04565b915f925b818410610c6657505001905f8080610c3d565b60018160209295939554848601520191019290610c53565b92949550505060ff19168252151560200201905f8080610c3d565b610cb8610cc1602093610cc693610caf81610acc565b93848093610bfb565b95869101610ad5565b61003e565b0190565b9091610ce4610cf29360408401908482035f860152610c0d565b916020818403910152610c99565b90565b90565b5f5260205f2090565b634e487b7160e01b5f52603260045260245ffd5b5490565b610d2281610d15565b821015610d3c57610d34600191610cf8565b910201905f90565b610d01565b634e487b7160e01b5f525f60045260245ffd5b601f602091010490565b1b90565b91906008610d7d910291610d775f1984610d5e565b92610d5e565b9181191691161790565b610d9b610d96610da092610b09565b61012b565b610b09565b90565b90565b9190610dbc610db7610dc493610d87565b610da3565b908354610d62565b9055565b5f90565b610dde91610dd8610dc8565b91610da6565b565b5f5b828110610dee57505050565b80610dfd5f6001938501610dcc565b01610de2565b9190601f8111610e13575b505050565b818111610e20575b610e0e565b610e35610e2f610e5394610c04565b91610d54565b916020610e4182610d54565b9110610e5b575b809101910390610de0565b5f8080610e1b565b505f610e48565b1c90565b90610e76905f1990600802610e62565b191690565b81610e8591610e66565b906002021790565b90610e9781610acc565b9060018060401b038211610f5557610eb982610eb38554610b7c565b85610e03565b602090601f8311600114610eed57918091610edc935f92610ee1575b5050610e7b565b90555b565b90915001515f80610ed5565b601f19831691610efc85610c04565b925f5b818110610f3d57509160029391856001969410610f23575b50505002019055610edf565b610f33910151601f841690610e66565b90555f8080610f17565b91936020600181928787015181550195019201610eff565b610048565b9190610f6b57610f6991610e8d565b565b610d41565b9081549168010000000000000000831015610fa05782610f98916001610f9e95018155610d19565b90610f5a565b565b610048565b9091610fbf610fcd9360408401908482035f860152610c99565b916020818403910152610c99565b90565b90610fda91610e8d565b565b9061109f9261109261109a92611020611007611002610ffd60018990610b59565b610b65565b610ba6565b6110196110135f610bb3565b91610b09565b1115610bcf565b5f146110a15761103a6110336003610cf5565b8690610f70565b848190846110687fc0bc299f14b9c2db1715d153a039e457a040f4dcb492177d34d06c9bc05e18d792610be0565b9261107d611074610034565b92839283610fa5565b0390a25b61108d60018690610b59565b610fd0565b916002610b59565b610fd0565b565b846110ae60018790610b59565b90826110da7fd16322249fece1fc8bddeecdc619ad51594c72935a791f04fb0dcb33390d9e9b92610be0565b926110ef6110e6610034565b92839283610cca565b0390a261108156fe60806040526004361015610013575b610a31565b61001d5f356100fc565b8063091eb42d146100f757806326184f74146100f257806337db7d3f146100ed5780635cbbf372146100e857806369b49656146100e3578063715018a6146100de578063847ef4d4146100d95780638da5cb5b146100d4578063932d68a6146100cf578063cd3e0845146100ca578063ce1c0e4d146100c5578063f2fde38b146100c0578063f3a014a2146100bb5763ff4b20320361000e576109fc565b6109c7565b610994565b61091e565b610813565b6107c5565b6106d1565b610663565b610457565b610413565b6103e0565b6103ac565b6102f1565b61025b565b60e01c90565b60405190565b5f80fd5b5f80fd5b5f80fd5b5f80fd5b5f80fd5b601f801991011690565b634e487b7160e01b5f52604160045260245ffd5b906101449061011c565b810190811067ffffffffffffffff82111761015e57604052565b610126565b9061017661016f610102565b928361013a565b565b67ffffffffffffffff81116101965761019260209161011c565b0190565b610126565b90825f939282370152565b909291926101bb6101b682610178565b610163565b938185526020850190828401116101d7576101d59261019b565b565b610118565b9080601f830112156101fa578160206101f7933591016101a6565b90565b610114565b9060208282031261022f575f82013567ffffffffffffffff811161022a5761022792016101dc565b90565b610110565b61010c565b151590565b61024290610234565b9052565b9190610259905f60208501940190610239565b565b3461028b576102876102766102713660046101ff565b610b7b565b61027e610102565b91829182610246565b0390f35b610108565b5190565b60209181520190565b90825f9392825e0152565b6102c76102d06020936102d5936102be81610290565b93848093610294565b9586910161029d565b61011c565b0190565b6102ee9160208201915f8184039101526102a8565b90565b346103215761031d61030c6103073660046101ff565b610c9a565b610314610102565b918291826102d9565b0390f35b610108565b916060838303126103a2575f83013567ffffffffffffffff811161039d57826103509185016101dc565b92602081013567ffffffffffffffff811161039857836103719183016101dc565b92604082013567ffffffffffffffff81116103935761039092016101dc565b90565b610110565b610110565b610110565b61010c565b5f0190565b346103db576103c56103bf366004610326565b91610d09565b6103cd610102565b806103d7816103a7565b0390f35b610108565b3461040e576103f86103f33660046101ff565b6113f8565b610400610102565b8061040a816103a7565b0390f35b610108565b346104435761043f61042e6104293660046101ff565b61144e565b610436610102565b91829182610246565b0390f35b610108565b5f91031261045257565b61010c565b3461048557610467366004610448565b61046f611502565b610477610102565b80610481816103a7565b0390f35b610108565b905090565b6104b46104ab926020926104a281610290565b9485809361048a565b9384910161029d565b0190565b90565b90565b6104ca6104cf916104b8565b6104bb565b9052565b6104e36104ea916020949361048f565b80926104be565b0190565b6105026104f9610102565b928392836104d3565b03902090565b610511916104ee565b90565b634e487b7160e01b5f525f60045260245ffd5b634e487b7160e01b5f52602260045260245ffd5b906001600283049216801561055b575b602083101461055657565b610527565b91607f169161054b565b60209181520190565b5f5260205f2090565b905f929180549061059161058a8361053b565b8094610565565b916001811690815f146105e857506001146105ac575b505050565b6105b9919293945061056e565b915f925b8184106105d057505001905f80806105a7565b600181602092959395548486015201910192906105bd565b92949550505060ff19168252151560200201905f80806105a7565b9061060d91610577565b90565b9061063061062992610620610102565b93848092610603565b038361013a565b565b905f106106455761064290610610565b90565b610514565b6106609061065b6001915f92610508565b610632565b90565b346106935761068f61067e6106793660046101ff565b61064a565b610686610102565b918291826102d9565b0390f35b610108565b60018060a01b031690565b6106ac90610698565b90565b6106b8906106a3565b9052565b91906106cf905f602085019401906106af565b565b34610701576106e1366004610448565b6106fd6106ec611541565b6106f4610102565b918291826106bc565b0390f35b610108565b61070f816104b8565b0361071657565b5f80fd5b9050359061072782610706565b565b906020828203126107425761073f915f0161071a565b90565b61010c565b634e487b7160e01b5f52603260045260245ffd5b5490565b5f5260205f2090565b5f5260205f2090565b61077a8161075b565b8210156107945761078c60019161075f565b910201905f90565b610747565b60036107a48161075b565b8210156107c1576107be916107b891610771565b90610632565b90565b5f80fd5b346107f5576107f16107e06107db366004610729565b610799565b6107e8610102565b918291826102d9565b0390f35b610108565b6108109061080b6002915f92610508565b610632565b90565b346108435761083f61082e6108293660046101ff565b6107fa565b610836610102565b918291826102d9565b0390f35b610108565b5190565b60209181520190565b60200190565b61087a6108836020936108889361087181610290565b93848093610565565b9586910161029d565b61011c565b0190565b906108969161085b565b90565b60200190565b906108b36108ac83610848565b809261084c565b90816108c460208302840194610855565b925f915b8383106108d757505050505090565b909192939460206108f96108f38385600195038752895161088c565b97610899565b93019301919392906108c8565b61091b9160208201915f81840391015261089f565b90565b3461094e5761092e366004610448565b61094a6109396115e9565b610941610102565b91829182610906565b0390f35b610108565b61095c816106a3565b0361096357565b5f80fd5b9050359061097482610953565b565b9060208282031261098f5761098c915f01610967565b90565b61010c565b346109c2576109ac6109a7366004610976565b611664565b6109b4610102565b806109be816103a7565b0390f35b610108565b346109f7576109f36109e26109dd3660046101ff565b61166f565b6109ea610102565b91829182610246565b0390f35b610108565b34610a2c57610a28610a17610a123660046101ff565b6116a9565b610a1f610102565b918291826102d9565b0390f35b610108565b5f80fd5b5f90565b90565b60209181520190565b905f9291805490610a5f610a588361053b565b8094610a3c565b916001811690815f14610ab65750600114610a7a575b505050565b610a879192939450610768565b915f925b818410610a9e57505001905f8080610a75565b60018160209295939554848601520191019290610a8b565b92949550505060ff19168252151560200201905f8080610a75565b90610adb91610a45565b90565b90610afe610af792610aee610102565b93848092610ad1565b038361013a565b565b610b0990610ade565b90565b60200190565b5190565b90610b28610b2383610178565b610163565b918252565b5f7f48595045524c4951554944000000000000000000000000000000000000000000910152565b610b5e600b610b16565b90610b6b60208301610b2d565b565b610b75610b54565b90565b90565b610b9a610b95610b9f92610b8d610a35565b506002610508565b610a39565b610b00565b610bb1610bab82610b12565b91610b0c565b20610bde610bd8610bc0610b6d565b610bd2610bcc82610b12565b91610b0c565b20610b78565b91610b78565b1490565b606090565b610bf090610610565b90565b90565b90565b90565b610c10610c0b610c1592610bf6565b610bf9565b6104b8565b90565b5f7f53796d626f6c206e6f7420737570706f72746564000000000000000000000000910152565b610c4c6014602092610294565b610c5581610c18565b0190565b610c6e9060208101905f818303910152610c3f565b90565b15610c7857565b610c80610102565b62461bcd60e51b815280610c9660048201610c59565b0390fd5b610cb1610cb691610ca9610be2565b506001610508565b610be7565b610ce2610cca610cc583610bf3565b610b12565b610cdc610cd65f610bfc565b916104b8565b11610c71565b90565b90610cf89291610cf36116f4565b610cfa565b565b91610d0792919091611971565b565b90610d149291610ce5565b565b610d2790610d226116f4565b6112a0565b565b610d33905461053b565b90565b5f7f53796d626f6c206e6f7420666f756e6400000000000000000000000000000000910152565b610d6a6010602092610294565b610d7381610d36565b0190565b610d8c9060208101905f818303910152610d5d565b90565b15610d9657565b610d9e610102565b62461bcd60e51b815280610db460048201610d77565b0390fd5b1c90565b90610dcf905f1990602003600802610db8565b8154169055565b1b90565b91906008610df5910291610def5f1984610dd6565b92610dd6565b9181191691161790565b610e13610e0e610e18926104b8565b610bf9565b6104b8565b90565b90565b9190610e34610e2f610e3c93610dff565b610e1b565b908354610dda565b9055565b5f90565b610e5691610e50610e40565b91610e1e565b565b5f5b828110610e6657505050565b80610e755f6001938501610e44565b01610e5a565b90610e8b905f1990600802610db8565b191690565b81610e9a91610e7b565b906002021790565b905f91610eb9610eb18261056e565b928354610e90565b905555565b601f602091010490565b919290602082105f14610f2157601f8411600114610ef157610eeb929350610e90565b90555b5b565b5090610f17610f1c93600180610f0f610f098661056e565b93610ebe565b039101610e58565b610ea2565b610eee565b5060019192610f38610f3283610ebe565b91610ebe565b9080610f438661056e565b0190601f841680610f79575b50808311610f66575b505050600202179055610eef565b610f71920390610e58565b5f8080610f58565b610f8590868403610dbc565b5f610f4f565b929091680100000000000000008211610feb576020115f14610fdc57602081105f14610fc057610fba91610e90565b90555b5b565b60019160ff1916610fd08461056e565b55600202019055610fbd565b60019150600202019055610fbe565b610126565b908154610ffc8161053b565b90818311611025575b818310611013575b50505050565b61101c93610ec8565b5f80808061100d565b61103183838387610f8b565b611005565b634e487b7160e01b5f52601160045260245ffd5b5f61105491610ff0565b565b905f03611068576110669061104a565b565b610514565b600161107991016104b8565b90565b90565b61109361108e6110989261107c565b610bf9565b6104b8565b90565b6110aa6110b0919392936104b8565b926104b8565b82039182116110bb57565b611036565b6110ca905461053b565b90565b9190601f81116110dd575b505050565b8181116110ea575b6110d8565b6110ff6110f961111d9461056e565b91610ebe565b91602061110b82610ebe565b9110611125575b809101910390610e58565b5f80806110e5565b505f611112565b9080821461120b5761113d816110c0565b9067ffffffffffffffff8211611206576111618261115b855461053b565b856110cd565b5f90601f831160011461119457918091611183935f92611188575b5050610e90565b90555b565b90915001545f8061117c565b906111a3601f1984169261056e565b906111ad8561056e565b925f5b8181106111ee575091600293918560019694106111d4575b50505002019055611186565b6111e4910154601f841690610e7b565b90555f80806111c8565b919360018060209287870154815501950192016111b0565b610126565b5050565b91906112205761121e9161112c565b565b610514565b90565b634e487b7160e01b5f52603160045260245ffd5b5490565b5f5260205f2090565b6112528161123c565b82101561126c57611264600191611240565b910201905f90565b610747565b61127a8161123c565b801561129b5760019003906112986112928383611249565b90611056565b55565b611228565b6112d76112bf6112ba6112b560018590610508565b610a39565b610d29565b6112d16112cb5f610bfc565b916104b8565b11610d8f565b6112ec5f6112e760018490610508565b611056565b6113015f6112fc60028490610508565b611056565b61130a5f610bfc565b5b8061132761132161131c600361075b565b6104b8565b916104b8565b10156113f15761134a61134561133f60038490610771565b50610a39565b610b00565b61135c61135682610b12565b91610b0c565b2061138a61138461136c85610bf3565b61137e61137882610b12565b91610b0c565b20610b78565b91610b78565b1461139d576113989061106d565b61130b565b6113dc91506113d66113cd60036113c76113b7600361075b565b6113c1600161107f565b9061109b565b90610771565b50916003610771565b9061120f565b6113ee6113e96003611225565b611271565b5b565b50506113ef565b61140190610d16565b565b5f7f4f535449554d0000000000000000000000000000000000000000000000000000910152565b6114346006610b16565b9061144160208301611403565b565b61144b61142a565b90565b61146d61146861147292611460610a35565b506002610508565b610a39565b610b00565b61148461147e82610b12565b91610b0c565b206114b16114ab611493611443565b6114a561149f82610b12565b91610b0c565b20610b78565b91610b78565b1490565b6114bd6116f4565b6114c56114ef565b565b6114db6114d66114e092610bf6565b610bf9565b610698565b90565b6114ec906114c7565b90565b6115006114fb5f6114e3565b611b03565b565b61150a6114b5565b565b5f90565b5f1c90565b60018060a01b031690565b61152c61153191611510565b611515565b90565b61153e9054611520565b90565b61154961150c565b506115535f611534565b90565b606090565b67ffffffffffffffff81116115735760208091020190565b610126565b9061158a6115858361155b565b610163565b918252565b906115998261075b565b6115a281611578565b926115b0602085019161075f565b5f915b8383106115c05750505050565b6001602081926115cf85610be7565b8152019201920191906115b3565b6115e69061158f565b90565b6115f1611556565b506115fc60036115dd565b90565b6116109061160b6116f4565b611612565b565b8061162d6116276116225f6114e3565b6106a3565b916106a3565b1461163d5761163b90611b03565b565b6116606116495f6114e3565b5f918291631e4fbdf760e01b8352600483016106bc565b0390fd5b61166d906115ff565b565b61168e61168961169392611681610a35565b506001610508565b610a39565b610d29565b6116a561169f5f610bfc565b916104b8565b1190565b6116c06116c5916116b8610be2565b506002610508565b610be7565b6116f16116d96116d483610bf3565b610b12565b6116eb6116e55f610bfc565b916104b8565b11610c71565b90565b6116fc611541565b61171561170f61170a611b62565b6106a3565b916106a3565b0361171c57565b61173e611727611b62565b5f91829163118cdaa760e01b8352600483016106bc565b0390fd5b61174b9161048f565b90565b6117639061175a610102565b91829182611742565b03902090565b905f929180549061178361177c8361053b565b8094610294565b916001811690815f146117da575060011461179e575b505050565b6117ab919293945061056e565b915f925b8184106117c257505001905f8080611799565b600181602092959395548486015201910192906117af565b92949550505060ff19168252151560200201905f8080611799565b909161180f61181d9360408401908482035f860152611769565b9160208184039101526102a8565b90565b9061182a81610290565b9067ffffffffffffffff82116118ea5761184e82611848855461053b565b856110cd565b602090601f831160011461188257918091611871935f92611876575b5050610e90565b90555b565b90915001515f8061186a565b601f198316916118918561056e565b925f5b8181106118d2575091600293918560019694106118b8575b50505002019055611874565b6118c8910151601f841690610e7b565b90555f80806118ac565b91936020600181928787015181550195019201611894565b610126565b9190611900576118fe91611820565b565b610514565b9081549168010000000000000000831015611935578261192d91600161193395018155611249565b906118ef565b565b610126565b90916119546119629360408401908482035f8601526102a8565b9160208184039101526102a8565b90565b9061196f91611820565b565b90611a3492611a27611a2f926119b561199c61199761199260018990610508565b610a39565b610d29565b6119ae6119a85f610bfc565b916104b8565b1115610234565b5f14611a36576119cf6119c86003611225565b8690611905565b848190846119fd7fc0bc299f14b9c2db1715d153a039e457a040f4dcb492177d34d06c9bc05e18d79261174e565b92611a12611a09610102565b9283928361193a565b0390a25b611a2260018690610508565b611965565b916002610508565b611965565b565b84611a4360018790610508565b9082611a6f7fd16322249fece1fc8bddeecdc619ad51594c72935a791f04fb0dcb33390d9e9b9261174e565b92611a84611a7b610102565b928392836117f5565b0390a2611a16565b5f1b90565b90611aa260018060a01b0391611a8c565b9181191691161790565b611ac0611abb611ac592610698565b610bf9565b610698565b90565b611ad190611aac565b90565b611add90611ac8565b90565b90565b90611af8611af3611aff92611ad4565b611ae0565b8254611a91565b9055565b611b0c5f611534565b611b16825f611ae3565b90611b4a611b447f8be0079c531659141344cd1fd0a4f28419497f9722a3daafe3b4186f6b6457e093611ad4565b91611ad4565b91611b53610102565b80611b5d816103a7565b0390a3565b611b6a61150c565b50339056fea264697066735822122062c1d9bb87895bf3291d094281eed999b9c22d5f871430b7db986104a92e54f964736f6c63430008210033","linkReferences":{}},"methodIdentifiers":{"addSymbolMapping(string,string,string)":"37db7d3f","getChainlinkSymbol(string)":"26184f74","getExchange(string)":"ff4b2032","getSupportedSymbols()":"ce1c0e4d","isHyperliquidSymbol(string)":"091eb42d","isOstiumSymbol(string)":"69b49656","isSupported(string)":"f3a014a2","owner()":"8da5cb5b","removeSymbolMapping(string)":"5cbbf372","renounceOwnership()":"715018a6","supportedSymbols(uint256)":"932d68a6","symbolToExchange(string)":"cd3e0845","symbolToFeed(string)":"847ef4d4","transferOwnership(address)":"f2fde38b"},"id":52}