{"abi":[{"type":"constructor","inputs":[{"name":"_usdcToken","type":"address","internalType":"address"},{"name":"admin","type":"address","internalType":"address"}],"stateMutability":"nonpayable"},{"type":"function","name":"DEFAULT_ADMIN_ROLE","inputs":[],"outputs":[{"name":"","type":"bytes32","internalType":"bytes32"}],"stateMutability":"view"},{"type":"function","name":"ORDER_ROUTER_ROLE","inputs":[],"outputs":[{"name":"","type":"bytes32","internalType":"bytes32"}],"stateMutability":"view"},{"type":"function","name":"balances","inputs":[{"name":"","type":"address","internalType":"address"}],"outputs":[{"name":"","type":"uint256","internalType":"uint256"}],"stateMutability":"view"},{"type":"function","name":"depositCollateral","inputs":[{"name":"amount","type":"uint256","internalType":"uint256"}],"outputs":[],"stateMutability":"nonpayable"},{"type":"function","name":"emergencyWithdraw","inputs":[],"outputs":[],"stateMutability":"nonpayable"},{"type":"function","name":"getBalance","inputs":[{"name":"user","type":"address","internalType":"address"}],"outputs":[{"name":"total","type":"uint256","internalType":"uint256"},{"name":"reservedAmount","type":"uint256","internalType":"uint256"},{"name":"available","type":"uint256","internalType":"uint256"}],"stateMutability":"view"},{"type":"function","name":"getRoleAdmin","inputs":[{"name":"role","type":"bytes32","internalType":"bytes32"}],"outputs":[{"name":"","type":"bytes32","internalType":"bytes32"}],"stateMutability":"view"},{"type":"function","name":"grantRole","inputs":[{"name":"role","type":"bytes32","internalType":"bytes32"},{"name":"account","type":"address","internalType":"address"}],"outputs":[],"stateMutability":"nonpayable"},{"type":"function","name":"hasRole","inputs":[{"name":"role","type":"bytes32","internalType":"bytes32"},{"name":"account","type":"address","internalType":"address"}],"outputs":[{"name":"","type":"bool","internalType":"bool"}],"stateMutability":"view"},{"type":"function","name":"pause","inputs":[],"outputs":[],"stateMutability":"nonpayable"},{"type":"function","name":"paused","inputs":[],"outputs":[{"name":"","type":"bool","internalType":"bool"}],"stateMutability":"view"},{"type":"function","name":"releaseFromTrade","inputs":[{"name":"user","type":"address","internalType":"address"},{"name":"amount","type":"uint256","internalType":"uint256"},{"name":"pnl","type":"int256","internalType":"int256"}],"outputs":[],"stateMutability":"nonpayable"},{"type":"function","name":"renounceRole","inputs":[{"name":"role","type":"bytes32","internalType":"bytes32"},{"name":"callerConfirmation","type":"address","internalType":"address"}],"outputs":[],"stateMutability":"nonpayable"},{"type":"function","name":"reserveForTrade","inputs":[{"name":"user","type":"address","internalType":"address"},{"name":"amount","type":"uint256","internalType":"uint256"}],"outputs":[],"stateMutability":"nonpayable"},{"type":"function","name":"reserved","inputs":[{"name":"","type":"address","internalType":"address"}],"outputs":[{"name":"","type":"uint256","internalType":"uint256"}],"stateMutability":"view"},{"type":"function","name":"revokeRole","inputs":[{"name":"role","type":"bytes32","internalType":"bytes32"},{"name":"account","type":"address","internalType":"address"}],"outputs":[],"stateMutability":"nonpayable"},{"type":"function","name":"supportsInterface","inputs":[{"name":"interfaceId","type":"bytes4","internalType":"bytes4"}],"outputs":[{"name":"","type":"bool","internalType":"bool"}],"stateMutability":"view"},{"type":"function","name":"unpause","inputs":[],"outputs":[],"stateMutability":"nonpayable"},{"type":"function","name":"usdcToken","inputs":[],"outputs":[{"name":"","type":"address","internalType":"contract IERC20"}],"stateMutability":"view"},{"type":"function","name":"withdrawCollateral","inputs":[{"name":"amount","type":"uint256","internalType":"uint256"}],"outputs":[],"stateMutability":"nonpayable"},{"type":"event","name":"CollateralDeposited","inputs":[{"name":"user","type":"address","indexed":true,"internalType":"address"},{"name":"amount","type":"uint256","indexed":false,"internalType":"uint256"},{"name":"newBalance","type":"uint256","indexed":false,"internalType":"uint256"}],"anonymous":false},{"type":"event","name":"CollateralWithdrawn","inputs":[{"name":"user","type":"address","indexed":true,"internalType":"address"},{"name":"amount","type":"uint256","indexed":false,"internalType":"uint256"},{"name":"remainingBalance","type":"uint256","indexed":false,"internalType":"uint256"}],"anonymous":false},{"type":"event","name":"FundsReleased","inputs":[{"name":"user","type":"address","indexed":true,"internalType":"address"},{"name":"amount","type":"uint256","indexed":false,"internalType":"uint256"},{"name":"pnl","type":"int256","indexed":false,"internalType":"int256"}],"anonymous":false},{"type":"event","name":"FundsReserved","inputs":[{"name":"user","type":"address","indexed":true,"internalType":"address"},{"name":"amount","type":"uint256","indexed":false,"internalType":"uint256"},{"name":"orderId","type":"bytes32","indexed":true,"internalType":"bytes32"}],"anonymous":false},{"type":"event","name":"Paused","inputs":[{"name":"account","type":"address","indexed":false,"internalType":"address"}],"anonymous":false},{"type":"event","name":"RoleAdminChanged","inputs":[{"name":"role","type":"bytes32","indexed":true,"internalType":"bytes32"},{"name":"previousAdminRole","type":"bytes32","indexed":true,"internalType":"bytes32"},{"name":"newAdminRole","type":"bytes32","indexed":true,"internalType":"bytes32"}],"anonymous":false},{"type":"event","name":"RoleGranted","inputs":[{"name":"role","type":"bytes32","indexed":true,"internalType":"bytes32"},{"name":"account","type":"address","indexed":true,"internalType":"address"},{"name":"sender","type":"address","indexed":true,"internalType":"address"}],"anonymous":false},{"type":"event","name":"RoleRevoked","inputs":[{"name":"role","type":"bytes32","indexed":true,"internalType":"bytes32"},{"name":"account","type":"address","indexed":true,"internalType":"address"},{"name":"sender","type":"address","indexed":true,"internalType":"address"}],"anonymous":false},{"type":"event","name":"Unpaused","inputs":[{"name":"account","type":"address","indexed":false,"internalType":"address"}],"anonymous":false},{"type":"error","name":"AccessControlBadConfirmation","inputs":[]},{"type":"error","name":"AccessControlUnauthorizedAccount","inputs":[{"name":"account","type":"address","internalType":"address"},{"name":"neededRole","type":"bytes32","internalType":"bytes32"}]},{"type":"error","name":"EnforcedPause","inputs":[]},{"type":"error","name":"ExpectedPause","inputs":[]},{"type":"error","name":"HasOpenPositions","inputs":[]},{"type":"error","name":"InsufficientAvailable","inputs":[]},{"type":"error","name":"InsufficientBalance","inputs":[]},{"type":"error","name":"SafeERC20FailedOperation","inputs":[{"name":"token","type":"address","internalType":"address"}]}],"bytecode":{"object":"0x60a06040523461004e5761001a610014610122565b906101d2565b610022610053565b6118d96103ba82396080518181816102f001528181610fea0152818161112201526112b801526118d990f35b610059565b60405190565b5f80fd5b601f801991011690565b634e487b7160e01b5f52604160045260245ffd5b906100859061005d565b810190811060018060401b0382111761009d57604052565b610067565b906100b56100ae610053565b928361007b565b565b5f80fd5b60018060a01b031690565b6100cf906100bb565b90565b6100db816100c6565b036100e257565b5f80fd5b905051906100f3826100d2565b565b919060408382031261011d578061011161011a925f86016100e6565b936020016100e6565b90565b6100b7565b610140611c9380380380610135816100a2565b9283398101906100f5565b9091565b90565b61015b610156610160926100bb565b610144565b6100bb565b90565b61016c90610147565b90565b61017890610163565b90565b90565b90565b5f1b90565b61019a61019561019f9261017b565b610181565b61017e565b90565b6101ab5f610186565b90565b7fb350f660a06ece1f116b96dec924c715d62a3346ae845dd2f736149f033c5fd890565b906101df6102029261016f565b6080526101f46101ed6101a2565b82906102a8565b506101fd6101ae565b6102a8565b50565b5f90565b151590565b6102179061017e565b90565b906102249061020e565b5f5260205260405f2090565b61023990610147565b90565b61024590610230565b90565b906102529061023c565b5f5260205260405f2090565b9061026a60ff91610181565b9181191691161790565b61027d90610209565b90565b90565b9061029861029361029f92610274565b610280565b825461025e565b9055565b5f0190565b6102b0610205565b506102c56102bf82849061037f565b15610209565b5f1461034d576102ec60016102e75f6102df81869061021a565b018590610248565b610283565b906102f56103ac565b9061033261032c6103267f2f8788117e7eff1d82e926ec794901d17c78024a50270940304540a733656f0d9561020e565b9261023c565b9261023c565b9261033b610053565b80610345816102a3565b0390a4600190565b50505f90565b5f1c90565b60ff1690565b61036a61036f91610353565b610358565b90565b61037c905461035e565b90565b6103a5915f61039a6103a093610393610205565b508261021a565b01610248565b610372565b90565b5f90565b6103b46103a8565b50339056fe60806040526004361015610013575b610989565b61001d5f3561015c565b806301ffc9a71461015757806310b247061461015257806311eac8551461014d578063248a9ca31461014857806327e235e3146101435780632f2ff15d1461013e57806336568abe146101395780633f4ba83a1461013457806343b040651461012f5780635c975abb1461012a5780636112fe2e146101255780638456cb591461012057806391d148541461011b578063a217fddf14610116578063bad4a01f14610111578063d547741f1461010c578063da9425e214610107578063db2e21bc14610102578063e246d8c4146100fd5763f8b2cb4f0361000e57610951565b6108ea565b610888565b610853565b610806565b6107d3565b61079e565b61072d565b6106fa565b6106c7565b610674565b610640565b6105ad565b610579565b610545565b6104e3565b610406565b61036b565b6102ab565b6101e4565b60e01c90565b60405190565b5f80fd5b5f80fd5b63ffffffff60e01b1690565b61018581610170565b0361018c57565b5f80fd5b9050359061019d8261017c565b565b906020828203126101b8576101b5915f01610190565b90565b61016c565b151590565b6101cb906101bd565b9052565b91906101e2905f602085019401906101c2565b565b34610214576102106101ff6101fa36600461019f565b610991565b610207610162565b918291826101cf565b0390f35b610168565b60018060a01b031690565b61022d90610219565b90565b61023981610224565b0361024057565b5f80fd5b9050359061025182610230565b565b90565b61025f81610253565b0361026657565b5f80fd5b9050359061027782610256565b565b91906040838203126102a1578061029561029e925f8601610244565b9360200161026a565b90565b61016c565b5f0190565b346102da576102c46102be366004610279565b90610bc9565b6102cc610162565b806102d6816102a6565b0390f35b610168565b5f9103126102e957565b61016c565b7f000000000000000000000000000000000000000000000000000000000000000090565b90565b61032961032461032e92610219565b610312565b610219565b90565b61033a90610315565b90565b61034690610331565b90565b6103529061033d565b9052565b9190610369905f60208501940190610349565b565b3461039b5761037b3660046102df565b6103976103866102ee565b61038e610162565b91829182610356565b0390f35b610168565b90565b6103ac816103a0565b036103b357565b5f80fd5b905035906103c4826103a3565b565b906020828203126103df576103dc915f016103b7565b90565b61016c565b6103ed906103a0565b9052565b9190610404905f602085019401906103e4565b565b346104365761043261042161041c3660046103c6565b610c13565b610429610162565b918291826103f1565b0390f35b610168565b9060208282031261045457610451915f01610244565b90565b61016c565b61046290610331565b90565b9061046f90610459565b5f5260205260405f2090565b1c90565b90565b610492906008610497930261047b565b61047f565b90565b906104a59154610482565b90565b6104be906104b96002915f92610465565b61049a565b90565b6104ca90610253565b9052565b91906104e1905f602085019401906104c1565b565b346105135761050f6104fe6104f936600461043b565b6104a8565b610506610162565b918291826104ce565b0390f35b610168565b9190604083820312610540578061053461053d925f86016103b7565b93602001610244565b90565b61016c565b346105745761055e610558366004610518565b90610c5e565b610566610162565b80610570816102a6565b0390f35b610168565b346105a85761059261058c366004610518565b90610c6a565b61059a610162565b806105a4816102a6565b0390f35b610168565b346105db576105bd3660046102df565b6105c5610cd6565b6105cd610162565b806105d7816102a6565b0390f35b610168565b90565b6105ec816105e0565b036105f357565b5f80fd5b90503590610604826105e3565b565b909160608284031261063b57610638610621845f8501610244565b9361062f816020860161026a565b936040016105f7565b90565b61016c565b3461066f57610659610653366004610606565b91610ef5565b610661610162565b8061066b816102a6565b0390f35b610168565b346106a4576106843660046102df565b6106a061068f610f29565b610697610162565b918291826101cf565b0390f35b610168565b906020828203126106c2576106bf915f0161026a565b90565b61016c565b346106f5576106df6106da3660046106a9565b611086565b6106e7610162565b806106f1816102a6565b0390f35b610168565b346107285761070a3660046102df565b6107126110b5565b61071a610162565b80610724816102a6565b0390f35b610168565b3461075e5761075a610749610743366004610518565b906110d5565b610751610162565b918291826101cf565b0390f35b610168565b90565b5f1b90565b61077f61077a61078492610763565b610766565b6103a0565b90565b6107905f61076b565b90565b61079b610787565b90565b346107ce576107ae3660046102df565b6107ca6107b9610793565b6107c1610162565b918291826103f1565b0390f35b610168565b34610801576107eb6107e63660046106a9565b6111d4565b6107f3610162565b806107fd816102a6565b0390f35b610168565b346108355761081f610819366004610518565b90611209565b610827610162565b80610831816102a6565b0390f35b610168565b6108509061084b6003915f92610465565b61049a565b90565b346108835761087f61086e61086936600461043b565b61083a565b610876610162565b918291826104ce565b0390f35b610168565b346108b6576108983660046102df565b6108a0611341565b6108a8610162565b806108b2816102a6565b0390f35b610168565b7fb350f660a06ece1f116b96dec924c715d62a3346ae845dd2f736149f033c5fd890565b6108e76108bb565b90565b3461091a576108fa3660046102df565b6109166109056108df565b61090d610162565b918291826103f1565b0390f35b610168565b60409061094861094f949695939661093e60608401985f8501906104c1565b60208301906104c1565b01906104c1565b565b346109845761098061096c61096736600461043b565b61134f565b610977939193610162565b9384938461091f565b0390f35b610168565b5f80fd5b5f90565b61099961098d565b50806109b46109ae637965db0b60e01b610170565b91610170565b149081156109c1575b5090565b6109cb91506113a1565b5f6109bd565b906109eb916109e66109e16108bb565b6113c7565b6109ed565b565b906109ff916109fa6113db565b610ae6565b565b5f1c90565b610a12610a1791610a01565b61047f565b90565b610a249054610a06565b90565b634e487b7160e01b5f52601160045260245ffd5b610a4a610a5091939293610253565b92610253565b8203918211610a5b57565b610a27565b610a6f610a7591939293610253565b92610253565b8201809211610a8057565b610a27565b90610a915f1991610766565b9181191691161790565b610aaf610aaa610ab492610253565b610312565b610253565b90565b90565b90610acf610aca610ad692610a9b565b610ab7565b8254610a85565b9055565b610ae3906103a0565b90565b610b17610afd610af860028490610465565b610a1a565b610b11610b0c60038590610465565b610a1a565b90610a3b565b610b29610b2384610253565b91610253565b10610bad57610b5682610b50610b4160038590610465565b91610b4b83610a1a565b610a60565b90610aba565b610b5f5f61076b565b90610ba8610b96610b907f28c026704b2a837333abeb12891c009248cde4f3eae7827893040651e1911e1293610459565b93610ada565b93610b9f610162565b918291826104ce565b0390a3565b5f631e9acf1760e31b815280610bc5600482016102a6565b0390fd5b90610bd3916109d1565b565b5f90565b90610be390610ada565b5f5260205260405f2090565b90565b610bfe610c0391610a01565b610bef565b90565b610c109054610bf2565b90565b6001610c2b610c3192610c24610bd5565b505f610bd9565b01610c06565b90565b90610c4f91610c4a610c4582610c13565b6113c7565b610c51565b565b90610c5b9161144a565b50565b90610c6891610c34565b565b9080610c85610c7f610c7a6114f9565b610224565b91610224565b03610c9657610c9391611506565b50565b5f63334bd91960e11b815280610cae600482016102a6565b0390fd5b610cc2610cbd610787565b6113c7565b610cca610ccc565b565b610cd4611629565b565b610cde610cb2565b565b90610cfb9291610cf6610cf16108bb565b6113c7565b610cfd565b565b90610d109291610d0b6113db565b610db4565b565b610d26610d21610d2b92610763565b610312565b6105e0565b90565b610d37906105e0565b600160ff1b8114610d47575f0390565b610a27565b610d60610d5b610d65926105e0565b610312565b610253565b90565b610d7c610d77610d8192610763565b610312565b610253565b90565b610d8d906105e0565b9052565b916020610db2929493610dab60408201965f8301906104c1565b0190610d84565b565b610ddc82610dd6610dc760038590610465565b91610dd183610a1a565b610a3b565b90610aba565b82610def610de95f610d12565b916105e0565b12155f14610e6e57610e27610e0384610d4c565b610e21610e1260028590610465565b91610e1c83610a1a565b610a60565b90610aba565b5b9091610e547fe0c011d88c4523bd3e1f8eb29e40cd535fa6a9c60d3218b2ebed7ae093a472bf92610459565b92610e69610e60610162565b92839283610d91565b0390a2565b610e7f610e7a84610d2e565b610d4c565b610e93610e8e60028490610465565b610a1a565b610ea5610e9f83610253565b91610253565b115f14610ee357610ecc610ede91610ec7610ec260028690610465565b610a1a565b610a3b565b5b610ed960028490610465565b610aba565b610e28565b50610ede610ef05f610d68565b610ecd565b90610f009291610ce0565b565b60ff1690565b610f14610f1991610a01565b610f02565b90565b610f269054610f08565b90565b610f3161098d565b50610f3c6001610f1c565b90565b610f5090610f4b6113db565b610f75565b565b916020610f73929493610f6c60408201965f8301906104c1565b01906104c1565b565b610fa6610f8c610f8760023390610465565b610a1a565b610fa0610f9b60033390610465565b610a1a565b90610a3b565b610fb8610fb283610253565b91610253565b1061106a57610fe581610fdf610fd060023390610465565b91610fda83610a1a565b610a3b565b90610aba565b6110117f0000000000000000000000000000000000000000000000000000000000000000338391611633565b3361102661102160023390610465565b610a1a565b6110507fdaed309a628faec6cab72194019e2a1a34e890ca9bf9be99788992dd5469281992610459565b9261106561105c610162565b92839283610f52565b0390a2565b5f635fe02f5960e01b815280611082600482016102a6565b0390fd5b61108f90610f3f565b565b6110a161109c610787565b6113c7565b6110a96110ab565b565b6110b36116da565b565b6110bd611091565b565b906110c990610459565b5f5260205260405f2090565b6110fb915f6110f06110f6936110e961098d565b5082610bd9565b016110bf565b610f1c565b90565b61110f9061110a6113db565b61111d565b565b61111a90610331565b90565b6111537f00000000000000000000000000000000000000000000000000000000000000003361114b30611111565b9084926116e4565b61117b8161117561116660023390610465565b9161117083610a1a565b610a60565b90610aba565b3361119061118b60023390610465565b610a1a565b6111ba7ff4d587c98d234ca4d147061e6b5167e7f41ee17f11562a9f0b49570abece859e92610459565b926111cf6111c6610162565b92839283610f52565b0390a2565b6111dd906110fe565b565b906111fa916111f56111f082610c13565b6113c7565b6111fc565b565b9061120691611506565b50565b90611213916111df565b565b61121d6113db565b611225611257565b565b61123090610d68565b9052565b91602061125592949361124e60408201965f8301906104c1565b0190611227565b565b61126b61126660033390610465565b610a1a565b61127d6112775f610d68565b91610253565b116113255761129661129160023390610465565b610a1a565b6112b36112a25f610d68565b6112ae60023390610465565b610aba565b6112df7f0000000000000000000000000000000000000000000000000000000000000000338391611633565b335f61130b7fdaed309a628faec6cab72194019e2a1a34e890ca9bf9be99788992dd5469281992610459565b92611320611317610162565b92839283611234565b0390a2565b5f63166e88ed60e11b81528061133d600482016102a6565b0390fd5b611349611215565b565b5f90565b9061135861134b565b5061136161134b565b5061136a61134b565b5061139261138d61138561138060028690610465565b610a1a565b936003610465565b610a1a565b9061139e838390610a3b565b90565b6113a961098d565b506113c36113bd6301ffc9a760e01b610170565b91610170565b1490565b6113d9906113d36114f9565b90611752565b565b6113e3610f29565b6113e957565b5f63d93c066560e01b815280611401600482016102a6565b0390fd5b9061141160ff91610766565b9181191691161790565b611424906101bd565b90565b90565b9061143f61143a6114469261141b565b611427565b8254611405565b9055565b61145261098d565b506114676114618284906110d5565b156101bd565b5f146114ef5761148e60016114895f611481818690610bd9565b0185906110bf565b61142a565b906114976114f9565b906114d46114ce6114c87f2f8788117e7eff1d82e926ec794901d17c78024a50270940304540a733656f0d95610ada565b92610459565b92610459565b926114dd610162565b806114e7816102a6565b0390a4600190565b50505f90565b5f90565b6115016114f5565b503390565b61150e61098d565b5061151a8183906110d5565b5f146115a1576115405f61153b5f611533818690610bd9565b0185906110bf565b61142a565b906115496114f9565b9061158661158061157a7ff6391f5c32d9c69d2a47ea670b442974b53935d1edc7fd64eb21e047a839171b95610ada565b92610459565b92610459565b9261158f610162565b80611599816102a6565b0390a4600190565b50505f90565b6115af61178d565b6115b76115db565b565b6115c290610224565b9052565b91906115d9905f602085019401906115b9565b565b6115e65f600161142a565b6115ee6114f9565b6116247f5db9ee0a495bf2e6ff9c91a7834c1ba4fdd244a5e8aa4e537bd38aeae4b073aa9161161b610162565b918291826115c6565b0390a1565b6116316115a7565b565b9161164c916116469184916001926117c0565b156101bd565b6116535750565b61165f6116769161033d565b5f918291635274afe760e01b8352600483016115c6565b0390fd5b6116826113db565b61168a61168c565b565b61169760018061142a565b61169f6114f9565b6116d57f62e78cea01bee320cd4e420270b5ea74000d11b0c9f74754ebdbfc544b05a258916116cc610162565b918291826115c6565b0390a1565b6116e261167a565b565b9290611701926116fb92859291909160019361182a565b156101bd565b6117085750565b61171461172b9161033d565b5f918291635274afe760e01b8352600483016115c6565b0390fd5b91602061175092949361174960408201965f8301906115b9565b01906103e4565b565b906117676117618383906110d5565b156101bd565b61176f575050565b6117895f92839263e2517d3f60e01b84526004840161172f565b0390fd5b61179e611798610f29565b156101bd565b6117a457565b5f638dfc202b60e01b8152806117bc600482016102a6565b0390fd5b90919392936117cd61098d565b5063a9059cbb60e01b92604051935f525f1960601c1660045260245260205f60448180855af19360015f5114851615611808575b5050604052565b8492941516611821575f903b113d151616915f80611801565b833d5f823e3d90fd5b9194939492909261183961098d565b506323b872dd60e01b93604051945f525f1960601c166004525f1960601c1660245260445260205f60648180855af19360015f5114851615611881575b50506040525f606052565b849294151661189a575f903b113d151616915f80611876565b833d5f823e3d90fdfea26469706673582212202853c712a68c7604d3d08c7e69c6efcdc6ab8bb94b96c87ab07381540ab7b50a64736f6c63430008210033","linkReferences":{}},"methodIdentifiers":{"DEFAULT_ADMIN_ROLE()":"a217fddf","ORDER_ROUTER_ROLE()":"e246d8c4","balances(address)":"27e235e3","depositCollateral(uint256)":"bad4a01f","emergencyWithdraw()":"db2e21bc","getBalance(address)":"f8b2cb4f","getRoleAdmin(bytes32)":"248a9ca3","grantRole(bytes32,address)":"2f2ff15d","hasRole(bytes32,address)":"91d14854","pause()":"8456cb59","paused()":"5c975abb","releaseFromTrade(address,uint256,int256)":"43b04065","renounceRole(bytes32,address)":"36568abe","reserveForTrade(address,uint256)":"10b24706","reserved(address)":"da9425e2","revokeRole(bytes32,address)":"d547741f","supportsInterface(bytes4)":"01ffc9a7","unpause()":"3f4ba83a","usdcToken()":"11eac855","withdrawCollateral(uint256)":"6112fe2e"},"id":43}